:020000040800F2
:1000000000000220F9610008496200084962000806
:1000100049620008496200084962000800000000C7
:100020000000000000000000000000004140000847
:100030004962000800000000D1400008255D00086A
:1000400049620008496200084962000849620008E4
:1000500049620008496200084962000849620008D4
:1000600049620008496200084962000849620008C4
:1000700049620008496200084962000849620008B4
:1000800049620008496200084962000849620008A4
:100090004962000849620008496200084962000894
:1000A0004962000849620008496200084962000884
:1000B0004962000849620008496200084962000874
:1000C0004962000849620008496200084962000864
:1000D0004962000849620008496200084962000854
:1000E0004962000849620008496200084962000844
:1000F0004962000849620008496200084962000834
:100100004962000849620008496200084962000823
:100110004962000849620008295D00084962000838
:100120004962000849620008496200084962000803
:1001300049620008496200084962000849620008F3
:10014000496200084962000849620008355D0008FC
:1001500049620008496200084962000849620008D3
:1001600049620008496200084962000849620008C3
:100170004962000849620008496200080000000066
:08018000496200084962000811
:1001900010B5054C237833B9044B13B10448AFF3C1
:1001A00000800123237010BD4402002000000000E5
:1001B0003C6B000808B5034B1BB103490348AFF380
:1001C000008008BD00000000480200203C6B0008D1
:1001D000034613F8012B002AFBD1181A0138704787
:1001E00001F0FF01102A2BDB10F0070F08D010F8E8
:1001F000013B013A8B422DD010F0070F42B3F6D1EC
:10020000F0B441EA012141EA014122F007047FF004
:1002100000070023F0E80256083C85EA010586EA5B
:10022000010685FA47F5A3FA87F586FA47F6A5FA97
:1002300087F68EB9EED1F0BC01F0FF0102F00702A3
:1002400032B110F8013B013A83EA010313B1F8D14E
:100250000020704701387047002D06BF354603382F
:10026000073815F0010F07D1013015F4807F02BF68
:10027000013015F4C03F0130F0BC0138704700BFB9
:1002800053B94AB9002908BF00281CBF4FF0FF31FD
:100290004FF0FF3000F07AB9ADF1080C6DE904CEF3
:1002A00000F006F8DDF804E0DDE9022304B0704751
:1002B0002DE9F0478C460D460446089E002B51D18F
:1002C0008A4217466DD9B2FA82FEBEF1000F0BD0FA
:1002D000CEF1200C01FA0EF520FA0CFC02FA0EF712
:1002E0004CEA050C00FA0EF44FEA174A250CBCFB49
:1002F000FAF81FFA87F90AFB18CC45EA0C4508FB07
:1003000009F3AB420AD9ED1908F1FF3280F02381DD
:10031000AB4240F22081A8F102083D44ED1AA4B29C
:10032000B5FBFAF00AFB105544EA054400FB09F955
:10033000A14509D9E41900F1FF3380F00A81A145F4
:1003400040F2078102383C44A4EB090440EA08402B
:100350000021002E61D024FA0EF400233460736073
:10036000BDE8F0878B4207D9002E54D0002186E8E3
:1003700021000846BDE8F087B3FA83F1002940F078
:100380008E80AB4202D3824200F2FA80841A65EB7F
:1003900003050120AC46002E3FD086E81010BDE8D2
:1003A000F08712B90127B7FBF2F7B7FA87FEBEF163
:1003B000000F34D1EB1B3A0C1FFA87FC0121B3FB71
:1003C000F2F8250C02FB183345EA03450CFB08F351
:1003D000AB4207D9ED1908F1FF3002D2AB4200F26F
:1003E000D1808046ED1AA3B2B5FBF2F002FB1055A6
:1003F00043EA05440CFB00FCA44507D9E41900F1CD
:10040000FF3302D2A44500F2B8801846A4EB0C04D6
:1004100040EA08409DE731463046BDE8F087CEF11E
:10042000200405FA0EF307FA0EF720FA04F83A0C46
:1004300025FA04F448EA0308B4FBF2F14FEA184540
:1004400002FB11441FFA87FC45EA044501FB0CF34B
:10045000AB4200FA0EF409D9ED1901F1FF3080F03A
:100460008A80AB4240F2878002393D44EB1A1FFA82
:1004700088F5B3FBF2F002FB103345EA034500FBBD
:100480000CF3AB4207D9ED1900F1FF386FD2AB4244
:100490006DD902383D44EB1A40EA01418FE7C1F1C2
:1004A000200722FA07F88B4005FA01F448EA030313
:1004B00020FA07FE4FEA134CFD404EEA040EB5FB4E
:1004C000FCF94FEA1E440CFB19551FFA83F844EA65
:1004D000054509FB08F4AC4202FA01F200FA01FA00
:1004E00008D9ED1809F1FF3043D2AC4241D9A9F146
:1004F00002091D442D1B1FFA8EFEB5FBFCF00CFB00
:1005000010554EEA054400FB08F8A04507D9E41849
:1005100000F1FF3529D2A04527D902381C4440EA12
:100520000940A4EB0804A0FB02894C45C6464D4691
:1005300015D312D056B1BAEB0E0364EB050404FADE
:1005400007F7CB401F43CC40376074600021BDE803
:10055000F0871846F8E69046E0E6C245EAD2B8EBE6
:10056000020E69EB03050138E4E72846D7E7404669
:1005700091E78146BEE7014678E702383C4445E70B
:10058000084608E7A8F102083D442BE7704700BF82
:10059000704713B5002304468DF8073000F09AFA2F
:1005A00002A8012200F8014D202100F0E1FA02B07A
:1005B00010BD13B502AC002304F8013D00F08AFA27
:1005C000204601220F2100F0F5FA9DF8070002B045
:1005D00010BD37B502AC002304F8013D05460122E9
:1005E0002046212100F0E6FA9DF8073023F02F0382
:1005F0001D430122212120468DF8075000F0B8FA52
:1006000003B030BD1FB504A8002300F8093D012246
:10061000392100F0CFFA0622272102A800F0CAFAF9
:1006200005B05DF804FB07B501220DF1070021219B
:1006300000F0C0FA9DF80730012243F04003212169
:100640000DF107008DF8073000F092FA03B05DF865
:1006500004FB1FB5044601220DF10700202100F024
:10066000A9FA02A80622292100F0A4FA9DF8072081
:100670009DF908009DF90A109DF90C3002F0200246
:10068000202A0CBF4822122210FB02F011FB02F1BB
:1006900013FB02F320806180A38004B010BD37B546
:1006A00002AC002304F8013D054601222046382112
:1006B00000F080FA6A782B781343AA783821134324
:1006C000204601228DF8073000F052FA03B030BD09
:1006D00073B500238DF8033000F022FA402302ACFA
:1006E0008DF8043010238DF8053001A820233F2514
:1006F0008DF80630FFF7D3FF04F8055D0122204690
:10070000222100F035FA50232046012238218DF8AD
:10071000033000F02DFAAA23204601223B218DF858
:10072000033000F025FA0A23204601223C218DF8EF
:10073000033000F01DFA4C232046012230218DF8B1
:10074000033000F015FA0323204601223D218DF8E5
:1007500003307F2600F00CFA204601223E218DF85E
:10076000036000F005FA0122294620468DF8036057
:1007700000F0FEF902B070BD704737B502AC00233F
:1007800005468DF8073000F0A5F904F8015D012257
:100790002046202100F0ECF92D0A012224212046D8
:1007A0008DF8075000F0E4F903B030BD13B502AC8A
:1007B000002304F8013D00F08DF9204601220F21AD
:1007C00000F0F8F99DF8070002B010BD07B501224E
:1007D0000DF10700252100F0EDF99DF80730012209
:1007E00063F07F0325210DF107008DF8073000F03D
:1007F000BFF903B05DF804FB30B585B001222421B8
:10080000054602AC0DF1070000F0D4F901222821C1
:10081000204600F0CFF9012229210DF1090000F056
:10082000C9F901222A210DF10A0000F0C3F90122C1
:100830002B210DF10B0000F0BDF901222C2103A8A2
:1008400000F0B8F901222D210DF10D0000F0B2F9F0
:100850009DF8073003F03803083BDBB2182B97BF35
:100860000E4A9FED0F7A02EB830393ED007A00228C
:10087000A31893F90110A35603EB012307EE903A56
:10088000F8EEE77A67EE877AFDEEE77A17EE903AB0
:10089000AB520232062AEBD105B030BDFC6B00082A
:1008A0008FC2753D37B5027843781343827802AD25
:1008B000134305F8013D044601222846232100F098
:1008C00057F92279E37828461343212101228DF834
:1008D000073000F04DF9A2796379222113432846AD
:1008E00001228DF8073000F043F903B030BD30B578
:1008F00085B0002401258DF8074000F011F98DF82E
:1009000009408DF8084040238DF80B408DF80E40CB
:1009100002A804AC8DF80A308DF80D50FFF7C2FF25
:10092000032304F8093D2A462046522100F020F90D
:10093000C8232A46204654218DF8073000F018F9C4
:1009400045232A46204656218DF8073000F010F93D
:10095000FC232A4620465A218DF8073000F008F97A
:10096000A1232A4620465B218DF8073000F000F9CC
:100970002A4620465C218DF8075000F0F9F82A46F7
:1009800020467B2100F0F4F82A462046602100F042
:10099000EFF806232A46204661218DF8073000F043
:1009A000E7F828232A46204662218DF8073000F018
:1009B000DFF811232A46632120468DF8073000F026
:1009C000D7F805B030BD000010B5204C88B02046E7
:1009D00001F07CFF002837D11D4B23601823E36111
:1009E0000723E3624FF40073A3614FF482736360E3
:1009F000184B0190A06060612061A062E0602062FD
:100A000060625A6C42F480525A645A6C02F480520A
:100A10000192019A02901A6B0F4842F001021A6388
:100A20001B6B03F001030293029BE0230393022359
:100A3000049305930123069303A90523079300F06C
:100A4000D5F9204601F0F3FD08B010BD600200208A
:100A50000030014000380240000002407FB506AA85
:100A6000002302F8013D0B4B8DF80F001B6800932B
:100A70000DF10F010123084801F02CFE20B10648BA
:100A800001F012FEFFF7A0FF9DF8170007B05DF818
:100A900004FB00BF7800002060020020044B33F804
:100AA0001010044B012253F8200000F017BB00BFC8
:100AB000606C000868000020044B33F81010044BF1
:100AC000002253F8200000F009BB00BF606C000852
:100AD0006800002070B586B000210F4B00911A6BA2
:100AE0000E4D42F010021A631B6B039103F01003CA
:100AF00001240093082601A92846009B0196029430
:100B0000049400F073F922463146284600F0E6FAD4
:100B1000FFF75AFF06B070BD0038024000100240D7
:100B200010B586B000240F4B00941A6B0E4842F0AB
:100B300010021A631B6B0D4A029203F0100300931C
:100B4000009B0394022301A90193049300F04EF942
:100B500022460F21072000F0E7F8072000F018F9DF
:100B600006B010BD00380240001002400000111015
:100B7000012A70B50D46064688BF41F040050C4875
:100B800014460821002200F0A9FA2846FFF766FF64
:100B900034B9012208210648BDE8704000F09EBA31
:100BA00016F8010B013CFFF759FFA4B2F0E700BFB4
:100BB00000100240012A70B58CBF41F0C00541F021
:100BC0008005064614460C480022082100F086FAEB
:100BD0002846FFF743FF34B9012208210648BDE843
:100BE000704000F07BBA0020FFF738FF013C06F8A8
:100BF000010BA4B2EFE700BF0010024038B50E4C65
:100C0000A36898473B280AD10C4D23682C604720E5
:100C100098472B682D209B6A9847002038BD084CC8
:100C2000A36898473F2805D1044B67201C602368C0
:100C30009847F2E7012038BD00000020B8020020EC
:100C40003400002038B50D4D2B681B6B04469BB15A
:100C500098472A680A4B9A420ED1B4F9003007EE41
:100C6000903AF8EEE77A63882380F1EE677AFDEE3A
:100C7000E77A17EE903A638038BD00BFB8020020D3
:100C80000000002008B50B4B1A6842F400721A608D
:100C90001A6842F480621A601A6842F480721A601C
:100CA000032000F02FF8002004F0FEFF04F01EFFE8
:100CB000002008BD003C0240034A044B11681B7829
:100CC0000B441360704700BF144000207C000020DC
:100CD000014B1868704700BF1440002038B5044627
:100CE000FFF7F6FF631C1CBF054B1B78054618BFBA
:100CF000E418FFF7EDFF401B8442FAD838BD00BF6F
:100D00007C000020074AD36823F4E0631B041B0C1B
:100D100043F0BF63000243F4003300F4E060034398
:100D2000D360704700ED00E0174B30B5DC68C4F3CA
:100D30000224C4F10703251D042B28BF0423062D1C
:100D40004FF0010505FA03F303F1FF338CBF033CB9
:100D500000241940A14005FA04F4013C2240002877
:100D600042EA01024FEA0212AFBF00F1604000F018
:100D70000F00064BD2B2A5BF00F56140D2B21A54A3
:100D800080F8002330BD00BF00ED00E014ED00E06E
:100D90004209012300F01F0003FA00F0014B43F861
:100DA0002200704700E100E00138B0F1807F0AD2F4
:100DB000064B074A5860F02182F8231000200722D2
:100DC00098601A6070470120704700BF10E000E093
:100DD00000ED00E0044B1A6804280CBF42F0040246
:100DE00022F004021A60704710E000E02DE9F04F95
:100DF00085B00B68DFF8AC81684ADFF8AC910193ED
:100E000000234FF0010E019C0EFA03FE0EEA0406C9
:100E1000B64540F0AE804C6824F01007022F16D182
:100E20004FEAD30A00EB8A0A03F0070BDAF82050E6
:100E30004FEA8B0B4FF00F0C0CFA0BFC25EA0C0C55
:100E40000D6905FA0BF545EA0C05CAF820504FEA82
:100E5000430A0325D0F800B005FA0AF5ED4304F083
:100E6000030C0BEA050B0CFA0AFC013F4CEA0B0CD5
:100E7000012FC0F800C011D8876807EA050BCF68BA
:100E800007FA0AFC4CEA0B078760476827EA0E0E50
:100E9000C4F300179F4047EA0E074760C7683D400C
:100EA0008F6807FA0AF73D43C560E50061D54FF04A
:100EB000000BCDF80CB0D8F84470394D47F480479A
:100EC000C8F84470D8F8447007F480470397039F2C
:100ED00023F0030707F1804707F59C3703F0030C65
:100EE000D7F808A04FEA8C0C4FF00F0E0EFA0CFE4C
:100EF000A8422AEA0E0E43D005F58065A84241D0EB
:100F000005F58065A8423FD005F58065A8423DD033
:100F100005F58065A8423BD048453BD005F5006506
:100F2000A84239D005F58065A84214BF08250725D9
:100F300005FA0CF545EA0E05BD601568F74314F493
:100F4000803F0CBF3D4035431560556814F4003FA9
:100F50000CBF3D4035435560956814F4801F0CBFAD
:100F60003D4035439560D568A40254BF3D403543AC
:100F7000D5600133102B7FF444AF05B0BDE8F08F8E
:100F80005D46D5E70125D3E70225D1E70325CFE765
:100F90000425CDE70525CBE70625C9E7003C014040
:100FA0000000024000380240001402402DE9F04FDA
:100FB000464EDFF820A1DFF820B100244FF00109F0
:100FC00009FA04F232EA01036CD1032304FA09F5A9
:100FD000076803FA05F5ED4324FA03FC2F4000EB04
:100FE0008C0C076004F0070EDCF820800F274FEA16
:100FF0008E0E07FA0EFE28EA0E0ECCF820E0D0F88E
:1010000008E005EA0E0EC0F808E0D0F804E0D2438C
:1010100002EA0E0EC0F804E0D0F80CE005EA0E0576
:10102000C56024F0030505F1804505F59C3504EA0B
:10103000030E274BD5F808C04FEA8E0E07FA0EF7BD
:1010400098420CEA070C32D003F58063984230D006
:1010500003F5806398422ED003F5806398422CD02C
:1010600003F5806398422AD003F58063984228D024
:10107000504528D058450CBF0723082303FA0EF328
:101080009C450FD1AB6823EA0707AF603368134074
:101090003360736813407360B3681340B360F368E0
:1010A0001A40F2600134102C88D1BDE8F08F002383
:1010B000E4E74B46E2E70223E0E70323DEE704230D
:1010C000DCE70523DAE70623D8E700BF003C014050
:1010D0000000024000180240001C02400AB1816179
:1010E00070470904FBE7000070B50446002862D091
:1010F00090F83D3003F0FF021BB980F83C2004F06B
:101100003DFD22682D4E2E4D242384F83D3013687A
:1011100023F00103136001F03FF963682268B0FB1C
:10112000F5F5B34284BF4FF496716943556091BFA2
:10113000691C4FF47A75B1FBF5F10131B3421162CC
:1011400021D85B00B0FBF3F0C0F30B03032B98BF77
:101150000420216AE369D0610B431360E1682369CD
:101160000B439360A16963690B43D360136843F039
:101170000103136000202023206484F83D302063A5
:1011800084F83E0070BDA16849B903EB4303B0FB8E
:10119000F3F0C0F30B0363B140F40040D9E7192129
:1011A0004B43B0FBF3F0C0F30B0313B140F44040EA
:1011B000CFE70120CDE7012070BD00BFA086010070
:1011C00040420F00704770477047000070B50446FA
:1011D00000283FD00225414B80F84150436304F082
:1011E000F7FC2268D36923F47B6323F00F03D361F8
:1011F00063691562022BD56935D0E368002BA368BB
:1012000014BF202610260120202B98BF760001F065
:1012100089F923696169B3F5007F1FD1E3680A2268
:10122000D3B1B300B0FBF3F353430A22B3FBF1F3A2
:101230000533B3FBF2F303F001021202C3F34F03D1
:10124000991EFD2911D9636C43F010036364204695
:10125000FFF7BAFF012070BDF300E3E70A23B0FBFC
:10126000F6F04343E1E70022EAE7134322692068EE
:10127000666813430362E268A3681343A2691343D9
:101280009BB246F400611943226A89B20D43012AD8
:10129000C5611CD1124A62631249134A884218BFC1
:1012A0004FF0402236F40070D16921F47B6121F0C7
:1012B0000F01D1614FF002011162D1690CBF4FF4EF
:1012C0008070002043F4006303430B43D36100208C
:1012D0000123606484F8413070BD00BFED12000846
:1012E000F913000800380040003400401FB50368BF
:1012F0009A68019290F84120042A04463AD1019A52
:10130000D10719D55A68520616D5C26A911CC16216
:10131000D9681180428E013A92B24286428E92B2D0
:1013200052B95A6822F060021204120C5A6001236A
:1013300080F84130FFF747FF019B59061AD5236813
:101340005A68920616D55A6822F060021204120CEE
:101350005A6000220292DA6802929B680293029B12
:10136000012384F84130636C43F002036364204638
:10137000FFF72AFF94F84130032B3AD1019B9B07DA
:101380001BD522685368180617D5636A991C1B88F9
:101390006162D360638D013B9BB26385638D9BB2B9
:1013A0005BB9536823F0A0031B041B0C536001239B
:1013B00084F841302046FFF705FF019B190718D537
:1013C00023685A68920614D55A6822F0A0021204C3
:1013D000120C5A60002203929B680393039B012323
:1013E00084F84130636C43F0040363642046FFF7E4
:1013F000EBFE04B010BD70471FB5036892499A68B0
:101400000092924A8B4218BF4FF0402204469168E6
:101410000191D96901F44071B1F5007F04D0D96917
:1014200011F4407F40F09780009A92071DD55A68CA
:1014300010061AD5626A911C12886162DA60628DA8
:10144000013A92B26285628D92B272B95A6822F004
:10145000A0021204120C5A60638E9BB22BB90123B6
:1014600084F841302046FFF7C6FF019BD90722D5FB
:10147000754A2168754B914218BF4FF040235A6856
:10148000520618D5E26A911CE162D9681180628E19
:10149000013A92B26286628E92B262B95A6822F0C2
:1014A00060025A60638D9BB22BB9012384F84130EE
:1014B0002046FFF7A0FF019B580624D56249236808
:1014C000624A8B4218BF4FF04022516889061AD5F4
:1014D000516821F0600151605A6822F0A0021204A4
:1014E000120C5A6000220292DA6802929B68029300
:1014F000029B012384F84130636C43F00203636470
:101500002046FFF761FE009B1B0722D523685A681F
:1015100090061ED55A684C4922F0A0021204120C03
:101520005A604A4A8B4218BF4FF04022516821F05E
:1015300060015160002203929B680393039B012387
:1015400084F84130636C43F0040363642046FFF782
:101550003BFE04B010BD019B99071AD553681B06CA
:1015600017D5436A991C1B884162D360438D013BA8
:101570009BB24385438D9BB25BB9536823F0A003B4
:101580005360438E9BB223B9012380F84130FFF7AB
:1015900032FF009BD8071ED52268536859061AD51A
:1015A000E36A991CE162D1681980638E013B9BB2AA
:1015B0006386638E9BB273B9536823F060031B0488
:1015C0001B0C5360638D9BB22BB9012384F841300F
:1015D0002046FFF710FF009B5A061DD5226853686E
:1015E0009B0619D55368184923F060031B041B0C94
:1015F0005360164B8A4218BF4FF0402320465A686A
:1016000022F0A0025A60012384F84130636C43F059
:1016100002036364FFF7D8FD019B180799D50A49B7
:1016200022680A4B8A4218BF4FF040235968890646
:101630008FD5596821F0A0015960536823F06003E9
:101640001B041B0C53607AE7003800400034004054
:10165000F0B506468BB0002864D00323344680F8EA
:10166000B93304F019FC54F8100B01F0A5FA0FCCB3
:101670006D460FC50FCC0FC594E8030085E8030045
:10168000371D97E80E00306801F056FA00213068E7
:1016900001F098FA00213346324606F11004012584
:1016A000084682F83810D18701310F2982F8395065
:1016B00082F83B0010645064D06402F11C02F0D147
:1016C0000022D6F800E0114602F1400083F8F8212C
:1016D000DA870EEB800001320F2A83F8F91183F8C4
:1016E000FB11C3F80012C3F80412C3F80C124160D6
:1016F00003F11C03E8D10FCC6D460FC50FCC0FC50D
:1017000094E8030085E80300704697E80E0001F0B6
:1017100071FA012386F8B933306801F08EFD00209C
:101720000BB0F0BD0120FBE790F8B833012B10B5EA
:1017300004460CD0012380F8B833006801F071FD35
:10174000206801F033FA002084F8B80310BD0220AD
:1017500010BD00002DE9F04FD0F8009087B004468E
:10176000484601F0A4FD0290002840F02E81206838
:1017700001F06FFD002800F02881206801F069FD6C
:10178000850748BF2268206842BF536903F00203FF
:10179000536101F05EFD10F400250AD0206801F0CD
:1017A0005CFD09F530660746A2460025002F40F093
:1017B0000F81206801F04DFD41030BD5206801F039
:1017C00054FD2646039009F510680025039B002B65
:1017D00040F03F81206801F03CFD00280DDAD9F887
:1017E000043823F00103C9F80438204604F0DEFB76
:1017F0002268536903F000435361206801F029FD1A
:1018000006050BD5D9F80838D80702D5204604F0CC
:10181000B5FB2268536903F400635361206801F04B
:1018200018FDC10437D509F500667368206823F0F8
:1018300001037360102101F079FA616809F5106302
:10184000FF220298884240F092814FF0FF33B3614B
:10185000F36943F00113F361236B002B00F08F81D8
:10186000D6F8843043F00B03C6F88430736C43F031
:101870000B037364D9F80038217C206823F4FE63DD
:10188000C9F8003804F56F7201F030FD2268536921
:1018900003F480535361206801F0DBFC82041DD502
:1018A000206801F008FD2068C36823F47053C3600A
:1018B00001F065FA002840F06B812268E0604FF487
:1018C00000736361D36843F41053D360204604F07F
:1018D00044FB2268536903F400535361206801F00C
:1018E000B8FCC3062BD52268936923F010039361DB
:1018F000D9F82060C6F34343022B06F00F0840F0EE
:10190000A88147F6F0731E4214D01C2707FB084736
:10191000C6F30A163246D7F80412484601F02BFCEB
:10192000D7F804323344C7F80432D7F810321E44D3
:10193000C7F810622268936943F01003936120682E
:1019400001F087FC070707D5204604F002FB226858
:10195000536903F008035361206801F07AFCC60262
:1019600008D5E9B2204604F029FB2268536903F444
:1019700080135361206801F06CFC800208D5E9B245
:10198000204604F017FB2268536903F400135361E7
:10199000206801F05EFC410007D5204604F012FBF0
:1019A0002268536903F080435361206801F051FCC1
:1019B00042070AD523685D686B0702D5204604F00C
:1019C00005FB23685A6815435D6007B0BDE8F08FDA
:1019D000F80738D55FFA85FB5946206801F04DFCC1
:1019E00010F0010F804621D0216901239942B36094
:1019F0000CD13169DAF80002C1F31201411ACAF8B8
:101A00001012DAF804120844CAF8040259462046B3
:101A100004F08EFA2169012908D13DB9D4F80C22CD
:101A200022B904F56F72206801F060FC18F0080F0D
:101A300004D0204604F076FA0823B36018F0100FA3
:101A40001CBF1023B36001357F0820360AF11C0A41
:101A5000ACE6039BDA0758D55FFA85FB5946206848
:101A600001F015FCC307074620D5D9F83438012109
:101A7000A94023EA0103C9F834380123C8F8083023
:101A80002369012B01BF736C326C9B187364594638
:101A9000204604F056FA2169012907D135B9E36CD3
:101AA00023B904F56F72206801F020FC380744BFA9
:101AB0000823C8F80830F90644BF1023C8F80830D6
:101AC0007A0644BF4023C8F80830BB0744BF02234E
:101AD000C8F808303F0618D523680493F76C336DB7
:101AE000FF1A336C9F4228BF1F46049B03F5106307
:101AF00007F1030A03EB45134FEA9A0A0593059B86
:101B00009B699BB2534508D82FB3039B5B080135F3
:101B100003931C3608F1200858E6326DF36C9342AB
:101B2000F2D9002BF0D0376C04989B1A9F4228BF43
:101B30001F46237C00935A46BBB2716C01F007FB31
:101B4000736C3B447364336D07F1030A3B444FEA03
:101B50009A0A3365D3E7049B012203F5006BD3F89F
:101B60003438AA4023EA0203CBF83430CDE7029898
:101B70009A600130C3F808220290203361E673694D
:101B800043F00B037361336943F00B03336171E678
:101B90000323E3604023636100F0F8FB344B354AD4
:101BA00003449342236804D8DA6842F47052DA603E
:101BB0008CE6314A314902448A4203D8DA6842F459
:101BC0006052F4E7A0F574022D49A2F510528A4242
:101BD00003D8DA6842F45052E9E7A0F18372294948
:101BE000A2F5E7428A4203D8DA6842F44052DEE7BF
:101BF000254A264902448A4203D8DA6842F4305220
:101C0000D5E7234A234902448A4203D8DA6842F4DA
:101C10002052CCE7204A214902448A4203D8DA689C
:101C200042F41052C3E7A0F1B7721D49A2F5585211
:101C30008A4203D8DA6842F40052B8E7194A1A49CE
:101C400002448A42DA6894BF42F4E05242F4C0523D
:101C5000ADE7062B7FF46EAE082204F56F7148469F
:101C60001C2701F088FA07FB0847C6F30A165CE652
:101C7000405327FFFF340C00401E1BFF3F420F0064
:101C80007F4F12001FD6130060B6E5FE5FE316001B
:101C900000D3CEFE3F771B00C05BB3FEBF91210097
:101CA0001F753800E05459FEDF9C410090F8B833AE
:101CB000012B10B5044609D0012380F8B833006821
:101CC00001F09FFA002084F8B80310BD022010BD77
:101CD00070B54EB2002E04464FF01C0501F07F0097
:101CE000B5BF05FB004105FB0141383101F5FC7131
:101CF000C0B2002EB8BFC880022BCB704FEAD67599
:101D000004BF00230B7108704D7094F8B8338A60DB
:101D1000012B09D0012384F8B833206801F04AF878
:101D2000002084F8B80370BD022070BD4BB2002BB8
:101D300010B54FF01C02044601F07F00B5BF02FB56
:101D4000004102FB0141383101F5FC71DB0F0870E5
:101D50004B7094F8B833012B09D0012384F8B833C1
:101D6000206801F066F8002084F8B80310BD022056
:101D700010BD38B501F07F051C2404FB050104FBF0
:101D8000050401F5FC71C4F80C320023C4F80422E8
:101D9000C4F8103284F8F93184F8F8510369006806
:101DA000012B08BFC4F80822DAB21DB901F062F9AC
:101DB000002038BD01F098F8FAE71C2301F00F016C
:101DC00003FB0101B1F81002704738B501F07F053F
:101DD0001C2404FB050104FB05043831E3640023E3
:101DE00023650123626484F8393084F8385003692C
:101DF0000068012B08BFA264DAB21DB901F03AF9FC
:101E0000002038BD01F070F8FAE738B54BB2002B6E
:101E100001F07F054FF01C02B5BF02FB050102FB7C
:101E20000101383101F5FC710122DB0FEDB28A703E
:101E30000D704B7090F8B833934204460FD080F881
:101E4000B823006801F0A5F92DB904F56F72217C63
:101E5000206801F04BFA002084F8B80338BD022056
:101E600038BD38B54BB2002B05464FF01C0201F0CF
:101E70007F00B5BF02FB005102FB0151383101F573
:101E8000FC71DB0F00248C7008704B7095F8B83330
:101E9000012B09D0012385F8B833286801F098F99F
:101EA00085F8B843204638BD022038BD006870B5BB
:101EB000436A21B943EA02438362002070BD846A09
:101EC000002503EB14434E1EECB2B44205F10105AC
:101ED00006DB3F3100EB810043EA02434360ECE75D
:101EE000403400EB8404646803EB1443ECE70368BC
:101EF00000205962704700002DE9F341044618B9EB
:101F0000012002B0BDE8F0810368DD0710D423682A
:101F1000980758D423681A0700F19A8023685B0752
:101F200000F1B880A269002A40F019810020E8E79A
:101F3000A64B9A6802F00C02042A07D09A6802F0B5
:101F40000C02082A0AD15B68590207D59F4B1B680F
:101F50009A03DCD56368002BD9D1D1E763689B4D28
:101F6000B3F5803F11D12B6843F480332B60FEF72B
:101F7000AFFE964D06462B689B03C8D4FEF7A8FE1D
:101F8000801B6428F7D90320BBE7B3F5A02F04D149
:101F90002B6843F480232B60E5E72A6822F4803223
:101FA0002A602A6822F480222A60002BDFD1FEF703
:101FB0008FFE06462B689F03A9D5FEF789FE801B7E
:101FC0006428F7D9DFE7814B9A6812F00C0F07D02D
:101FD0009A6802F00C02082A11D15B685E020ED4E6
:101FE0007A4B1A68950702D5E268012A88D11A68E7
:101FF000216922F0F80242EAC1021A608AE7E26827
:10200000734BB2B101221A60FEF762FE6F4D0646B5
:102010002B68980707D52B68226923F0F80343EA59
:10202000C2032B6076E7FEF753FE801B0228EFD930
:10203000A9E71A60FEF74CFE644D06462B68990727
:102040007FF568AFFEF744FE801B0228F6D99AE7B9
:102050006269604B7AB101221A60FEF739FE5B4D6E
:1020600006466B6F9F073FF559AFFEF731FE801BA9
:102070000228F6D987E71A60FEF72AFE534D064676
:102080006B6F98077FF54AAFFEF722FE801B022890
:10209000F6D978E74D4B1A6C12F0805228D1019294
:1020A0001A6C42F080521A641B6C03F08053019347
:1020B000019B0126484D2B68D9051BD5A368434DCC
:1020C000012B27D12B6F43F001032B67FEF700FE96
:1020D0003E4D074641F288382B6F9B0739D5002EBD
:1020E0003FF420AF394A136C23F08053136419E78F
:1020F0000026DFE72B6843F480732B60FEF7E8FDD2
:1021000007462B68DA05D9D4FEF7E2FDC01B02288A
:10211000F7D938E7052B04D12B6F43F004032B6765
:10212000D0E72A6F22F001022A672A6F22F0040208
:102130002A67002BCAD1FEF7CBFD41F2883807464B
:102140002B6F9807CBD5FEF7C3FDC01B4045F7D9D1
:1021500019E7FEF7BDFDC01B4045BDD913E71B4D78
:10216000AB6803F00C03082B3FF4CAAE1B4E0023F0
:10217000022A336034D1FEF7ABFD07462B68990184
:102180001ED4226AE3691343626A43EA8213E26A55
:1021900043EA0263A26A0D4C5208013A43EA024341
:1021A0006B6001233360FEF793FD054623689A01B7
:1021B0003FF5BCAEFEF78CFD401B0228F6D9E2E6E7
:1021C000FEF786FDC01B0228D8D9DCE600380240A5
:1021D00000004742800E47420070004060004742C6
:1021E000FEF776FD04462B689B017FF59FAEFEF758
:1021F0006FFD001B0228F6D9C5E600BF134908B5DC
:102200008B6803F00C03042B03D0082B03D0104879
:1022100008BD104808BD4A684B68496813F480033C
:1022200014BF0C480A48C1F3881118BF002302F0FC
:102230003F02A1FB0001FEF723F8044B5B68C3F3E8
:10224000014301335B00B0FBF3F008BD00380240EE
:102250000024F40000127A002DE9F0410D460446F6
:1022600010B90120BDE8F081444B1A6802F00F025A
:102270008A4228D321688F072DD4C80740D43F4B0A
:102280001A6802F00F02954266D3226851076CD497
:10229000130707D53A4A2169936823F4604343EA58
:1022A000C1039360FFF7AAFF354B364A9B68C3F31F
:1022B0000313D35CD840344B1860002003F0F4FCC7
:1022C0000020BDE8F081CAB21A701B6803F00F034A
:1022D0009942C6D1CEE72A4B11F0040F1EBF9A686F
:1022E00042F4E0529A600E0742BF9A6842F460429C
:1022F0009A609A68A06822F0F00202439A60BCE7F4
:1023000062681F4B012A1DD11B6813F4003FA8D03F
:102310001B4EB36823F003031343B360FEF7D8FCEE
:1023200041F288380746B368626803F00C03B3EBE8
:10233000820FA4D0FEF7CCFCC01B4045F3D903208C
:10234000BDE8F081911E01291B6802D813F0007FBF
:10235000DDE713F0020FDAE7EAB21A701B6803F048
:102360000F039D427FF47DAF8FE70549E0688B68DE
:1023700023F4E05303438B608AE700BF003C024034
:10238000003802409D6C000898010020014B18683D
:10239000704700BF98010020044B054A9B68C3F3B7
:1023A0008223D35C034A1068D8407047003802404B
:1023B000AD6C0008980100200F2303600B4B9A6856
:1023C00002F0030242609A6802F0F00282609A68AA
:1023D00002F4E052C2609B68DB0803F4E05303613F
:1023E000034B1B6803F00F030B607047003802407B
:1023F000003C0240036813F0050FF7B5054605D110
:10240000286810F0020028D103B0F0BD414C424EC4
:1024100000232360FEF75CFC074633681B0115D4DC
:10242000AB686A681B0743EA8213C6F8843001234D
:102430002360FEF74DFC384C064623681801DFD4B4
:10244000FEF746FC801B0228F7D904E0FEF740FCAB
:10245000C01B0228E1D90320D6E7002301932E4BAD
:102460002E4C1A6C42F080521A641B6C03F080539D
:102470000193019B236843F480732360FEF728FCDB
:1024800006462368D9051BD5234C236F13F44073EC
:102490001CD1EB6803F44072B2F5407F1E4A34D180
:1024A000916823F0704021F4F81120F4407001434A
:1024B0009160116FC3F30B030B4313670020A3E775
:1024C000FEF706FC801B0228DBD9C4E7EA6802F4A9
:1024D00040729342DDD0236F114A0121116023F431
:1024E0004073002111602367236FDA07D1D5FEF70F
:1024F000EFFB41F288370646236F9B07C9D4FEF7EE
:10250000E7FB801BB842F7D9A5E7916821F4F811E1
:10251000CEE700BF6800474200380240007000402C
:10252000400E4742012820D1114B9A6812F4000254
:1025300004D0012A0F4818BF002070475A680C4980
:1025400058685302D1F884204CBF0B4B0B4B00F062
:102550003F00B3FBF0F3D1F88400C2F38812534379
:10256000C0F30270B3FBF0F070470020704700BF6B
:10257000003802400080BB0000127A000024F40002
:102580002DE9F041069E0446884617461D462268FE
:10259000936838EA03030CBF012300239F4202D152
:1025A0000020BDE8F0816B1CF2D055BB23685A684F
:1025B00022F0E0025A606268B2F5827F0AD1A26816
:1025C000B2F5004F02D0B2F5806F03D11A6822F045
:1025D00040021A60A26AB2F5005F09D11A6822F4BB
:1025E00000521204120C1A601A6842F400521A6067
:1025F000012384F85130002384F850300320BDE8D3
:10260000F081FEF765FB801B8542C0D8CEE713B58D
:102610000B460092802100220446FFF7B1FF20B153
:10262000636D43F020036365032002B010BD10B555
:102630000446002836D00023836290F8513003F01E
:10264000FF021BB980F8502003F0F4FA2168A0685B
:10265000A269022384F851300B6823F040030B6019
:1026600063680343E06803432069034360690343ED
:10267000E0690343206A0343A06A034302F4007045
:1026800003430B60120C636A02F004021A434A60AF
:10269000CB6923F40063CB6100200123606584F8DB
:1026A000513010BD012010BD10B5044680B1026844
:1026B000022380F85130136823F04003136003F0C5
:1026C000DFFA0020606584F8500084F8510010BDE6
:1026D000012010BD2DE9F043994690F8503085B0A7
:1026E000012B04460D4616460C9F00F0ED80012399
:1026F00080F85030FEF7ECFA94F851306168DBB2A4
:10270000012B80460AD0B1F5827F40F0DB80A268C1
:10271000002A40F0D780042B40F0D480002D4ED00A
:10272000002E4CD0B9F1000F49D094F85130A66377
:10273000012B04BF052384F8513000236365236413
:1027400063642368A4F83E90A4F836901A68A4F84D
:102750003C90500658BF1A68256358BF42F04002AB
:10276000A4F8349058BF1A60E268B2F5006F5DD1EA
:1027700019B1E28E92B2012A06D135F8022BDA6045
:10278000E38E013B9BB2E3864FF00109E38E9BB2DF
:10279000BBB9E38F9BB2A3B9CDF800803B460122C1
:1027A00002212046FFF7ECFE002835D1424639468B
:1027B0002046FFF72CFF002879D0202363650120F5
:1027C0002BE0B9F1000F0FD0E38E9BB263B1236809
:1027D0009A68910708D535F8022BDA60E38E013B41
:1027E0009BB2E3864FF00009E38F9BB263B123688D
:1027F0009A68D20708D5DB6826F8023BE38F013BD5
:102800009BB2E3874FF00109781CBFD0FEF760FA56
:10281000A0EB08008742B9D80320012384F8513087
:10282000002384F8503005B0BDE8F08319B1E28E82
:1028300092B2012A06D115F8012B1A73E38E013BDF
:102840009BB2E3864FF00109E38E9BB21BB9E38F85
:102850009BB2002BA0D0B9F1000F0FD0E38E9BB23A
:1028600063B123689A68910708D52A781A73E38EB2
:10287000013B9BB2E38601354FF00009E38F9BB229
:1028800063B123689A68D20708D5DB683370E38F99
:10289000013B9BB2E38701364FF001097B1CD3D08B
:1028A000FEF716FAA0EB08008742CDD8B4E7A3687C
:1028B000002BB2D123680390DA6803929B680393DC
:1028C000039BAAE70220A8E70220ACE790F851009A
:1028D000704770470368DA6842F00102DA601A68EC
:1028E00042F001021A60002070477047704770473D
:1028F000704703681A69910710B504460ED5DA6867
:1029000092070BD56FF002021A619B6901229B07A7
:10291000027677D0FFF7EAFF0023237623681A694F
:10292000500710D5DA6851070DD56FF004021A610F
:102930009B69022213F4407F2276204668D0FFF77D
:10294000D5FF0023237623681A6912070FD5DA68AA
:1029500010070CD56FF008021A61DB690422990791
:10296000227620465AD0FFF7C1FF00232376236842
:102970001A69D20610D5DA68D0060DD56FF01002AC
:102980001A61DB69082213F4407F227620464BD07F
:10299000FFF7ACFF0023237623681A69D10708D517
:1029A000DA68D20705D56FF001021A61204603F0FC
:1029B00091F823681A69100608D5DA68110605D55A
:1029C0006FF080021A61204600F0B5F823681A699A
:1029D000520608D5DA68500605D56FF040021A6134
:1029E0002046FFF785FF23681A69910622D5DA6829
:1029F00092061FD56FF0200220461A61BDE81040F4
:102A000000F098B8FFF771FF2046FFF770FF83E7EB
:102A1000FFF76BFF2046FFF76AFF92E7FFF765FFBE
:102A20002046FFF764FFA0E7FFF75FFF2046FFF7B0
:102A30005EFFAFE710BD00002E4A0368904212D03F
:102A4000B0F1804F0FD0A2F57C4290420BD002F53E
:102A50008062904207D002F58062904203D002F576
:102A6000784290421DD14A6823F070031343214AF3
:102A7000904204D1CA6823F44073134328E0B0F1B4
:102A8000804FF7D01C4A9042F4D002F58062904209
:102A9000F0D002F580629042ECD002F5784290428C
:102AA000E8D0164A9042E5D002F580629042E1D02B
:102AB00002F580629042DDD0A2F598329042D9D0E2
:102AC00002F580629042D5D002F580629042D1D06A
:102AD00003608B68C3620B688362064B984206D022
:102AE00003F58063984202D00123436170470B696C
:102AF0000363F9E70000014000040040004001408A
:102B000010B50446A0B190F8393003F0FF021BB9AC
:102B100080F83820FFF7DDFE022384F83930206882
:102B2000211DFFF789FF012384F83930002010BDF3
:102B3000012010BD7047704784B038B505AD85E8F9
:102B40000E000A9B012B044626D1836B23F48033AD
:102B50008363C36823F4840323F04003C360C36822
:102B600023F44013C360119B012B02BFC36843F4DD
:102B70008013C36000F0DEFB089B012B07D1A36824
:102B800043F00603A360A36843F02003A360BDE8FD
:102B90003840002004B07047C36843F04003C3606E
:102BA00000F0C8FB4FF48033A363E5E7836843F08C
:102BB0000103836000207047836823F00103836072
:102BC0000020704708B5C368012923F0C043C360E3
:102BD00008D1C36843F00053C3603220FEF77EF88B
:102BE000002008BD0029F8D1C36843F08043C360CA
:102BF000F3E7000084B02DE9F041044607A880E81F
:102C00000E00119E0A9FA36B8846A6B943F40013D9
:102C1000A3630023C4F8003ED4F80038C4F8003899
:102C20000C9B012B04F500655ED1099939B920464A
:102C300000F09EF807E043F40023A363E9E7194698
:102C4000204600F095F81021204600F06FF820464D
:102C500000F07EF800234FF0FF322B6119466B61C4
:102C60004FF09040AA614FF0FF0EEB6104F5106247
:102C700043453BD1002104F5306208464FF0904EA9
:102C80004FF0FF0C8B423ED12B69012F23F4807350
:102C90002B6108D1234B2B632B6B43F4803343F020
:102CA00003032B632B6B0023A3616FF080436361ED
:102CB0001FB9A36943F01003A361A2691A4B134320
:102CC000A3610D9B1BB1A36943F00803A361012E0F
:102CD00001BFA36943F0804343F00403A361BDE84F
:102CE000F041002004B070470321A0E7D2F800C0F3
:102CF000BCF1000FB4BF1060116001331161C2F864
:102D000008E02032B4E7D2F80080B8F1000FB4BF79
:102D1000C2F800E0106001311061C2F808C0203232
:102D2000B0E700BF0001800000383C80890141F01D
:102D30002001064A0161013A05D0036913F020031E
:102D4000F9D1184670470320704700BF410D0300BA
:102D50001023064A0361013A05D0036913F01003FA
:102D6000F9D1184670470320704700BF410D03009A
:102D7000D0F800381943C0F800180020704700F55B
:102D80000062D0F8080810F0060012D0936803F033
:102D90000603022B0CD0936803F00603062B07D022
:102DA000936803F00603042B14BF00200220704731
:102DB0000320704730B54B780C78D0F81C5800F5DC
:102DC0000062012B1BD1A3409BB22B4300F5106086
:102DD000D36100EB44131A6812040ED48A68C878D1
:102DE0001D68C2F30A0242F0805242F4004242EAF5
:102DF000804040EA845028431860002030BD4FF4E2
:102E00008033A34000F530602B4300EB4410D361C6
:102E100003681B04F1D48B68C9780268C3F30A0302
:102E200043F0805343F4004343EA81431343036078
:102E3000E3E700F001B8000070B54B78012B0E46B7
:102E4000054609784FF0200326D100F5106213FBE8
:102E500001231A6822F400421A604FF000621A60DF
:102E60004FF080421A601F4A013A01D1032070BD21
:102E70009C6814F08044F7D110212846FFF756FFD4
:102E80003178D5F81C2801238B409BB222EA03033A
:102E9000C5F81C38204670BD00F5306213FB0123D5
:102EA0001A6822F400421A604FF000621A604FF074
:102EB00080421A600B4A013AD8D0986810F010008E
:102EC000F9D1D5F8043843F48063C5F80438D5F84F
:102ED0001C384FF480328A4023EA0203C5F81C38BC
:102EE00070BD00BF410D0300F7B54B780C78012B86
:102EF0004B6977D1202600F5106516FB045426692E
:102F0000002B38D126F0FF5626F4C016266126691C
:102F100046F4002626612669F60CF6042661012A8D
:102F200050D10C780E6905EB44146661CE78012E01
:102F30000FD1D0F808480F7814F4807F4FF02004A8
:102F400014FB075427680CBF47F0005747F0805721
:102F500027600F7805EB4715012E2C6844F00444D8
:102F60002C6005D100929BB23A46C96800F0EFF898
:102F7000002003B0F0BDF60CF604266126698F68C8
:102F800026F0FF5626F4C0162661DE19013EB6FB78
:102F9000F7F7374ED4F810E006EAC74646EA0E06C1
:102FA00026612769C3F312063E432661CE78012EBF
:102FB0005AD1266926F0C0462661266946F0005699
:102FC0002661ACE7CE78012EB3D0002BAED091F8BD
:102FD00000E0D0F83478012404FA0EF43C43C0F841
:102FE0003448A3E700F5306505EB44142569ED0C82
:102FF000ED042561256925F0FF5525F4C0152561EF
:103000008D68FBB92369C5F312051D43256123694A
:1030100043F400232361012A04BFCB686361CB78AA
:10302000012B0AD1D0F8083813F4807F23680CBF35
:1030300043F0005343F080532360236843F004437C
:10304000236095E70A4E27692B44013BB3FBF5F358
:1030500006EAC3463E4326619BB226695D43C5F33B
:10306000120535432561D6E7012AAED159E700BFE5
:103070000000F81F4B78012B70B50B784D6943D1D8
:10308000202400F5106614FB03631C69CDB924F0FD
:10309000FF5424F4C0141C611C6944F400241C6116
:1030A0001C69E40CE4041C610D7806EB4513012A4D
:1030B0001C6844F004441C601BD10A695A6100205A
:1030C00070BDE40CE4041C611C6924F0FF5424F47A
:1030D000C0141C618C68A54288BF4C611C6944F413
:1030E00000241C614C691D69C4F312042C431C614B
:1030F000DAE74B69002BE2D0D0F834280123AB404B
:103100001343C0F83438DAE700F5306000EB4310C1
:103110000369DB0CDB040361036923F0FF5323F431
:10312000C01303618B6805B14B61046944F400244A
:1031300004610469C3F312032343012A036104BF3A
:10314000CB684361036843F004430360B7E710B5FD
:103150009DF808404CB9033300F5805023F0030379
:1031600000EB02320B44994201D1002010BD51F80E
:10317000040B1060F7E7033222F003020A4400F563
:103180008050914201D108467047036841F8043BE2
:10319000F7E74B780A78012B4FF020030BD100F5AD
:1031A000106013FB02000368002B0BDB036823F0A5
:1031B0008043036006E000F5306013FB0200036803
:1031C000002BF3DA036843F4001303600020704718
:1031D0004B780A78012B0CBF00F5106000F53060C9
:1031E000202313FB0200036823F400130360CB7851
:1031F000023B012B9EBF036843F080530360002015
:103200007047D0F8003823F4FE63C0F80038D0F8D7
:103210000038090101F4FE611943C0F800180020CC
:10322000704708B5D0F8043823F00203C0F804381A
:103230000320FDF753FD002008BD08B5D0F8043881
:1032400043F00203C0F804380320FDF747FD0020D7
:1032500008BD4269806910407047D0F8183800F501
:103260000060C0691840000C7047D0F8183800F5AD
:103270000060C069184080B2704700F5306303EB0E
:10328000411100F500608A6840691040704710B530
:10329000D0F81048D0F8343800EB4110CB4000F59E
:1032A0001060DB018068DBB22343184010BD406929
:1032B00000F001007047D0F8003923F4FF6323F0D9
:1032C0000703C0F8003900F500639A6802F00602AF
:1032D000042A02BFD0F8002942F00302C0F80029F6
:1032E0005A6842F480725A600020704710B500247A
:1032F000C0F8104BD0F8104B44F40024C0F8104B29
:10330000D0F8104B44F01804C0F8104BD0F8104B14
:10331000012900F5306344F0C04408BF4FF080231A
:10332000C0F8104B04BFC0F8142BC0F8003B0020BD
:1033300010BD00000A4B013B01D103207047026918
:10334000002AF8DA0369064A43F001030361013AEF
:10335000F3D0036913F00103F9D11846704700BF99
:10336000410D0300D0F818321BB10020C3F814023D
:10337000704702207047D0F81C3210B5D0F81842C0
:103380005BB194F80002FF2807D09B6894F80122F3
:1033900021469847FF2384F80032002010BD00002A
:1033A0004323038000487047B80000204323038074
:1033B00000487047FC00002043230380004870470A
:1033C0004C0100200A230380004870474001002080
:1033D00038B50546D0F8184202F0B6FED5F81832D6
:1033E000C4F80C024BB1D5F81C32D4F80402DB68E7
:1033F00004F503719847002038BD022038BD000055
:10340000F8B50F7817F0600306460C4623D0202B42
:1034100019D1CA884B78C2B13906D0F818520BD5E9
:10342000D0F81C1218468F682946B847E28829460A
:10343000304600F09AFB06E085F8003285F801225C
:10344000294600F0A7FB0020F8BDD0F81C028468D4
:103450001846A047F7E74B780A2BF4D1012201491F
:10346000E7E700BFBC02002010B58121044602F04E
:1034700003FE0121204602F0FFFD8221204602F0DA
:10348000FBFDD4F8183253B1D4F81C325B6898476E
:10349000D4F8180202F006FF0023C4F81832002006
:1034A00010BDF8B5037C04467BBB4FF400730222C9
:1034B000812102F0D1FD4FF4007302220121204648
:1034C00002F0CAFD082303228221204602F0C4FD37
:1034D0004FF4077002F0DEFE0646C4F8180220B36F
:1034E000D4F81C321B689847277C0025C6F8145274
:1034F000C6F8185287B94FF40073D6F80422012198
:10350000204602F013FE3846F8BD402302228121F6
:1035100002F0A2FD4023D0E74023D6F80422012187
:10352000204602F003FE2846F8BD0120F8BD19B17F
:10353000C0F81C120020704702207047D0F81832E3
:103540000020C3F80812C3F810227047D0F81832D0
:103550000020C3F804127047D0F8182210B572B1D9
:10356000D2F81442012364B9C2F814328121B2F8AE
:103570001032D2F8082202F0CBFD204610BD022006
:1035800010BD184610BDD0F8182210B562B1047CE9
:1035900044B94FF40073D2F80422012102F0C6FDB1
:1035A000002010BD4023F6E7022010BD08B580B111
:1035B000D0F8143213B10023C0F8143209B1C0F8A6
:1035C0001012012380F8FC31027002F003FD00208C
:1035D00008BD022008BD19B1C0F8141200207047C0
:1035E0000220704708B502F029FD002008BD08B58B
:1035F000D0F814320BB9022008BD1B689847002888
:10360000F9D108BD08B5D0F814325B68984700209E
:1036100008BD38B5044600F50275284600F075FA75
:10362000012394F80812C4F8F431B4F80E32C4F847
:10363000F83101F01F03012B0ED007D3022B10D05D
:1036400001F08001204602F025FD03E029462046D6
:1036500000F0E6F8002038BD2946204600F0DAF9EF
:10366000F8E72946204600F0EDF9F3E738B50446BF
:10367000154611BBD0F8F431032B0FD1D0F80C3123
:10368000D0F8102193420BD99B1A9A4228BF1A46B0
:10369000C0F80C3192B2294600F08BFA002038BDF8
:1036A000D0F814321B6923B190F8FC21032A00D111
:1036B0009847204600F085FAF0E7D0F814329B696D
:1036C000002BEBD090F8FC21032AE7D19847E5E7DF
:1036D00070B5134604460E4600293DD1D0F8F421BA
:1036E000022A0FD1C569026A954214D9AA1AC26189
:1036F000194692B200F046FA33461A461946204659
:1037000002F014FD94F80032012B02D1002384F85A
:103710000032002070BD8369B3FBF2F502FB153562
:1037200065B99A420AD8D0F8F821934206D22A46BF
:1037300000F028FAC4F8F8512B46DEE7D4F814322A
:10374000DB682BB194F8FC21032A01D1204698476D
:10375000204600F041FAD5E7D0F814325B69002B1F
:10376000D7D090F8FC21032AD3D19847D1E738B5B8
:103770000022044611464025402302F06DFC2B46F2
:10378000C4F8105100228021204602F065FC01237C
:1037900084F8FC31D4F8183225622BB1D4F81432F5
:1037A00021795B6820469847002038BD01740020CD
:1037B000704790F8FC3180F8FD31042380F8FC312B
:1037C0000020704790F8FD3180F8FC3100207047F0
:1037D00008B590F8FC21032A04D1D0F81432DB6933
:1037E00003B19847002008BD0020704700207047B3
:1037F0000020704708B5012280F8FC21D0F814227F
:10380000017952689047002008BD10B58021044618
:1038100002F040FC20460021BDE8104002F03ABC16
:1038200037B54B7804460D46092B79D8DFE813F0FD
:10383000C900E5007800D90078006D000A00780022
:10384000B9008D004B881A0A013A062A68D8DFE8C9
:1038500002F0041C296767495200D0F810321B6837
:10386000207C0DF106019847BDF80620002A67D09C
:10387000EB88002B64D09A4228BF1A46ADF8062088
:103880000146204600F071F95AE0027CD0F814326B
:1038900032B99B6A0DF10600984702234370E3E7B3
:1038A000DB6AF7E7DBB2052B3AD8DFE803F0030762
:1038B0000B0F1317D0F810325B68D1E7D0F8103235
:1038C0009B68CDE7D0F81032DB68C9E7D0F810323A
:1038D0001B69C5E7D0F810325B69C1E7D0F8103238
:1038E0009B69BDE7037CDBB9D0F814320DF106000B
:1038F0005B6B9847B8E7037C93B9D0F814320DF1AD
:1039000006001B6B98470723C8E78B8843B9CB8811
:1039100033B990F8FC318D78032B05F07F0503D186
:103920002046FFF772FF0BE080F8FE51294602F0B7
:10393000E1FB204600F045F92DB1022384F8FC316B
:10394000002003B030BD0123F8E78978304D01290C
:103950002970E5D890F8FC31022B0CD0032BDFD175
:10396000B1B9022380F8FC314160FFF74BFE2046DD
:1039700000F027F9E4E70029F9D001210323416091
:1039800080F8FC312046FFF732FE0228EFD1C7E76E
:1039900041680129EBD0C9B2FFF734FE2978616094
:1039A000F0E7CA88012ABBD190F8FC31022B03D082
:1039B000032BB5D1011D64E70146002341F8083F00
:1039C0005FE790F8FC31023B012BA9D80123C360CB
:1039D000D0F804320BB10323C360022204F10C01BE
:1039E0004FE74B88012BABD1C4F80432D4F8143222
:1039F00029469B6820469847B9E790F8FC31023B7E
:103A0000012B8DD84B88012B9AD10023ECE700BF06
:103A1000BD02002038B590F8FC31032B04460D465A
:103A20000DD10B79012B0AD8D0F814329B68984736
:103A3000EB8813B9204600F0C4F8002038BDFFF72A
:103A4000E4FEFAE770B50A788E8802F06002202A58
:103A500004460D46F3B205D1D0F814329B6898475E
:103A6000002070BD4A78012A1CD02AD3032AF7D13E
:103A700090F8FC21022A40D0032A02D0FFF7C5FEAD
:103A8000EEE74A8822B95E0602D0194602F002FB30
:103A9000D4F8143229469B6820469847204600F007
:103AA00090F8DDE790F8FC21022A26D0032AE5D120
:103AB0004A88002AD4D15906F0D0194602F0F8FA03
:103AC000E6E790F8FC21022A17D0032AD6D103F0AA
:103AD0007F0516F0800F00EB0515194614BF14354D
:103AE00005F5827502F0F2FA68B101232B6002221B
:103AF0002946204600F039F8B2E75A06B0D01946F8
:103B000002F0C8FAACE72860F1E70B7803704B7855
:103B10004370CA788B7803EB022343804A790B7990
:103B200003EB02238380CA798B7903EB0223C380E2
:103B3000704730B588B105462B1A15F8014BDBB23A
:103B4000002CF9D15B00023313800B7003234B7000
:103B50000138022310F8015F05B930BD5A1CD2B2FA
:103B6000CD540233DBB28C54F4E710B51346022275
:103B7000C0F8F42183610A46C361002102F0C8FA4B
:103B8000002010BD08B513460A46002102F0C0FA15
:103B9000002008BD10B513460322C0F8F421C0F878
:103BA00008310A46C0F80C31002102F0BFFA0020AB
:103BB00010BD08B513460A46002102F0B7FA0020EE
:103BC00008BD08B50423C0F8F43100231A4619468D
:103BD00002F09EFA002008BD08B50523C0F8F431B4
:103BE00000231A46194602F0A1FA002008BD08B5C4
:103BF00001F098F8002008BD30B5B0F90840028AFD
:103C00000B4690E8220085B0842C14BF03340024B6
:103C100003A801900094284600F0B4FF01280CBFCF
:103C20000398002005B030BD08B5002808BF01206A
:103C300001F0C6F9002008BD1FB504AB00220292B6
:103C400043F8042DEFF30582BAB102AA00920122D3
:103C500001F05AFC012804D04FF0004005B05DF897
:103C600004FB029B3BB1084B4FF080521A60BFF33C
:103C70004F8FBFF36F8F0398F0E7012201F0DCFB59
:103C80000128F8D0E8E700BF04ED00E030B585B0CA
:103C90000023044615460293EFF3058010B18223FA
:103CA000019307E0134602AA01F080FB01280BD024
:103CB00045B9019504AB13E9070084E807002046E5
:103CC00005B030BD4023EBE7029B002BB4BF862339
:103CD0000823E5E72DE9F04146680746142000F087
:103CE0001BFB033626F003060446A8B13868A06023
:103CF0000025E660256100F00FFB80466060D0B1D2
:103D00003868704300F008FB0646206058B12B4627
:103D100029463A68934202D32046BDE8F0816268A2
:103D2000D1540133F5E7606800F084FB204600F0D1
:103D300081FB3446F0E7204600F07CFB4446EBE78D
:103D400070B50546EFF305847CB1EFF311844FF0B5
:103D5000500383F31188BFF36F8FBFF34F8FA968B0
:103D600000228A4204D1002612E000F07BF9F6E737
:103D70002B6968681344994298BF0023C618C05C39
:103D800068B901223270EE6828682B6106FB0306D1
:103D9000EFF305832BB184F31188304670BD0132F7
:103DA000DFE700F081F9F8E788B181B10368994253
:103DB0000DD3CB1AC168B3FBF1F201FB123131B95B
:103DC00083689A4203D2436808469954704780201A
:103DD00070477FB503688468019305464368029382
:103DE00000260C20039600F097FAAB6820601C6850
:103DF0006CB1256032460421286800F013FCAB68E2
:103E000060601E68746824B9304600F013FB2046D9
:103E100008E001A8FFF75EFFAB68B060186884682F
:103E2000002CF2D004B070BD10B18068FFF788BFDD
:103E3000704700001FB5019118B300240394EFF3FD
:103E40000583B3B1234603AA01A9406800F0C2FC70
:103E5000012802D0FF2004B010BD039B3BB10A4BE8
:103E60004FF080521A60BFF34F8FBFF36F8F002067
:103E7000F1E71A4601A9406800F0F6FB0128E9D1F4
:103E8000F5E78020E7E700BF04ED00E0F0B585B07E
:103E9000044617460846039101AD11B980230193EA
:103EA00019E000260096EFF30583DBB16A4602A90C
:103EB000406800F0B5FD012804BF20230193009B5A
:103EC00018BF01963BB10E4B4FF080521A60BFF302
:103ED0004F8FBFF36F8F95E8070084E807002046F7
:103EE00005B0F0BD02A9406800F0D6FC012801D160
:103EF0002023D4E7002F0CBF00234023CFE700BFCF
:103F000004ED00E010B18068FFF74EBF80207047DD
:103F100008B501F099F9012803D0BDE8084000F088
:103F200009B908BD00F1080343604FF0FF32C360D8
:103F300003610023826003607047002303617047C0
:103F400043684B609A688A609A6851609960036818
:103F500008610133036070470A68531C30B50AD109
:103F600003695A684A6091608B6059600368086110
:103F70000133036030BD00F108035C682568AA4284
:103F8000EFD32346F9E74168826803698A60826853
:103F900051605968884208BF5A600022026118685F
:103FA00001381860704700000A4B1B68013308D0C5
:103FB0004FF0500383F31188BFF36F8FBFF34F8F20
:103FC000FEE74FF0500383F31188BFF36F8FBFF309
:103FD0004F8FFEE79001002006480068006880F3DC
:103FE000088862B661B6BFF34F8FBFF36F8F00DFF3
:103FF00000BF000008ED00E0DFF80C00016841F4AC
:10400000700101607047000088ED00E04FF08073A0
:1040100040F8043C074B40F80C3C21F001016FF0E4
:10402000020340F8081C40F8202C40F8243C443897
:10403000704700BFA93F000800000000000000001A
:10404000074B19680868B0E8F04F80F30988BFF3A0
:104050006F8F4FF0000080F311887047AFF300803E
:10406000DC3E00204FF0500383F31188BFF36F8FC5
:10407000BFF34F8F0A4A13680133012B13600DD130
:10408000084B1B6813F0FF0F08D04FF0500383F369
:104090001188BFF36F8FBFF34F8FFEE7704700BFEC
:1040A0009001002004ED00E0084A136843B94FF086
:1040B000500383F31188BFF36F8FBFF34F8FFEE779
:1040C000013B13600BB983F3118870479001002006
:1040D000EFF30980BFF36F8F154B1A681EF0100FB6
:1040E00008BF20ED108A20E9F04F10604DF8043D24
:1040F0004FF0500080F31188BFF34F8FBFF36F8FE5
:1041000000F0BCFF4FF0000080F3118808BC196874
:104110000868B0E8F04F1EF0100F08BFB0EC108A2E
:1041200080F30988BFF36F8F704700BFAFF3008043
:10413000DC3E002008B54FF0500383F31188BFF335
:104140006F8FBFF34F8F00F031FE18B1034B4FF06C
:1041500080521A60002383F3118808BD04ED00E04B
:10416000064B4FF47A721B68B3FBF2F3044A013B2F
:104170001360044B07221A60704700BF98010020AB
:1041800014E000E010E000E0314B324A13B519684A
:10419000914208D14FF0500383F31188BFF36F8F22
:1041A000BFF34F8FFEE71A682B4B9A4208D14FF0AE
:1041B000500383F31188BFF36F8FBFF34F8FFEE778
:1041C000264B1A78D2B20192FF221A701B78244A29
:1041D000DBB28DF803309DF8033003F05003137009
:1041E000204B07221A6000219DF80300000602F10F
:1041F000FF3423D401B11A601A68120202F4E0629B
:104200001A60019B154ADBB21370174B1A6842F40F
:1042100070021A601A6842F070421A60FFF7A0FF3D
:10422000124B00221A60FFF7E7FE114A136843F0B1
:1042300040431360FFF7D0FEFFF7B6FE9DF8032062
:104240005200D2B28DF8032001212246CCE700BFF4
:1042500000ED00E071C20F4170C20F4100E400E0C8
:10426000BE020020C002002020ED00E090010020EE
:1042700034EF00E0EFF305830F2B0ED9104A9B5C5F
:10428000104A12789A4208D94FF0500383F31188EC
:10429000BFF36F8FBFF34F8FFEE70B4B0B4A1B68CB
:1042A000126803F4E063934208D94FF0500383F39C
:1042B0001188BFF36F8FBFF34F8FFEE7704700BFCA
:1042C000F0E300E0BE0200200CED00E0C0020020A0
:1042D00010B50F4B1A68824218D35C6819198842CE
:1042E00001BF4168184609195960446801198A429A
:1042F00007D1084909688A421FBF51681268091925
:1043000041609842026018BF186010BD1346E1E793
:10431000D43E0020C40200202DE9F041044600F004
:104320003DFD3E493E4D0B680BBB3E4A56071FBF45
:10433000D01D20F0070002F570531B1A14BF02466F
:104340004FF470531344083B23F00703364E0B60C1
:1043500000207060326058601860981A1360334B08
:1043600050601860324B18604FF000432B602F688C
:10437000274216D1002C41D004F1080358071CBF76
:1043800023F00703083363B1294A1668B342904605
:1043900007D8254A15686868834204D809688D42A1
:1043A00007D100242AE02C68002CF7D02A462546A5
:1043B000F1E7296814681160C21A102A0FD9E818A9
:1043C000410708D04FF0500383F31188BFF36F8F7C
:1043D000BFF34F8FFEE742606B60FFF779FF134931
:1043E0006B680868F61A1F4386424FF00003C8F84E
:1043F000006038BF0E6008346F602B6000F068FD0D
:10440000630708D04FF0500383F31188BFF36F8F19
:10441000BFF34F8FFEE72046BDE8F081C4020020C5
:10442000C83E0020C8020020D43E0020D03E00201C
:10443000CC3E002010B5044670B3184A50F8043C36
:104440001268134208D14FF0500383F31188BFF371
:104450006F8FBFF34F8FFEE750F8081C41B14FF04C
:10446000500383F31188BFF36F8FBFF34F8FFEE7C5
:1044700023EA020340F8043C00F090FC084A54F898
:10448000043C1168A4F108000B441360FFF720FFFF
:10449000BDE8104000F01CBD10BD00BFC83E0020AC
:1044A000CC3E002070B51546026C866B044642B9BE
:1044B00005689DB9406800F01DFF65600136A66380
:1044C00070BD6DB9806801F0F5FEA368226C1344DD
:1044D0006268A360934201D32368A3600020EDE7E4
:1044E000C06801F0E7FE236CE26821685B421A4471
:1044F0008A42E2603EBF62689B18E360022DEDD104
:104500000EB1013EEAE73046D8E7034610B41A6C14
:10451000084662B1D9685C681144A142D96024BFE1
:104520001968D960D9685DF8044B01F0C3BE5DF825
:10453000044B704770B50446FFF794FD94F845505E
:1045400004F124066DB2002D14DCFF2384F84530FD
:10455000FFF7AAFDFFF786FD94F8445004F110061A
:104560006DB2002D12DCFF2384F84430BDE87040AA
:10457000FFF79ABD636A002BE7D0304600F0D2FD0A
:1045800008B100F05BFE013D6DB2DCE72369002B52
:10459000E9D0304600F0C6FD08B100F04FFE013D05
:1045A0006DB2DEE738B50D46044640B94FF0500312
:1045B00083F31188BFF36F8FBFF34F8FFEE7FFF7D1
:1045C00051FD206CE36B2268A2604343D1181B1A93
:1045D00013446160E3600021FF23A16384F8443049
:1045E00084F8453095B9236963B104F1100000F0F7
:1045F00099FD38B10A4B4FF080521A60BFF34F8FCC
:10460000BFF36F8FFFF750FD012038BD04F110009C
:10461000FFF788FC04F12400FFF784FCF2E700BFF9
:1046200004ED00E070B50D46064640B94FF050036A
:1046300083F31188BFF36F8FBFF34F8FFEE74843BB
:104640004830FFF769FE044638B145B92060E6639B
:10465000256401212046FFF7A5FF204670BD00F12B
:1046600048030360F3E700002DE9FF478946019204
:104670001F46044640B94FF0500383F31188BFF33F
:104680006F8FBFF34F8FFEE7002940F08880036CE7
:10469000002B00F084804FF0500383F31188BFF3A8
:1046A0006F8FBFF34F8FFEE7019E002E00F08280D8
:1046B0004FF0500383F31188BFF36F8FBFF34F8F19
:1046C000FEE7019D1DB9FFF7EFFC002058E016B989
:1046D00002A800F069FDFFF7E7FC00F05FFBFFF7C1
:1046E000C1FC94F84430FF2B08BF84F8448094F850
:1046F0004530FF2B08BF84F84580FFF7D5FC01A9A2
:1047000002A800F061FD002843D1FFF7ABFCA66BC7
:10471000E56BFFF7C9FCAE4235D1019904F11000F9
:1047200000F0E6FC2046FFF705FF00F0D1FB38B9AA
:104730004FF08053CAF80030BFF34F8FBFF36F8F35
:104740000126FFF78FFCA26BE36B9A4201D3022F85
:10475000B7D13A4649462046FFF7A4FE636A1BB12B
:1047600004F1240000F0DEFC38B1194B4FF0805208
:104770001A60BFF34F8FBFF36F8FFFF795FC0120D7
:1047800004B0BDE8F0872046FFF7D4FE00F0A0FBA0
:10479000D6E72046FFF7CEFE00F09AFB95E7022F02
:1047A00002D1E36B012B0AD100F04EFD00283FF44B
:1047B0007BAF00264FF00008DFF814A0C1E74FF0F0
:1047C000500383F31188BFF36F8FBFF34F8FFEE762
:1047D00004ED00E02DE9F843884691461F46044663
:1047E00040B94FF0500383F31188BFF36F8FBFF3CD
:1047F0004F8FFEE709BB036CFBB14FF0500383F30F
:104800001188BFF36F8FBFF34F8FFEE704F12400D1
:1048100000F088FC002834D0B9F1000F31D001201D
:10482000C9F8000086F31188BDE8F88301356DB240
:1048300084F8455025E00020F4E7022F02D1E36B15
:10484000012B20D1FFF716FDEFF311864FF0500337
:1048500083F31188BFF36F8FBFF34F8FA26BE36BAE
:104860009A4201D3022FE6D194F845503A466DB2F0
:1048700041462046FFF716FE6B1CD7D1636A002B1A
:10488000C4D10120CEE74FF0500383F31188BFF36A
:104890006F8FBFF34F8FFEE72DE9FF4788460192E8
:1048A0009946044640B94FF0500383F31188BFF393
:1048B0006F8FBFF34F8FFEE7002940F0A580036C98
:1048C000002B00F0A1804FF0500383F31188BFF359
:1048D0006F8FBFF34F8FFEE7019E002E00F09A808E
:1048E0004FF0500383F31188BFF36F8FBFF34F8FE7
:1048F000FEE7636AE660002B6DD004F124005FE000
:10490000019D1DB9FFF7D0FB284667E016B902A844
:1049100000F04AFCFFF7C8FB00F040FAFFF7A2FBEB
:1049200094F84430FF2B08BF84F8447094F8453065
:10493000FF2B08BF84F84570FFF7B6FB01A902A85A
:1049400000F042FC002852D1FFF78CFBA56BFFF76B
:10495000ABFB002D45D1236833B9FFF783FB6068BB
:1049600000F082FCFFF7A0FB019904F1240000F0A5
:10497000BFFB2046FFF7DEFD00F0AAFA38B94FF082
:104980008053CAF80030BFF34F8FBFF36F8F0126FB
:10499000FFF768FBA56B002DB2D041462046E668C4
:1049A000FFF7B3FDB9F1000FA3D12368013DA56363
:1049B00013B900F0EFFC6060236963B104F11000EB
:1049C00000F0B0FB38B1154B4FF080521A60BFF3C6
:1049D0004F8FBFF36F8FFFF767FB012004B0BDE877
:1049E000F0872046FFF7A6FD00F072FACFE72046D9
:1049F000FFF7A0FD00F06CFAFFF734FBA56BFFF7A3
:104A000053FB002DC3D17FE700F01EFC00283FF4CC
:104A100063AF00260027DFF804A0B9E704ED00E04B
:104A20002DE9F84389469046054640B94FF05003BA
:104A300083F31188BFF36F8FBFF34F8FFEE771BB16
:104A4000036C63B34FF0500383F31188BFF36F8F90
:104A5000BFF34F8FFEE795F84460494676B228468B
:104A6000FFF753FD013C731CAC6313D12B690BB9E9
:104A700001200BE005F1100000F054FB0028F7D0F6
:104A8000B8F1000FF4D00120C8F8000087F31188B6
:104A9000BDE8F883013676B285F84460E8E7FFF7B1
:104AA000E9FBEFF311874FF0500383F31188BFF355
:104AB0006F8FBFF34F8FAC6B002CCCD12046E5E756
:104AC000064A13681968064B19B94FF0FF321A608D
:104AD00070471268D268D2685268F8E7E03E00205A
:104AE000B83F0020F8B51B4B1B4E1D6804463068CC
:104AF00004300F46FFF747FA334640B93168174E86
:104B0000C96A32680120884022EA00023260621CD1
:104B100007D137B1196812480431BDE8F840FFF7F2
:104B20000FBA2C441A68A542546007D90D4A106880
:104B30001968BDE8F8400431FFF70EBA0A4A106858
:104B400019680431FFF708FA084B1A68944238BF15
:104B50001C60F8BD00400020DC3E0020883F0020A3
:104B6000D83F0020E43E0020E03E0020B83F002077
:104B70004FF0500383F31188BFF36F8FBFF34F8F54
:104B8000FEE700002DE9F84F4FEA820A80465046C2
:104B90000F4699460B9EFFF7BFFB0546002800F025
:104BA00096805420FFF7B8FB0446002800F08C8064
:104BB000AAF1040A056355447B1E25F0070A00F19B
:104BC00034020F37597802F8011B13F8011F09B19D
:104BD000BB42F7D10A9D062D28BF06254FF0000BDA
:104BE000271DE5626564384684F843B0C4F848B0D0
:104BF000FFF7A3F9C5F1070504F11800FFF79DF9C8
:104C0000C4F84CB02461A561646284F850B04A468F
:104C100041465046FFF7FAF9206006B13460FFF7CD
:104C200021FA324B324E1A68DFF8F08001321A60F6
:104C30003568002D4ED134601B68012B1DD108EB67
:104C400005001435FFF76EF98C2DF8D1DFF8D09000
:104C5000284D4846FFF766F92846FFF763F92648CE
:104C6000FFF760F92548FFF75DF92548FFF75AF986
:104C7000244BC3F80090244B1D60244A2449136838
:104C8000086801331360E26A012505FA02F3034361
:104C900014200B6000FB02803946FFF751F9FFF743
:104CA00003FA1C4B1B6863B13368DA6AE36A9A4201
:104CB00007D2194B4FF080521A60BFF34F8FBFF3EA
:104CC0006F8F2846BDE8F88F2846FFF7B3FB4FF0FB
:104CD000FF35F6E70F4B1B68002BCED13368DA6A3D
:104CE000E36A9A4298BF3460C7E700BF743F002070
:104CF000DC3E0020A03F0020C03F0020EC3F002011
:104D0000D83F0020E03E0020E43E0020843F002009
:104D1000883F0020D43F002004ED00E0E83E002062
:104D20008C3F002013B5174B0193002400942346B9
:104D3000802215491548FFF725FF012814D14FF0AF
:104D4000500383F31188BFF36F8FBFF34F8F104B66
:104D50004FF0FF321A600F4B18600F4B1C6002B00F
:104D6000BDE81040FFF710BA013008D14FF05003F2
:104D700083F31188BFF36F8FBFF34F8FFEE702B04D
:104D800010BD00BFB43F0020686C00080950000847
:104D9000B83F0020D43F002000400020024A1368A2
:104DA00001331360704700BF803F00202DE9F84FAA
:104DB0003C4B1B68002B53D13B4B1C6801341C60DF
:104DC000BCB93A4B1A68126842B14FF0500383F3F2
:104DD0001188BFF36F8FBFF34F8FFEE7344A196816
:104DE000106818601160334A136801331360FFF7CD
:104DF00067FE314D314F2B689C424FF0000B3ED384
:104E0000DFF8A880DFF8C490D8F80020126872BBE1
:104E10004FF0FF322A6032E006F1040A5046FFF7F5
:104E2000B2F8B16A19B106F11800FFF7ACF8F06AF0
:104E3000D9F80030012202FA00F11943204BC9F8D9
:104E400000104FF0140E51460EFB0030FFF778F8BB
:104E50003868F16AC26A914228BF4FF0010BD3E76C
:104E6000184A1368013313604FF0000B11E0D8F8B3
:104E70000020D268D66871688C42CDD229603A6829
:104E80000F4BD16A14224A439A58022A28BF4FF086
:104E9000010B0D4A1268002A18BF4FF0010B58464B
:104EA000BDE8F88F803F002000400020E03E002059
:104EB000E43E0020BC3F0020B83F0020DC3E002044
:104EC000E83E00207C3F002004400020883F002076
:104ED0002DE9F843314C236843B94FF0500383F375
:104EE0001188BFF36F8FBFF34F8FFEE7FFF7BAF85C
:104EF0002368013B236024682CB10024FFF7D4F819
:104F00002046BDE8F883264B1B68002BF5D0DFF860
:104F1000A890244FDFF8A480D9F80030E3B90CB191
:104F2000FFF7CEFD204D2C6844B1204E0127FFF73E
:104F30003DFF00B13760013CF9D12C601B4B1B6871
:104F4000002BDAD01A4B4FF080521A60BFF34F8F0C
:104F5000BFF36F8F0124D1E7D9F80C30DC68261D30
:104F600004F11800FFF70FF83046FFF70CF8E26A7B
:104F70003968012505FA02F314200B4300FB028077
:104F800031463B60FEF7DCFF0A4BE26A1B68DB6AD6
:104F90009A4224BF054B1D60BEE700BF803F002042
:104FA000743F0020883F00207C3F00200440002008
:104FB00004ED00E0DC3E0020C03F0020E83E002081
:104FC00008B540B90E4B4FF080521A60BFF34F8FB7
:104FD000BFF36F8F08BD0B4B196841B14FF0500301
:104FE00083F31188BFF36F8FBFF34F8FFEE7FFF797
:104FF000D5FEFFF777FDFFF76BFF0028E2D008BD75
:1050000004ED00E0803F002008B5174E174C2368E0
:1050100063B9174B1B68012BF8D9164B4FF0805220
:105020001A60BFF34F8FBFF36F8FEFE7FFF7B6FE46
:105030003568FFF74DFF002DE9D0FFF713F8F3684F
:10504000DD68281DFEF79FFF0B4A1368013B1360C4
:105050002368013B2360FFF727F8286BFFF7EAF985
:105060002846FFF7E7F9D2E7EC3F0020783F002021
:10507000E83E002004ED00E0743F0020174B1A6862
:10508000174B10B512B101221A6010BD1A60154BF2
:105090001B68B3FA83F3DBB2C3F11F031422124976
:1050A0005A4388188C5844B94FF0500383F3118841
:1050B000BFF36F8FBFF34F8FFEE744680832646819
:1050C00044600A44944204BF62684260142202FBB6
:1050D00003135B68DA68054BD6E700BF803F00200A
:1050E00004400020883F0020E83E0020DC3E0020F5
:1050F00010B50C4640B94FF0500383F31188BFF34D
:105100006F8FBFF34F8FFEE7054B19681831FEF71D
:1051100023FF20460121BDE81040FFF7E3BC00BF9C
:10512000DC3E002038B5C368DC6844B94FF050035A
:1051300083F31188BFF36F8FBFF34F8FFEE704F146
:1051400018052846FEF71FFF114B1B68E3B9251D04
:105150002846FEF718FF0F49E26A086801239340CA
:1051600003430B600C4B1420294600FB0230FEF772
:10517000E7FE0A4BE26A1B68DB6A9A4283BF084B70
:1051800001201860002038BD29460648EFE700BF1F
:10519000803F0020883F0020E83E0020DC3E0020C9
:1051A00004400020C03F002008B508B9FFF7E0FC2C
:1051B000034B1B680360034B1B68436008BD00BFC3
:1051C000BC3F00200040002038B50D46044640B9E1
:1051D0004FF0500383F31188BFF36F8FBFF34F8FEE
:1051E000FEE741B94FF0500383F31188BFF36F8F8F
:1051F000BFF34F8FFEE7FEF735FF0E4B19682B68A4
:105200005A1C10D00C4A206812689042626801D083
:1052100091420DD2881A83420AD95B1A13442B603B
:105220002046FFF7C1FF0024FEF73EFF204638BDB1
:105230000124F9E700400020BC3F0020014B01227F
:105240001A60704704400020054B1B6833B1054BC2
:105250001B68002B0CBF0220002070470120704704
:10526000D43F0020803F00202DE9F0410446002873
:1052700038D01D4DC36A2A68D26A934232D28269FD
:105280001A4E002AA1BF2A68D26AC2F107028261BF
:105290001427426907FB03639A4220D100F10408F6
:1052A0004046FEF770FE124A48B9E06A4743F35998
:1052B0002BB913680121814023EA010313602B6895
:1052C0001168D86AE062012383400B431360142302
:1052D000414603FB0060BDE8F041FEF731BE2B689C
:1052E000DB6AC362BDE8F081DC3E0020E83E0020BE
:1052F000883F0020F8B5044608B90020F8BD224BCD
:105300001B68984208D04FF0500383F31188BFF315
:105310006F8FBFF34F8FFEE7836C43B94FF050039D
:1053200083F31188BFF36F8FBFF34F8FFEE7C16A1E
:10533000426C013B91428364DFD0002BDDD1051D1F
:105340002846FEF720FE114E114A50B9E76A142193
:10535000794373582BB913680120B84023EA00033E
:105360001360636CE362C3F10701A161116801245A
:1053700004FA03F008431060142000FB0360294680
:10538000FEF7DEFD2046F8BDDC3E0020E83E0020B2
:10539000883F0020044B1A681AB119688A6C0132E0
:1053A0008A641868704700BFDC3E00202DE9F04198
:1053B0001F4C1E4680460F461546FEF753FE2368D7
:1053C00093F85030022B14D02368DA6C22EA0802DA
:1053D000DA642368012183F8501056B13046FFF794
:1053E00081FB144B4FF080521A60BFF34F8FBFF315
:1053F0006F8FFEF759FEFEF735FE15B12368DB6CA3
:105400002B60236893F85030012B1FBF2368D96CA1
:10541000B943D96423684FF0000214BF0125002569
:1054200083F85020FEF740FE2846BDE8F08100BF1B
:10543000DC3E002004ED00E0F8B50F4616461D46A0
:10544000044640B94FF0500383F31188BFF36F8FC8
:10545000BFF34F8FFEE7FEF705FE0DB1E36C2B6047
:1054600094F850500223721EEDB284F85030032A93
:105470000AD8DFE802F002060410E16C0F43E7648B
:1054800002E0E36C0133E364012D08D00125FEF74F
:105490000BFE2846F8BD022DF1D10025F7E7261DA9
:1054A0003046FEF770FD1449E26A086805FA02F317
:1054B00003430B60114B142000FB02303146FEF712
:1054C0003FFDA36A43B14FF0500383F31188BFF34C
:1054D0006F8FBFF34F8FFEE7094BE26A1B68DB6AF1
:1054E0009A42D3D9074B4FF080521A60BFF34F8FC7
:1054F000BFF36F8FCBE700BF883F0020E83E00205E
:10550000DC3E002004ED00E02DE9F843089F8946C9
:1055100090461D46044640B94FF0500383F311886E
:10552000BFF36F8FBFF34F8FFEE7FEF7A3FEEFF3DE
:1055300011864FF0500383F31188BFF36F8FBFF3D1
:105540004F8F0DB1E36C2B6094F85050022308F19B
:10555000FF32EDB284F85030032A07D8DFE802F0BA
:10556000020D1311E16C41EA0901E164012D0DD036
:10557000012086F31188BDE8F883E36C0133E3640E
:10558000F4E7022D33D0C4F84C90EFE7A36A43B19F
:105590004FF0500383F31188BFF36F8FBFF34F8F2A
:1055A000FEE7144B1B68DBB904F104084046FEF724
:1055B000EAFC114AE36A11689D400D4315600F4AE9
:1055C0001420414600FB0320FEF7BAFC0C4BE26AB4
:1055D0001B68DB6A9A42CBD901202FB13860C8E73B
:1055E00004F118010748EFE7074B1860C1E70020F6
:1055F000BFE700BF803F0020883F0020E83E00203A
:10560000DC3E0020C03F00200440002070B598B070
:105610002D4B002101911A6C42F080521A641B6CD0
:1056200003F080530193019B284B02911A6842F4C6
:1056300080421A601B6803F480430293029B4FF47C
:1056400080330D934FF480031393082314934FF486
:10565000A8730224012615930CA807230C96129414
:1056600016941793FCF748FC00B1FEE74FF4A053E3
:105670000F2509900A9305214FF4805307A8079539
:1056800008940B93FCF7E8FD00B1FEE7C02303A8E4
:10569000059403960493FCF7ADFE044600B1FEE7C3
:1056A000FCF774FE4FF47A73B0FBF3F0FBF77CFB6E
:1056B0000420FBF78FFB224629464FF0FF30FBF713
:1056C00033FB18B070BD00BF0038024000700040CE
:1056D00080B594B00024FBF7D5FAFFF797FF814B14
:1056E00001941A6B8048DFF8448242F010021A637A
:1056F0001A6B02F010020192019A02941A6B42F0A6
:1057000004021A631A6B02F004020292029A0394D2
:105710001A6B42F080021A631A6B02F08002039245
:10572000039A04941A6B42F001021A631A6B02F096
:1057300001020492049A05941A6B42F002021A6361
:105740001A6B02F002020592059A06941A6B42F057
:1057500008021A631B6B03F0080306932246082114
:10576000069BFBF7BBFC224601216048FBF7B6FC19
:1057700022464FF210015E48FBF7B0FC01260825D7
:105780000FA959480F95109611941294FBF72EFB10
:105790000FA956480F960227109611941294FBF702
:1057A00025FB0F950FA905255048109711941294C9
:1057B0001395FBF71BFB0FA94E480F96CDF84080C1
:1057C0001194FBF713FB04230FA94B480F9310947C
:1057D0001194FBF70BFB4FF480630FA946480F931E
:1057E0001097119412941395FBF700FB4FF21003DE
:1057F0000FA93F480F93109611941294FBF7F6FAF5
:1058000020230FA93A480F9310941194FBF7EEFA56
:1058100035480F970FA9CDF840801194374EFBF70C
:10582000E5FA3748374B846080E848004FF48043FE
:10583000C460036144618461C4610462FBF754FC89
:1058400000B1FEE7304B314A98604FF4007483E8B2
:105850001400D8602E4A9861D861186218461C61FD
:105860005A61FBF7B3FC00B1FEE72A4B2A49986066
:105870004FF4827283E80600D86018615861D861DD
:105880001862586298620A2218469C61DA62FCF734
:10589000CEFE074600B1FEE7204C0FCC0AAE0FC685
:1058A00054F8043B336039460AA8FEF7A5F91C4BAF
:1058B00018600FCC0FAE0FC62368336039460FA8AF
:1058C000FEF79AF9174B079518603946062307A883
:1058D0000893CDF824D0FEF77CFA134B1860FEF73E
:1058E00086F9FEE70038024000100240000802403E
:1058F000000C02400000024000040240A0860100AB
:105900001C40002000540040D0400020003C0040DB
:10591000007701007840002000300140546B0008FF
:10592000704000201840002074400020000011103A
:1059300010B586B0FBF762F900B1FEE74FF0FF3219
:1059400001216846FEF7A2F92F4C04A8FBF77AF96B
:105950004FF0FF312068FEF767FA01460028F7D0C4
:10596000BDF910300380BDF912304380BDF9143009
:1059700083802068FEF75EFA0120FBF79DF8002087
:10598000FBF79AF80220FBF797F80320FBF794F84F
:10599000BDF91020BDF9123082EAE27083EAE371AA
:1059A000A0EBE270A1EBE37188421EDD174BB3F967
:1059B0000030934212DA0220FBF770F8FA20FEF76B
:1059C00033F90120FBF778F80020FBF775F8022087
:1059D000FBF772F80320FBF76FF8B6E70C4BB3F94F
:1059E00000309342EADD0020E6E7094AB2F90020E0
:1059F0009A4201DD0320DFE7044AB2F900209A420F
:105A0000DCDA0120D8E700BF7440002094010020B8
:105A10009601002008B5FFF78BFF0000F0B5264B7C
:105A2000ABB00AAA03F1080614461868596815466F
:105A300003C50833B3422A46F7D118681B792B7186
:105A40002860732200210DF1350000F03EFC4FF07C
:105A5000FF32012102A8FEF719F9184B184E1868F9
:105A6000184F0121FEF7E8F82046FAF7B1FB01468E
:105A7000204600F0FBF9316807A84FF0FF32FEF72F
:105A800005FA089DB5F90420B5F900300192B5F981
:105A90000220009280213A46204600F0DBFC294695
:105AA0003068FEF72FFA2046FAF792FB01462046AF
:105AB00000F0DCF9DFE700BF7C6B00081840002035
:105AC000744000206D6C000808B500F05FF9FFF726
:105AD000A5FF00000268034B9A4201D1FBF7ECB826
