:020000040800F2
:10000000A841002059020008830C00087F0C00085A
:10001000810C000865030008A50E00080000000020
:100020000000000000000000000000009D0100082A
:100030006703000800000000F1010008E50C00085B
:1000400073020008730200087302000873020008BC
:1000500073020008730200087302000873020008AC
:10006000730200087302000873020008730200089C
:10007000730200087302000873020008730200088C
:10008000730200087302000873020008730200087C
:10009000730200087302000873020008730200086C
:1000A000730200087302000873020008730200085C
:1000B000730200087302000873020008730200084C
:1000C000730200087302000873020008730200083C
:1000D000730200087302000873020008730200082C
:1000E000730200087302000873020008730200081C
:1000F000730200087302000873020008730200080C
:1001000073020008730200087302000873020008FB
:100110007302000873020008D90D0008730200087A
:1001200073020008730200087302000873020008DB
:1001300073020008730200087302000873020008CB
:1001400073020008730200087302000873020008BB
:1001500073020008730200087302000873020008AB
:10016000730200087302000873020008730200089B
:100170007302000873020008730200080000000008
:100180007302000873020008DFF80CD000F0D8F802
:1001900000480047210F0008A84100202B4B196898
:1001A0000868B0E8F04F80F30988BFF36F8F4FF015
:1001B000000080F3118870470000000006480068C6
:1001C000006880F3088862B661B6BFF34F8FBFF353
:1001D0006F8F00DF00BF00BF08ED00E0DFF80C000C
:1001E000016841F470010160704700BF88ED00E0D4
:1001F000EFF30980BFF36F8F144B1A681EF0100FD6
:1002000008BF20ED108A20E9F04F106008B44FF0CD
:10021000500080F31188BFF34F8FBFF36F8F01F051
:1002200029FA4FF0000080F3118808BC19680868AB
:10023000B0E8F04F1EF0100F08BFB0EC108A80F34A
:100240000988BFF36F8F704700BF00BF3C000020DC
:10025000EFF30580704700000648804706480047D6
:10026000FEE7FEE7FEE7FEE7FEE7FEE7FEE7FEE766
:10027000FEE7FEE7850D0008890100082DE9F05F23
:100280000546002092469B46884606468146402405
:100290001BE0284641464746224600F041F85346B7
:1002A0005A46C01A914110D311461846224600F012
:1002B00028F82D1A67EB01084F462246012000213D
:1002C00000F01FF817EB00094E41201EA4F10104B5
:1002D000DFDC484631462A464346BDE8F09F40EA07
:1002E00001039B0703D009E008C9121F08C0042AB4
:1002F000FAD203E011F8013B00F8013B521EF9D29B
:100300007047202A04DB203A00FA02F100207047EF
:100310009140C2F1200320FA03F319439040704743
:10032000202A04DB203A21FA02F00021704721FA4A
:1003300002F3D040C2F120029140084319467047B1
:10034000064C074D06E0E06840F0010394E8070022
:1003500098471034AC42F6D3FFF71AFF2C1A000866
:100360004C1A0008FEE7704770B5044600F00EF81E
:100370000546601C02D004480078044400F006F8EA
:10038000401BA042FAD370BD0800002001488068DD
:10039000704700000800002002488168027811447C
:1003A00081607047080000200B4810B5016841F4D7
:1003B00000710160016841F480610160016841F4ED
:1003C00080710160032000F0B1F8002000F006F811
:1003D00000F03EF8002010BD003C024010B5014680
:1003E00088B00022362000F081F8362000F072F844
:1003F00013480024016841F010010160006805A95C
:1004000000F010000690684600F03AF900F05EF93E
:100410000C494000B0FBF1F10C480B4A491E026048
:1004200040F2E732C0E90324C0E9011400F03EFBCA
:1004300010B1012008B010BD044800F053FBF9E7EB
:100440004038024040420F00001000407C00002075
:100450001F4808B5016841F480410160006800F45C
:10046000804000901A48001F016841F080510160EF
:10047000006800F080500090032000F057F8002240
:1004800011466FF00B0000F031F8002211466FF0BA
:100490000A0000F02BF8002211466FF0090000F06E
:1004A00025F800221146501F00F020F800221146C6
:1004B000101F00F01BF800220F21901E00F016F80C
:1004C00000220F21BDE80840501E00F00FB80000C8
:1004D0004438024000F01F02012191404009800091
:1004E00000F1E020C0F8001170470000F0B40E4B9E
:1004F0001B680C46C3F30223C3F10705042D00D982
:100500000425191D072901D2002300E0DB1E012666
:1005100006FA05F1491E214099409E40761E16407C
:100520003143F0BC00F0AEBB0CED00E0064900F03A
:10053000070208684FF6FF03184040EA0220034A0A
:1005400010430860704700000CED00E00000FA0561
:100550002DE9F0470E46050065D0DFF81481D8F884
:100560000000F7B200F00F00B04207D288F8007028
:10057000D8F8000000F00F00B04254D128683D4C7C
:10058000810712D5400703D5206840F4E050206071
:100590002878000703D5206840F460402060206878
:1005A000A96820F0F000084320602878C0072DD00B
:1005B000304968680839012812D0022813D003286E
:1005C00011D00968890700292DDA216821F003017B
:1005D00001432160FFF7DAFE814641F2883A0EE0DE
:1005E00009688903EFE709688901ECE7FFF7CEFEA8
:1005F000A0EB0901514502D90320BDE8F08720682E
:10060000696800F00C00B0EB810FEFD1D8F8001052
:10061000404601F00F01B14207D90770006800F0B1
:100620000F00B04201D00120E7E72878400705D548
:100630002068E96820F4E05008432060287800072B
:1006400006D52068296920F4604040EAC100206096
:1006500000F04CF82168084AC1F30311515CC8400E
:10066000064908600020FFF7B9FE0020C5E700003A
:10067000003C024008380240041A00081400002020
:100680000F2202600C4A136803F0030343601368EF
:1006900003F0F0038360136803F4E053C36012684F
:1006A0004FF4E05303EAD20202610448006800F00C
:1006B0000F0008607047000008380240003C02400C
:1006C00001480068704700001400002004480549F4
:1006D00000680968044AC1F38221515CC840704730
:1006E0001400002008380240141A0008154810B5FC
:1006F000006810F00C02144813D04110042A0FD0E7
:10070000082A0ED10F4C241F2268236802F03F02F2
:100710005B0207D52068C0F38810A0FB010106E04A
:10072000084610BD2168C1F38811A1FB0001002318
:10073000FFF7A4FD2168C1F30141491C4900B0FB4A
:10074000F1F010BD083802400024F4002DE9F84F04
:10075000050076D02878DFF8F8B2BE4CC00749D043
:10076000DBF800105846C1F38101012908D0006868
:10077000C0F3810002280AD1201D0068400206D57E
:100780002068800336D568680028E2D032E06868C7
:10079000B0F5803F10D0B0F5A02F206810D020F425
:1007A00080302060206820F4802020606868A0B13C
:1007B000FFF7ECFD06460CE0206840F48030F4E7DB
:1007C00040F480202060F7E7FFF7E0FD801B6428FD
:1007D00073D820688003F7D50CE0FFF7D7FD0646F5
:1007E00005E000BFFFF7D2FD801B6428F0D8206829
:1007F0008003F7D42878DFF8608280074FF0000983
:100800003ED5DBF80010584611F00C0F09D00068F7
:10081000C0F3810002280BD18D48001F0068400200
:1008200006D42068800715D5E868012809D111E0B1
:10083000E868B8B10120C8F80000FFF7A7FD064638
:1008400005E002E1FFF7A2FD801B0228C0D8206866
:100850008007F7D52068296920F0F80040EAC10038
:1008600020600DE0C8F80090FFF790FD064604E018
:10087000FFF78CFD801B02281FD820688007F7D463
:100880002878000722D5724E744869696C3671B1B8
:1008900001210160FFF77AFD074604E0FFF776FDCE
:1008A000C01B022809D830688007F7D50EE0C0F8D1
:1008B0000090FFF76BFD074605E083E0FFF766FD5C
:1008C000C01B02287ED830688007F7D428784007FC
:1008D00068D5DFF87CA100270AF1380ADAF80000B1
:1008E000C0000BD4DAF8001041F08051CAF80010B3
:1008F000DAF80000012700F080500090584E306870
:10090000C00510D4306840F480703060FFF73EFDC1
:10091000009005E0FFF73AFD0099401A022851D8EF
:100920003068C005F6D54A4EA868683601280FD051
:100930000528306810D020F001003060306820F0C9
:1009400004003060A868B8B1FFF720FD00900FE008
:10095000306840F00100F4E740F004003060F7E751
:10096000FFF714FD0099411A41F28830814264D8A2
:1009700030688007F4D50EE0FFF708FD009007E02F
:10098000FFF704FD0099411A41F28830814254D8A2
:1009900030688007F4D42FB1DAF8001021F08051CC
:1009A000CAF80010A869C0B3DBF80010C1F38101D8
:1009B00002294AD00228484607D0C8F86000FFF74D
:1009C000E5FC00E039E005463AE04746C8F860003B
:1009D000FFF7DCFC064604E0FFF7D8FC801B02288A
:1009E0002BD820688001F7D4D5E907010843A96A0C
:1009F0001C4A490802EB01416A6A41EA8211084334
:100A000095F82C1040EA01611148001F0160012097
:100A10003866FFF7BBFC054605E014E0FFF7B6FCBF
:100A2000401B022809D820688001F7D50BE000BFE1
:100A3000FFF7ACFC401B022802D90320BDE8F88F69
:100A400020688001F4D40020F8E70120F6E70000D8
:100A5000083802400038024000004742800E4742FA
:100A6000007000400000FFFF4FF0E02104280869FB
:100A700003D020F004000861704740F00400FAE75A
:100A800010B5401EB0F1807F01D3012010BD4FF0A2
:100A9000E02460610F21601700F0F4F80020A061ED
:100AA00007202061002010BD7047704710B504007A
:100AB00003D094F8390010B107E0012010BD0020E8
:100AC00084F83800204600F00CF8022084F8390041
:100AD000211D206800F086F9012084F839000020EB
:100AE00010BD70470168CA6842F00102CA60006820
:100AF000016841F00101016000207047704770B546
:100B00000446006801694FF00005C943890715D400
:100B1000C168C943890711D4E91E0161012020760B
:100B2000206880698007204602D0FFF7E7FF04E0D5
:100B300000F098F8204600F096F8257620680169C4
:100B4000C943490717D4C168C943490713D46FF093
:100B500004010161022020762068806910F4407F42
:100B6000204602D0FFF7CAFF04E000F07BF82046E1
:100B700000F079F8257620680169C943090716D481
:100B8000C168C943090712D46FF00801016104204C
:100B900020762068C0698007204602D0FFF7AEFFAC
:100BA00004E000F05FF8204600F05DF8257620684C
:100BB0000169C943C90617D4C168C943C90613D41A
:100BC0006FF010010161082020762068C06910F4E0
:100BD000407F204602D0FFF791FF04E000F042F88A
:100BE000204600F040F8257620680169C943C9070E
:100BF00008D1C168C943C90704D1891E01612046D3
:100C000000F032F820680169C943090609D4C168B7
:100C1000C943090605D46FF0800101612046FFF742
:100C200043FF20680169C943490609D4C168C94323
:100C3000490605D46FF040010161204600F01EF81E
:100C400020680169C94389060BD4C168C943890674
:100C500007D46FF0200101612046BDE87040FFF726
:100C600024BF70BD7047704700680349884201D1B6
:100C7000FFF792BB70470000001000407047FEE78E
:100C8000FEE770470907090E002806DA00F00F009A
:100C900000F1E02080F8141D704700F1E02080F89A
:100CA000001470474FF47A75002406A000F0FCF899
:100CB0003220FFF759FB641C052CF6D3284600F0C0
:100CC00073F9F1E75461736B20310A0003A000F05F
:100CD000EBF83220FFF748FBF8E700005461736B34
:100CE00020320A0000F06CB930B5244893B00025DA
:100CF000016841F080510160006800F0805011905F
:100D00001F48016841F4804101600068022400F43A
:100D10008040119001200090000401908001CDE9F5
:100D2000064008AA0420A82182E813000B90684618
:100D3000FFF70CFD00B1FEE70CA90F2081E83100A0
:100D40004FF4A0500F904FF48050109005210CA844
:100D5000FFF7FEFB00B1FEE7FFF7B2FC4FF47A713C
:100D6000B0FBF1F0FFF78CFE0420FFF77DFE0022C0
:100D70000F21501EFFF7BAFB13B030BD40380240C0
:100D8000007000401048016841F4700101600F4894
:100D9000016841F0010101600C4A00210832116034
:100DA00002680B4B1A400260031D0A4A1A6002686F
:100DB00022F48022026005480C3001600249580686
:100DC000803908607047000088ED00E0003802407C
:100DD000FFFFF6FE103000240148FFF790BE000030
:100DE0007C000020F0B50268234B244D244E254F93
:100DF000254C4FF0804C984209D0604507D0A8425E
:100E000005D0B04203D0B84201D0A04204D122F0B4
:100E1000700E4A6842EA0E0298421BD0604519D013
:100E2000A84217D0B04215D0B84213D0A04211D07A
:100E3000164DA8420ED0164DA8420BD0154DA84213
:100E400008D0154DA84205D0144DA84202D0144D2B
:100E5000A84203D122F44075CA682A4302608A6816
:100E6000C2620A688262984201D0A04201D1096937
:100E7000016301214161F0BD000001400004004018
:100E800000080040000C0040000401400040014008
:100E9000004401400048014000180040001C004090
:100EA00000200040FEE70000014A024900F013B8AC
:100EB000F90E00087800002002E008C8121F08C1DF
:100EC000002AFAD170477047002001E001C1121FCB
:100ED000002AFBD170472DE9F04116460F46044623
:100EE000002503E03946B047641C6D1C20780028BB
:100EF000F8D12846BDE8F08108490968C90706D03D
:100F0000064980390968CA074FF0604101D170472E
:100F100000BF0A68002AFBD008707047800E00E00E
:100F20008CB0FFF741FAFFF7DFFE1948016841F086
:100F300080010160016801F080010A91016841F0BF
:100F400001010160016801F001010A91016841F0AD
:100F5000020101600068142200F002000A900D49AD
:100F60006846FFF7BCF90021684600F033F80A4CE8
:100F7000084914222060143105A8FFF7B0F90021B8
:100F800005A800F027F8606000F015F8FEE7000003
:100F900030380240DC190008000000200146002023
:100FA000842900D0C81C704710B500B9012000F09A
:100FB000FFFA002010BD10B500F020FB002010BD8E
:100FC00010B500F037FC012803D0BDE8104000F058
:100FD000EFBB10BD3EB504460D46B0F90800FFF763
:100FE000DDFF02A9CDE90001208A2B4682B2D4E9B7
:100FF000001000F0F3FB012801D000203EBD029854
:101000003EBD00002DE9F041184C0F460546E6684C
:101010002068001D00F016FA38B9206890F82C10EE
:1010200001208840216981432161681C07D137B1C3
:101030002168BDE8F0410E48091D00F03BBA206868
:101040003544B5424560216805D2A06BBDE8F0414A
:10105000091D00F017BA606B091D00F013FAA06AB1
:10106000854200D2A562BDE8F08100003C0000206E
:10107000943D00202DE9F041054600F027FA2E4C62
:10108000A068401CA06020682C4F10B1606940B37C
:101090002DE02560A068012829D1002606EB8600F6
:1010A00007EB800000F0E0F9761C072EF6D323480A
:1010B0008C3000F0D9F92148A03000F0D5F91F4854
:1010C000B43000F0D1F91D48C83000F0CDF91B480C
:1010D000DC3000F0C9F919488C3060631430A0632B
:1010E00005E02068E96AC06A884200D82560606A25
:1010F000401C6062E96A0120226988401043206137
:1011000001EB810007EB8000291D00F0D3F900F00E
:10111000FDF9606900280CD02068E96AC06A88423D
:1011200007D207494FF080500860BFF34F8FBFF3DD
:101130006F8FBDE8F08100003C000020B83C00202B
:1011400004ED00E070B5114E114C17E000F08AFA82
:101150003068B8B100F0E0FB00F0B8F9F068C5689D
:10116000281D00F06FF9A068401EA0606068401E56
:10117000606000F0CBF9284600F00CF860680028A9
:10118000E4D170BD00F0C8FBF8E70000803D00200E
:101190003C00002010B50446006B00F0CBF920465F
:1011A000BDE8104000F0C6B910484FF47051420736
:1011B00006D0C01D0D4920F00700411AC1F570513D
:1011C0000B4A00230144C2E900030839103A21F018
:1011D000070111604B600B600B1AC0E900139360AC
:1011E0004FF000405360D06070470000B80000200E
:1011F00028000020074C4FF08056074DFFF7A2FF54
:1012000020680128FAD92E60BFF34F8FBFF36F8F8C
:10121000F4E70000B83C002004ED00E02DE9F047C1
:101220009A46DDE9098481466FF00303206B03EBE6
:1012300082021044089D20F00706700707D0502056
:1012400080F31188BFF34F8FBFF36F8FFEE7231832
:101250000A5C83F834200A5C12B1401C1028F6D3D3
:10126000002784F84370072D00D30625E562C4E902
:101270001157201D00F003F904F1180000F0FFF8E9
:101280002461C5F107006462A061E76484F85070CE
:1012900052464946304600F0BFF82060B8F1000FD2
:1012A00001D0C8F80040BDE8F087000030B5114912
:1012B00000E011460A688242FBD34B685C18844206
:1012C00003D1406818444860084643681C1894429B
:1012D00009D1084C103C2468A24209D052681A4433
:1012E00042600A6812680260814200D0086030BD26
:1012F0000460F9E7280000200648416B096829B11D
:10130000416BC968C9684968816270474FF0FF3115
:10131000FAE700003C00002008484068401C4FF0FD
:10132000500080F3118804D0BFF34F8FBFF36F8F4D
:10133000FEE7BFF34F8FBFF36F8FFEE73000002053
:101340002DE9F0410546002700F08CF9314E306858
:1013500008B9FFF729FFF06805424BD1C5B308353E
:1013600068070ED005F00700C0F1080005446807C3
:1013700007D0502080F31188BFF34F8FBFF36F8FDA
:10138000FEE72DB37068854234D8224810300146FC
:101390000C6801E020460C466168A94202D221682F
:1013A0000029F7D131688C4224D007682168016098
:1013B00060680837411B10290FD96019420708D00F
:1013C000502080F31188BFF34F8FBFF36F8FFEE77C
:1013D00010E041606560FFF769FF61687068401A5E
:1013E0007060B268904200D2B060F06801430020A3
:1013F000C4E9000100F090FA780707D0502080F38C
:101400001188BFF34F8FBFF36F8FFEE73846BDE8FB
:10141000F08100001800002010B5031F4FF0807409
:101420001C601B1F21F001011960191F044B0B6088
:1014300014390A60091F6FF0020244380A6010BDB7
:1014400019130008D0E9013201699A60D0E901233B
:101450005A604A68824201D182684A600022026171
:101460000868401E0860704700F108014FF0FF3225
:10147000C0E90112C16001610021016070470021D3
:101480000161704730B50B685A1C02D000F10802A8
:1014900002E0026904E02246546825689D42FAD9B8
:1014A00053684B6099608A60516008610168491C0B
:1014B000016030BD42684A6093688B6093685960F0
:1014C000916008610168491C01607047502080F3F9
:1014D0001188BFF34F8FBFF36F8F0A494868401CD4
:1014E000486001280CD10848006810F0FF0F07D0B1
:1014F000502080F31188BFF34F8FBFF36F8FFEE74B
:10150000704700003000002004ED00E00849486802
:1015100028B1401E486001D180F3118870475020E7
:1015200080F31188BFF34F8FBFF36F8FFEE700008A
:101530003000002070B5002827D0144DA0F1080419
:101540006168E868014207D1502080F31188BFF339
:101550004F8FBFF36F8FFEE722683AB1502080F3C0
:101560001188BFF34F8FBFF36F8FFEE78143616038
:1015700000F078F860686968084468602046FFF702
:1015800095FEBDE8704000F0C7B970BD180000209E
:1015900006484FF47A710068B0FBF1F14FF0E0209B
:1015A000491E4161072101617047000014000020BD
:1015B00010B5020014D00F48006B38B1502080F3F2
:1015C0001188BFF34F8FBFF36F8FFEE700F04AF82B
:1015D00000211046FFF716FD00F09EF9002807D104
:1015E00005494FF080500860BFF34F8FBFF36F8FF6
:1015F00010BD00003C00002004ED00E01CB51548C3
:101600000024CDE900402346802213A1144800F0B5
:10161000E5F8012809D0401C1AD1502080F3118828
:10162000BFF34F8FBFF36F8FFEE7502080F3118819
:10163000BFF34F8FBFF36F8F06484FF0FF312C3849
:10164000816201214161C460BDE81C4000F040B8E6
:101650001CBD00006800002049444C45000000000B
:10166000F51100080248016B491C01637047000036
:101670003C0000201448016B11B10121C161704789
:101680000021C1610169B1FA81F1C1F11F0101EBD2
:1016900081020E4951F822306BB101EB820101F158
:1016A00008034A6852684A609A4201D152684A6007
:1016B000D16801607047502080F31188BFF34F8FCD
:1016C000BFF36F8FFEE700003C000020B83C002015
:1016D0001CB532480168324A914207D1502080F34C
:1016E0001188BFF34F8FBFF36F8FFEE700682C495F
:1016F000491E884207D1502080F31188BFF34F8FD5
:10170000BFF36F8FFEE7274908780190FF2008702C
:1017100008788DF800009DF800009DF8002000F08A
:10172000F000904207D0502080F31188BFF34F8F14
:10173000BFF36F8FFEE79DF800001B4A00F05000DA
:1017400010700720906005E09DF800305B008DF878
:101750000030401E9DF800301B06F5D4000200F456
:10176000E0609060019808700C482030016841F4F6
:1017700070010160016841F070410160FFF708FFEE
:1017800000205060FEF72AFD0848016841F0404102
:101790000160FEF713FD00201CBD000000ED00E01D
:1017A00071C20F4100E400E03000002034EF00E09F
:1017B00010B5502080F31188BFF34F8FBFF36F8FA8
:1017C00000F046F818B104494FF08050086000203E
:1017D00080F3118810BD000004ED00E02DE9FF5FEB
:1017E0008346DDE90E87994616468A469000FFF744
:1017F000A7FD05001AD05420FFF7A2FD040012D067
:1018000025630021CDE90241CDE900874B463246F0
:1018100051465846FFF702FD2046FFF72BFC0120FA
:1018200004B0BDE8F09F2846FFF784FE4FF0FF307C
:10183000F6E700000548416919B1006B18B10020B6
:101840007047012070470220704700003C000020D4
:101850002DE9F0412E4C0027206B40B1A069401CBF
:10186000A061E06900B101273846BDE8F081E66873
:10187000761CE66013D1606B006838B1502080F3AD
:101880001188BFF34F8FBFF36F8FFEE7606BA16BC3
:101890006163A063206A401C2062FFF72DFDA06AEF
:1018A000DFF87080864209D3606B006880B1606B9E
:1018B000C068C568686886420DD2A0622068C06AA8
:1018C00000EB800158F821000128CAD90127C8E798
:1018D0004FF0FF30F1E7281DFFF7B4FDA86A18B1FB
:1018E00005F11800FFF7AEFDE86A01212269814089
:1018F0001143216100EB800108EB8100291DFFF7F6
:10190000D9FDE86A2168C96A8842CDD30127CBE7AF
:101910003C000020B83C00202DE9F0472C4D00246D
:101920002746286B38B1FFF7D1FD286B401E28638E
:10193000286B40B146E0502080F31188BFF34F8FF1
:10194000BFF36F8FFEE7A968224E0120D1B3A6F145
:10195000B40980463068E8B1F068C46804F1180042
:10196000FFF770FD201DFFF76DFDE06A2A6908FA98
:1019700000F11143296100EB800109EB8100211D79
:10198000FFF798FDE06A2968C96A8842E2D3C5F882
:101990001C80DFE70CB1FFF7AFFCAC6944B14646F1
:1019A000FFF756FF00B1EE61641EF9D10020A86177
:1019B000E86938B10849012738070860BFF34F8F3D
:1019C000BFF36F8FFFF7A2FD3846BDE8F087000038
:1019D0003C0000206C3D002004ED00E01C1A0008D3
:1019E000A50C0008020000000000000080000000BC
:1019F000241A0008CD0C0008FDFF000000000000C4
:101A0000800000000000000000000000010203044C
:101A10000607080900000000010203045461736B0B
:101A2000310000005461736B320000004C1A000852
:101A3000000000207C000000B80E0008C81A000852
:101A40007C0000202C410000C80E000800000000AF
:101A50000000000001000000100000000000000075
:101A60000024F4000000000000000000000000005E
:101A70000000000000000000000000000000000066
:101A8000AAAAAAAA000000000000000000000000AE
:101A90000000000000000000000000000000000046
:101AA0000000000000000000000000000000000036
:101AB0000000000000000000000000000000000026
:081AC00000000000000000001E
:040000050800018965
:00000001FF
