:020000040800F2
:1000000028210020AD010008B5010008B701000853
:10001000B9010008BB010008BD0100080000000094
:10002000000000000000000000000000BF01000808
:10003000C101000800000000C3010008AD2900084C
:10004000C7010008C7010008C7010008C701000870
:10005000C7010008C7010008C7010008C701000860
:10006000C7010008C7010008C7010008C701000850
:10007000C7010008C7010008C7010008C701000840
:10008000C7010008C7010008C70100080000000000
:10009000000000000000000000000000C701000890
:1000A000C7010008C7010008C7010008C701000810
:1000B000C7010008C7010008C7010008C701000800
:1000C000C7010008C7010008C7010008C7010008F0
:1000D000C7010008C7010008C701000800000000B0
:1000E000C7010008C7010008C701000800000000A0
:1000F000000000000000000000000000C701000830
:1001000000000000C7010008C7010008C70100087F
:1001100000000000000000000000000000000000DF
:10012000C7010008C7010008C7010008C70100088F
:10013000C7010008000000000000000000000000EF
:100140000000000000000000000000001D27000863
:10015000C7010008C7010008C7010008C70100085F
:10016000C7010008C70100080000000000000000EF
:10017000000000000000000000000000000000007F
:1001800000000000C701000800000000000000009F
:10019000C7010008C7010008DFF80CD000F050FAD2
:1001A00000480047114900082821002006488047E0
:1001B00006480047FEE7FEE7FEE7FEE7FEE7FEE74C
:1001C000FEE7FEE7FEE7FEE7712A00089901000856
:1001D0002DE9F05F0546002092469B46884606467C
:1001E000814640241BE0284641464746224600F00F
:1001F0005EF853465A46C01A914110D3114618462C
:10020000224600F045F82D1A67EB01084F462246BA
:100210000120002100F03CF817EB00094E41201EA0
:10022000A4F10104DFDC484631462A464346BDE8D6
:10023000F09F40EA01039B0703D009E008C9121FA1
:1002400008C0042AFAD203E011F8013B00F8013B90
:10025000521EF9D27047421C10F8011B0029FBD135
:10026000801A704730B50B46014600202022012439
:1002700009E021FA02F59D4205D303FA02F5491B74
:1002800004FA02F52844151EA2F10102F1DC30BD8A
:10029000202A04DB203A00FA02F100207047914046
:1002A000C2F1200320FA03F3194390407047202A3B
:1002B00004DB203A21FA02F00021704721FA02F310
:1002C000D040C2F1200291400843194670472DE901
:1002D000FE4F804681EA0300C00F0C46009021F0DB
:1002E000004123F00045B8EB0200A94105D2404689
:1002F000214690461C460B46024623F00040104320
:1003000047D0270DC7F30A00C3F30A510290401AE1
:10031000019040286BDAC3F3130040F4801B00986F
:10032000924620B10023D2EB030A63EB0B0B01983A
:100330005946C0F140025046FFF7AAFF06460D4657
:1003400050465946019A00F08DF910EB08006141C2
:10035000002487EA115284EAE7731A4340D0009AD6
:1003600062B3019A012A4FEA075215DC001B61EBC8
:1003700002014FF0004202EA0752CDE90042001CA0
:1003800041F5801132462B4600F08DF903B0BDE8EF
:10039000F08F40462146F9E7001B61EB0201001C8B
:1003A00041F5801300185B412018A2F5001747EBB8
:1003B000030140EAD570B6196D4111E06D084FEAAE
:1003C000360645EAC0754FEA0752001B61EB020191
:1003D000001C41F5801149084FEA300000195141D5
:1003E00032462B4603B0BDE8F04F00F04DB90098FF
:1003F000012240000023D0EB020263EBE07300987F
:1004000021464FEAE074B8EB000061EB0401E9E734
:1004100083F000435BE781F0004158E72DE9FE4F90
:1004200081EA030404F0004421F0004100944FF0FD
:10043000000B23F0004350EA01045ED052EA0304AB
:100440005BD0C3F30A54C1F30A552C44A4F2F3342D
:100450000194A0FB0254C1F3130141F48011C3F3D2
:10046000130343F4801301FB024400FB034E840A90
:10047000970A44EA815447EA8357A4FB0768029528
:100480008D0A05FB07854FEA932C04FB0C542705C6
:10049000029D4FEA065847EA1637B5EB08056EEBA2
:1004A000070C870E920E47EA811742EA8312A7FBD8
:1004B0000201B6EB0B0164EB00042B0D43EA0C3395
:1004C0005E1844EB1C50DA465146E7FB0201C5F3C7
:1004D00013044FEA0B3343EA14534FEA0432019CEE
:1004E00043EA0603A4F10C040294009CCDE900B495
:1004F00000F0D9F803B0BDE8F08F00200146F9E71D
:100500002DE9F04D81EA030404F0004B21F0004591
:1005100014464FF0000A23F0004150EA050220D0B3
:1005200054EA01021DD0C5F30A570246C5F313036E
:10053000C1F31300C1F30A5640F4801543F480134D
:10054000A7EB0608101BD64608F2FD3873EB050032
:1005500002D308F1010801E092185B41B8F1000FE5
:1005600003DA00200146BDE8F08D00204FF4801131
:10057000064684460EE0171B73EB050705D3121BD6
:1005800063EB050306434CEA010C49084FEA3000CF
:1005900092185B4150EA0107EDD152EA030012D0F4
:1005A00082EA040083EA0501084305D0101BAB4131
:1005B00006D20122002306E000224FF0004302E0B1
:1005C0006FF0010253101AEB06004CEB085110EBD0
:1005D0000A0041EB0B01BDE8F04D00F055B8C1F346
:1005E0000A52C1F3130140F2FF3341F480119A42E1
:1005F00002DA00200146704740F233439A42A2F2E9
:10060000334202DC5242FFF752BEFFF741BE000008
:1006100030B5041E71F1000404DB4FF00044404289
:1006200064EB0101141E73F1000405DB1C464FF05E
:100630000043524263EB0403994208BF904230BD2D
:10064000064C074D06E0E06840F0010394E807001F
:1006500098471034AC42F6D3FFF7A2FD4C4A00088D
:100660006C4A0008202A06DBCB17203A41FA02F038
:1006700043EAE07306E041FA02F3D040C2F12002FF
:10068000914008431946704710B5141E73F10004D9
:1006900008DA401C41F1000192185B411A4301D174
:1006A00020F0010010BD2DE9F04D92469B4611B19E
:1006B000B1FA81F202E0B0FA80F220329046FFF700
:1006C000E7FD04460F4640EA0A0041EA0B015346A3
:1006D0005A46084313D0114653EA010019D0C8F115
:1006E00040025046FFF7E3FD05460E465046594688
:1006F0004246FFF7CDFD084305D0012004E0204627
:100700003946BDE8F08D0020054346EAE0762C43EB
:1007100037430A986305E40AA0EB08000022FD0AAB
:1007200044EA47540A3002D500200146E9E70105B2
:1007300010196941DDE9084500196941BDE8F04D2E
:10074000A2E770B58C1810F8015B15F0070301D112
:1007500010F8013B2A1106D110F8012B03E010F824
:10076000016B01F8016B5B1EF9D12B0705D4002347
:10077000521E0DD401F8013BFAE710F8013BCB1AE9
:10078000921C03E013F8015B01F8015B521EF9D5DE
:10079000A142D8D3002070BD0F4800B5026887B0D1
:1007A000002142F01002026000680C4A00F01000C4
:1007B00005900220CDE90210CDE900026946084803
:1007C00000F0B4F900220F21072000F00FFB0720F2
:1007D00000F000FB07B000BD3038024000001110EF
:1007E000001002400F4810B5026886B0002142F0A8
:1007F0001002026000680C4C00F010000590082008
:1008000000900120CDE9010103906946204600F0E7
:100810008DF901220821204600F04CFA02F024F85C
:1008200006B010BD30380240001002402DE9F04102
:1008300014460546012A02D941F0C00601E041F004
:1008400080060D4F00220821384600F033FA30466A
:1008500002F056F806E0002002F052F8641E05F897
:10086000010BA4B2002CF6D13846BDE8F0410122BC
:10087000082100F01FBA0000001002402DE9F041ED
:10088000144605460E46012A01D941F040060C4F98
:1008900000220821384600F00DFA304602F030F808
:1008A00005E0287802F02CF8641EA4B26D1C002C20
:1008B000F7D13846BDE8F0410122082100F0FAB92D
:1008C0000010024070B50E4D04462868016B0029E7
:1008D00014D0204688470B49286888420ED1B4F9C5
:1008E000000000EE100A60882080B8EEC00AB1EE69
:1008F000400ABDEEC00A10EE100A608070BD000014
:1009000098010020D001002070B50E4D0124A86888
:1009100080470D4E3B2805D00C4DA86880473F28E6
:1009200008D00CE0356029684720884731682D20C1
:10093000896A02E0356029686720884700242046DC
:1009400070BD0000D0010020980100209C01002013
:100950000449054A31F8101052F82000002200F036
:10096000A9B90000444A0008880100200449054A4A
:1009700031F8101052F82000012200F09BB900005D
:10098000444A00088801002000207047002070477A
:1009900010B500220449054802F064F904490348EF
:1009A00002F05AF9002010BD7812002064020020E5
:1009B000780A002010B50146034802F04DF90248BC
:1009C00002F02EF9002010BD64020020094A10B583
:1009D000D2F81822D2F814220AB1012010BD0A461A
:1009E0000146044802F03EF9BDE81040014802F01B
:1009F00079B900006402002070B5044600F060F987
:100A00000546601C02D004480078044400F058F900
:100A1000401BA042FAD370BD540000202DE9F04FD6
:100A2000DFF8ECB000224FF001094FF00F0A00BFD1
:100A300009FA02F401EA0403A34264D106685700EC
:100A40000325BD40AE430660D60800EB8607D7F805
:100A500020C056074FEAD6680AFA08F62CEA060CB8
:100A6000C7F820C08668AE4386604668A6434660E5
:100A7000C468AC43C46022F003055D44D5F808683F
:100A80009407270F0AFA07F4DFF888C0264060456C
:100A900002D14FF0000C1DE0DFF87CC0604502D1B0
:100AA0004FF0010C16E0DFF874C0604502D14FF042
:100AB000020C0FE0DFF868C0604502D14FF0030C74
:100AC00008E0DFF860C0604502D14FF0040C01E09F
:100AD0004FF0070C0CFA07FCB44514D1D5F80868A0
:100AE000A643C5F80868104C25689D432560241D61
:100AF00025689D432560241D25689D432560241D90
:100B000025689D432560521C102A91D3BDE8F08FC3
:100B10000030014000000240000402400008024092
:100B2000000C024000100240003C01402DE9F84F4B
:100B3000DFF860B100224FF001084FF0030A4FF0D8
:100B40000F090BF1040E00BF0B6808FA02F42340F2
:100B5000A3426ED14D68022D01D0122D0ED1D508C1
:100B600000EB850CDCF820505607F70E09FA07F663
:100B7000B5430E69BE402E43CCF820600668550090
:100B80000F790AFA05FC07F0030726EA0C06AF40C6
:100B9000374307604E68012E05D0022E03D0112E78
:100BA00001D0122E0ED18668CF6826EA0C06AF401F
:100BB000374387604668A6430C79C4F30014944019
:100BC00034434460C6688C6826EA0C06AC40344363
:100BD000C4604C68E40056D52F4C256845F4804528
:100BE0002560246822F0030504F4804400942B4C13
:100BF0002E19D6F8084895072F0F09FA07F5AC43C8
:100C0000274DA84201D1002515E0264DA84201D16B
:100C1000012510E0244DA84201D102250BE0234D0F
:100C2000A84201D1032506E0214DA84202D10425A6
:100C300001E028E00725BD402543C6F80858DBF849
:100C400000405D464E689C43F60300D51C432C6073
:100C5000DEF8004075464E689C43B60300D51C4341
:100C60002C600C4D08352C684E689C43F60200D56C
:100C70001C432C60074D0C352C684E689C43B60213
:100C800000D51C432C60521C102AFFF45DAFBDE858
:100C9000F88F0000003C0140443802400030014021
:100CA000000002400004024000080240000C024024
:100CB000001002400AB1816170470904FBE700009F
:100CC0000148806870470000540000200248816895
:100CD0000278114481607047540000200B4810B521
:100CE000016841F400710160016841F480610160B4
:100CF000016841F480710160032000F097F8002042
:100D000000F006F800F024F8002010BD003C02407E
:100D100070B50D4D04464FF47A712878B1FBF0F0B0
:100D20000A490968B1FBF0F001F0D5F948B9102C77
:100D300007D200222146501E00F058F800206C60B7
:100D400070BD012070BD0000540000206000002034
:100D50001F4808B5016841F480410160006800F453
:100D6000804000901A48001F016841F080510160E6
:100D7000006800F080500090072000F057F8002233
:100D800011466FF00B0000F031F8002211466FF0B1
:100D90000A0000F02BF8002211466FF0090000F065
:100DA00025F800221146501F00F020F800221146BD
:100DB000101F00F01BF800221146901E00F016F8DC
:100DC0000022BDE808401146501E00F00FB8000098
:100DD0004438024000F01F02012191404009800088
:100DE00000F1E020C0F8001170470000F0B40E4B95
:100DF0001B680C46C3F30223C3F10705042D00D979
:100E00000425191D072901D2002300E0DB1E01265D
:100E100006FA05F1491E214099409E40761E164073
:100E20003143F0BC01F06ABC0CED00E0064900F073
:100E3000070208684FF6FF03184040EA0220034A01
:100E400010430860704700000CED00E00000FA0558
:100E50000068416200207047F0B500680023446AD2
:100E600031B1856A4FF4827604EB15444D1E0AE0D9
:100E700044EA024181620FE006EB8307C7595B1C1D
:100E800004EB1744DBB2AB42F6DB4FF4807303EBA9
:100E9000810144EA024242500020F0BDD0F8EC0348
:100EA00002F048B9C1EBC10200EB8202D0F8EC03BA
:100EB000526C02F0B5B8C1EBC10200EB8202D0F86F
:100EC000EC03D2F8042202F000B9D0F8EC0302F0EF
:100ED00033B910B504460A460B0601F07F00C0EB9B
:100EE000C00104EB810101D5383101E001F5FC714D
:100EF0000870D009487094F8B803012809D001207F
:100F000084F8B803206802F059FC002084F8B80384
:100F100010BD022010BD70B50A460446090602F055
:100F20007F0005D5C0EBC00104EB8101383105E03D
:100F3000C2EBC20104EB810101F5FC7100258D704B
:100F40000870D009487094F8B803012809D001202E
:100F500084F8B803206802F012FE84F8B853002029
:100F600070BD022070BD01F00F01C1EBC10100EBAB
:100F70008100B0F8100280B2704770B504460D468B
:100F80000E0601F07F00C0EBC00104EB810101D52A
:100F9000383101E001F5FC71ED0908704D708A608F
:100FA000CB7000D0C8800025022B00D10D7194F8C1
:100FB000B803012809D0012084F8B803206802F0A2
:100FC00051FB284684F8B85370BD022070BD70B53F
:100FD0000C4601F07F05C5EBC50100EB8101C1F8AE
:100FE0000C32C1F804220023C1F8103281F8F93123
:100FF00081F8F851036901F5FC71012B00D10A61F8
:101000006206027C006803D002F01AFE002070BD68
:1010100002F0F6FCFAE770B50D460446090605F045
:101020007F0005D5C0EBC00104EB8101383105E03C
:10103000C5EBC50104EB810101F5FC7101228A7049
:101040000870E809487094F8B803012807D084F8BC
:10105000B823206802F0C5FD680602D007E0022030
:1010600070BD217C04F56F72206802F069FD0020DC
:1010700084F8B80370BD70B50C4601F07F05C5EB70
:10108000C50100EB8101CB644A6400230B65012399
:1010900081F8393001F8385F0369012B00D10A610A
:1010A0006206027C006803D002F0CAFD002070BD19
:1010B00002F0A6FCFAE700002DE9F84F04460068AC
:1010C0000026054602F010FF002875D1206802F0C6
:1010D00034FF002870D0206802F02FFF800704D56D
:1010E0002068416901F002014161206802F025FF9A
:1010F000010304F56F704FF0010B4FF0000A0090F0
:101100004DD5206802F0FBFE074646E0F80742D0C6
:10111000F1B2206802F009FF8046C00728D005EB35
:101120004612C2F808BB2069012811D1C6EBC600DF
:1011300004EB8001D2F8102BD1F80002C2F31202A6
:10114000821AC1F81022D1F804221044C1F8040216
:10115000F1B22046FFF7AFFE2069012808D13EB961
:10116000D4F80C0220B920680121009A02F0E8FCB2
:101170005FEA087007D5204600F0E6FA05EB461155
:101180000820C1F8080B5FEAC86004D505EB4611DA
:101190001020C1F8080B7F08761C002FB6D12068FC
:1011A00002F0CBFE40034FF040095ED5206802F00C
:1011B0009FFE0746002656E0D2E1F80751D0F1B273
:1011C000206802F0A3FE8046C00724D0D5F834285A
:1011D0000BFA06F08243C5F8342805EB4610C0F838
:1011E00008B92069012807D1C6EBC60004EB8000CE
:1011F000D0E9101211444164F1B22046FFF752FECB
:101200002069012807D136B9E06C20B92068012196
:10121000009A02F095FC5FEA087004D505EB4611D0
:101220000820C1F808095FEAC86004D505EB46113B
:101230001020C1F808095FEA486003D505EB4611A4
:10124000C1F808995FEA887004D505EB46110220C1
:10125000C1F808095FEA086003D53146204601F06D
:1012600063FA7F08761C002FA7D1206802F065FE84
:1012700000280DDAD5F8040820F00100C5F80408AC
:10128000204600F047FA2168486900F000404861B4
:10129000206802F052FE00050BD5D5F80808C007FB
:1012A00002D0204600F06CFA2068416901F4006128
:1012B0004161206802F041FEC0044CD5D5F8040815
:1012C00020F00100C5F804081021206802F0DCFDC0
:1012D0000020FF2107E000BF05EB4012C2F808190B
:1012E000C2F8081B401C62688242F5D84FF0FF30FC
:1012F000C5F81808D5F81C0840F00110C5F81C08FE
:10130000206B60B1D5F8840840F00B00C5F8840864
:10131000D5F8440840F00B00C5F844080BE0D5F8B8
:10132000140840F00B00C5F81408D5F8100840F078
:101330000B00C5F81008D5F8000820F4FE60C5F8C9
:101340000008217C2068009A02F0FAFB21684869B5
:1013500000F480504861206802F0EFFD80047DD5E4
:10136000206802F0BFF92068C16821F47051C160A3
:10137000206802F09BFD78B10320C4F81490E0606F
:1013800000F058FB7749784A014491420AD220681C
:10139000C16841F4705158E04FF40070C4F80CA0DB
:1013A000606136E07149724A0144914204D220687A
:1013B000C16841F4605148E06E496F4A014491426E
:1013C00004D22068C16841F450513EE06B496C4A38
:1013D0000144914204D22068C16841F4405134E094
:1013E0006849694A0144914204D22068C16841F4C5
:1013F00030512AE06549664A0144914204D220688E
:10140000C16841F4205120E06249421862498A4291
:1014100004D22068C16841F4105116E05F49604A67
:101420000144914204D22068C16841F400510CE0AB
:101430005C4908445C4988422068C16803D241F491
:10144000E05102E00AE041F4C051C160204600F0E2
:1014500051F92068416901F400514161206802F0AE
:101460006CFDC00636D52168886920F010008861BF
:10147000D5F8208008F00F00C0EBC00004EB800717
:10148000C8F3434007F5FC77022802D0062812D0A3
:101490001BE047F6F07018EA000F16D0C8F30A12E6
:1014A00090462846F96802F04CFDF8684044F86020
:1014B000B869404408E008222846009902F041FD3E
:1014C000B969C8F30A100844B8612068816941F01D
:1014D00010018161206802F030FD000707D5204629
:1014E00000F01CF92068416901F0080141612068A1
:1014F00002F023FDC00208D5F1B2204600F056F8F4
:101500002068416901F480114161206802F015FDF5
:10151000800208D5F1B2204600F04CF820684169FD
:1015200001F400114161206802F007FD400007D579
:101530002046FFF7B3FC2068416901F0804141611A
:10154000206802F0FAFC40070AD520684568680761
:1015500002D52046FFF7B9FC206841682943416065
:10156000BDE8F88F405327FF00350C00401E1BFFDD
:1015700040420F0000DC0BFF804F1200808CF9FE10
:1015800020D6130060B6E5FE60E3160000D3CEFE61
:1015900040771B00C05BB3FEC091210000CA91FEE2
:1015A00020753800E05459FEE09C4100D0F8EC036F
:1015B00001F020BED0F8EC0301F01EBEF0B58BB0F8
:1015C00004004FF0000556D0032084F8B9032046EC
:1015D00000F054F8206802F00DFA04F110012822FE
:1015E0000F466846FEF725FE94E80F0002F094F8D7
:1015F0000021206802F0B5FC01260020C5EBC501E2
:1016000004EB810181F8396001F8385FCD80C87042
:101610008860C8606D1C48610F2DEFD300214FF426
:10162000827300BFC1EBC10204EB820203EB8105B0
:1016300082F8F90182F8F811D18782F8FB01C2F82B
:101640000002C2F80402C2F80C0222685051491C80
:101650000F29E7D3282239466846FEF7EAFD94E8C9
:101660000F0002F027F984F8B963206802F016F938
:1016700000200BB0F0BD0120FBE7000030B5006892
:1016800087B0B0F1A04F2FD100244FF40070CDE906
:101690000004164D694628460294FFF747FA4FF4B6
:1016A000E05000900220CDE90104032003900A20BD
:1016B000049069462846FFF739FA0D48016841F061
:1016C000800101600A481030016841F480410160E6
:1016D0000068002200F48040059011464320FFF787
:1016E00085FB4320FFF776FB07B030BD00000240CA
:1016F0003438024010B50446C068012100B9002109
:10170000D4F8EC0301F0CEFDD4F8EC03BDE81040B2
:1017100001F097BDD0F8EC0301F0B2BDD0F8EC03B6
:1017200001F0B4BD10B5044690F8B803012809D003
:10173000012084F8B803206802F029FC002084F816
:10174000B80310BD022010BDD0F8EC2300F56F7176
:10175000104601F0BABD10B5044690F8B803012850
:101760000CD0012084F8B803206802F08BF82068C0
:1017700002F074FB002084F8B80310BD022010BDF5
:1017800010B50446D0F8EC0301F0ECFD2068D0F869
:10179000001E41F00101C0F8001E206A002804D09C
:1017A0000248016841F00601016010BD10ED00E043
:1017B0002DE9F843044600684FF00109C1074FF0D6
:1017C000000601D1400729D5DFF82081C8F86860FC
:1017D000FFF776FA0746464D05E000BFFFF770FABF
:1017E000C01B022859D828680001F7D4A068217BC3
:1017F000800140EA0170616808433D498431086016
:10180000C8F86890FFF75CFA074604E0FFF758FA5B
:10181000C01B022841D828680001F7D5207880072E
:1018200052D533484030016841F080510160006872
:10183000304D00F080500090286840F4807028609F
:10184000FFF73EFA074604E0FFF73AFAC01B02280A
:1018500023D82868C005F7D5254D7035286810F4C1
:10186000407020D0218A01F4407181421BD0286849
:10187000214920F44070C1F800900E60286028686B
:10188000C00710D0FFF71CFA064641F2883707E080
:10189000FFF716FA801BB84202D90320BDE8F8838F
:1018A00028688007F4D521691148C1F30122083066
:1018B000032A12D0016821F4F81101602868218AF6
:1018C000C1F30B01084328602078000703D50B49BA
:1018D000207DC1F8E0010020E0E70268084B22F417
:1018E000F81219400A430260E8E70000000047428E
:1018F0000038024000700040400E4742001047424E
:10190000FFFCFF0F2DE9F0470E46050065D0DFF81C
:101910001481D8F80000F7B200F00F00B04207D2EF
:1019200088F80070D8F8000000F00F00B04254D1E1
:1019300028683D4C810712D5400703D5206840F444
:10194000E05020602878000703D5206840F460400C
:1019500020602068A96820F0F00008432060287803
:10196000C0072DD0304968680839012812D00228F4
:1019700013D0032811D00968890700292DDA2168BE
:1019800021F0030101432160FFF79AF9814641F2FA
:10199000883A0EE009688903EFE709688901ECE7F6
:1019A000FFF78EF9A0EB0901514502D90320BDE8EC
:1019B000F0872068696800F00C00B0EB810FEFD170
:1019C000D8F80010404601F00F01B14207D9077066
:1019D000006800F00F00B04201D00120E7E728784E
:1019E000400705D52068E96820F4E05008432060EE
:1019F0002878000706D52068296920F4604040EA6D
:101A0000C100206000F01CF82168084AC1F30311EE
:101A1000515CC840064908600020FFF779F90020B2
:101A2000C5E70000003C024008380240304A000888
:101A3000600000200148006870470000600000203E
:101A4000154810B5006810F00C02144813D041106E
:101A5000042A0FD0082A0ED10F4C241F22682368B5
:101A600002F03F025B0207D52068C0F38810A0FB9C
:101A7000010106E0084610BD2168C1F38811A1FBF1
:101A800000010023FEF7A4FB2168C1F30141491CBA
:101A90004900B0FBF1F010BD083802400024F4000A
:101AA0002DE9F84F050076D02878DFF8F8B2BE4C63
:101AB000C00749D0DBF800105846C1F38101012965
:101AC00008D00068C0F3810002280AD1201D0068F8
:101AD000400206D52068800336D568680028E2D029
:101AE00032E06868B0F5803F10D0B0F5A02F2068D4
:101AF00010D020F480302060206820F48020206006
:101B00006868A0B1FFF7DCF806460CE0206840F4F6
:101B10008030F4E740F480202060F7E7FFF7D0F84A
:101B2000801B642873D820688003F7D50CE0FFF78A
:101B3000C7F8064605E000BFFFF7C2F8801B64281F
:101B4000F0D820688003F7D42878DFF86082800717
:101B50004FF000093ED5DBF80010584611F00C0F8D
:101B600009D00068C0F3810002280BD18D48001F06
:101B70000068400206D42068800715D5E86801286F
:101B800009D111E0E868B8B10120C8F80000FFF7FA
:101B900097F8064605E002E1FFF792F8801B02285D
:101BA000C0D820688007F7D52068296920F0F800A0
:101BB00040EAC10020600DE0C8F80090FFF780F80F
:101BC000064604E0FFF77CF8801B02281FD8206837
:101BD0008007F7D42878000722D5724E74486969C7
:101BE0006C3671B101210160FFF76AF8074604E025
:101BF000FFF766F8C01B022809D830688007F7D5C0
:101C00000EE0C0F80090FFF75BF8074605E083E0C0
:101C1000FFF756F8C01B02287ED830688007F7D43B
:101C20002878400768D5DFF87CA100270AF1380A38
:101C3000DAF80000C0000BD4DAF8001041F080514F
:101C4000CAF80010DAF80000012700F08050009078
:101C5000584E3068C00510D4306840F48070306051
:101C6000FFF72EF8009005E0FFF72AF80099401AD8
:101C7000022851D83068C005F6D54A4EA8686836A3
:101C800001280FD00528306810D020F00100306006
:101C9000306820F004003060A868B8B1FFF710F891
:101CA00000900FE0306840F00100F4E740F00400DD
:101CB0003060F7E7FFF704F80099411A41F28830E5
:101CC000814264D830688007F4D50EE0FEF7F8FF53
:101CD000009007E0FEF7F4FF0099411A41F28830C6
:101CE000814254D830688007F4D42FB1DAF800105C
:101CF00021F08051CAF80010A869C0B3DBF80010C9
:101D0000C1F3810102294AD00228484607D0C8F809
:101D10006000FEF7D5FF00E039E005463AE04746AF
:101D2000C8F86000FEF7CCFF064604E0FEF7C8FFE7
:101D3000801B02282BD820688001F7D4D5E9070141
:101D40000843A96A1C4A490802EB01416A6A41EA50
:101D50008211084395F82C1040EA01611148001FD8
:101D6000016001203866FEF7ABFF054605E014E090
:101D7000FEF7A6FF401B022809D820688001F7D58E
:101D80000BE000BFFEF79CFF401B022802D9032096
:101D9000BDE8F88F20688001F4D40020F8E7012026
:101DA000F6E70000083802400038024000004742D1
:101DB000800E4742007000400000FFFF10B5040095
:101DC00011D0022084F851002068016821F0400100
:101DD0000160204600F04CF80020606584F8510056
:101DE00084F8500010BD012010BD90F851007047DC
:101DF00070B5040005D00025A56294F8510010B11B
:101E000006E0012070BD84F85050204600F044F8F0
:101E1000022084F851002068016821F0400101602F
:101E2000D4E901010843D4E903121143084361696D
:101E30000843218B01F400710843E1690843216ADA
:101E40000843A16A084321680860A069042101EAE7
:101E50001040616A0843216848602068C16921F424
:101E60000061C1616565012084F85100002070BDEA
:101E700000680649884208D10548016821F480516C
:101E80000160E0210348FEF7C9BD70470030014002
:101E9000443802400000024000B500680E4987B097
:101EA000884216D10D480021026842F48052026037
:101EB000006800F480500590E02000900220CDE9F9
:101EC0000101032003900520049069460448FEF7B1
:101ED0002DFE07B000BD0000003001404438024034
:101EE000000002402DE9F84F044690F8500000260B
:101EF0000A9F9A4693460D464FF0010801280ED0DE
:101F0000012084F85000FEF7DBFE814694F8510072
:101F1000616801280CD0B1F5827F07D102E0022070
:101F2000BDE8F88FA16809B9042801D00226BDE0F8
:101F300055B1BBF1000F07D0BAF1000F04D094F8EF
:101F40005100012802D004E00126AFE0052084F80A
:101F5000510000206065C4F838B0A4F83EA0A4F891
:101F60003CA02563A4F836A0A4F834A020646064E3
:101F700020680168490603D4016841F0400101600E
:101F8000E068B0F5006F606804D0E8B3E08E012827
:101F90003BD06AE010B1E08E01282ED1216835F8DF
:101FA000020BC860E08E401EE08626E0B8F1000F0C
:101FB0000DD0E08E58B120688168890707D535F8C3
:101FC000021BC160E08E401EE0864FF00008E08FEB
:101FD00058B120688168C90707D0C0682BF8020B88
:101FE000E08F401EE0874FF00108781C05D0FEF717
:101FF00067FEA0EB0900B84246D2E08E0028D5D19A
:10200000E08F0028D2D136E0FFE7216815F8010BF8
:102010000873E08E401EE08627E000BFB8F1000F95
:102020000DD0E08E58B120688168890707D515F872
:10203000011B0173E08E401EE0864FF00008E08F28
:1020400058B120688168C90707D0C0680BF8010B38
:10205000E08F401EE0874FF00108781C05D0FEF7A6
:102060002FFEA0EB0900B8420ED2E08E0028D5D199
:10207000E08F0028D2D13B46012202212046CDF834
:10208000009000F0A5FB08B103260FE04A46394650
:10209000204600F08DFB18B101262020606505E088
:1020A000A06818B92068C16880680090012084F891
:1020B0005100002084F85000304631E74FF0E02115
:1020C0000428086903D020F004000861704740F03C
:1020D0000400FAE7704710B5401EB0F1807F01D3CD
:1020E000012010BD4FF0E02460610F21601700F067
:1020F00005FB0020A06107202061002010BD10B565
:10210000FFF7E8FF10BD0EB500208DF8000001229A
:1021100039216846FEF78AFB0622272101A8FEF72F
:1021200085FB0EBD1CB500208DF80000FEF734FBCA
:1021300040208DF8040010208DF8050020208DF837
:10214000060001A800F067F83F208DF8000001228A
:1021500022216846FEF792FB50208DF800000122F4
:1021600038216846FEF78AFBAA208DF8000001227C
:102170003B216846FEF782FB0A208DF80000012211
:102180003C216846FEF77AFB4C208DF800000122C6
:1021900030216846FEF772FB03208DF80000012213
:1021A0003D216846FEF76AFB7F248DF8004001223E
:1021B0003E216846FEF762FB8DF8004001223F2178
:1021C0006846FEF75BFB1CBD704738B5044600202F
:1021D0008DF80000012221216846FEF727FB9DF8BB
:1021E0000000012200F0D00020438DF800002121E2
:1021F0006846FEF743FB38BD38B5044600208DF82D
:102200000000FEF7EFFA8DF8004001222021684619
:10221000FEF734FB38BD38B5044600208DF80000C9
:10222000012238216846FEF701FB207861780122FF
:102230000843A17808438DF8000038216846FEF76E
:102240001DFB38BD70B588B006461225002401225A
:10225000202106A8FEF7EAFA0622292103A8FEF7A4
:10226000E5FA03A90DF1040001EB440292F9002004
:1022700020F81420641CE4B2032CF5D39DF8181048
:1022800011F0200102D0202903D101E0122500E045
:102290004825002130F8112012FB05F226F8112004
:1022A000491CC9B20329F5D308B070BD08B5002098
:1022B0008DF80000FEF796FA01220F216846FEF71E
:1022C000B5FA9DF8000008BD08B501222121684635
:1022D000FEF7ACFA9DF80000012240F040008DF8B6
:1022E000000021216846FEF7C9FA08BD3EB500246A
:1022F0008DF80040FEF750FA8DF805408DF8044047
:1023000040208DF8060001258DF809508DF8074012
:102310008DF80A4001A800F06AF803208DF800004B
:10232000012252216846FEF7A9FAC8208DF8000064
:10233000012254216846FEF7A1FA45208DF80000DD
:10234000012256216846FEF799FAFC208DF800001C
:1023500001225A216846FEF791FAA1208DF800006B
:1023600001225B216846FEF789FA8DF800500122B0
:102370005C216846FEF782FA01227B216846FEF75F
:102380007DFA012260216846FEF778FA06208DF872
:102390000000012261216846FEF770FA28208DF8BE
:1023A0000000012262216846FEF768FA11208DF8CC
:1023B0000000012263216846FEF760FA3EBD7047C7
:1023C00038B5044600208DF80000FEF70BFA8DF8B2
:1023D0000040012220216846FEF750FA200A8DF8BD
:1023E0000000012224216846FEF748FA38BD38B5BE
:1023F000044600208DF8000060782178012208430F
:10240000A17808438DF8000023216846FEF736FACC
:10241000E0782179012208438DF8000021216846E7
:10242000FEF72CFA6079A179012208438DF80000AB
:1024300022216846FEF722FA38BD000070B5064634
:102440002DED028B84B000259FED2E8A01222421E0
:1024500002A8FEF7EBF9012228216846FEF7E6F90B
:102460006C4601222921601CFEF7E0F901222A2195
:10247000A01CFEF7DBF901222B21E01CFEF7D6F9A8
:1024800001222C21201DFEF7D1F901222D21601DF2
:10249000FEF7CCF99DF8080000F0380010280CD0A9
:1024A00003DC90B1082810D104E0182808D02028B7
:1024B0000BD108E09FED148A07E09FED148A04E039
:1024C0009FED138A01E09FED138A04EB450090F91C
:1024D000001090F9010001EB002000EE100AB8EEA8
:1024E000C00A20EE080ABDEEC00A10EE100A26F857
:1024F00015006D1CEDB2032DE7D304B0BDEC028BCB
:1025000070BD00008FC2753D8FC2F53DEC51383E65
:102510008FC2753E48E13A3F08B500208DF80000B3
:10252000FEF760F901220F216846FEF77FF99DF85A
:10253000000008BD08B5012225216846FEF776F99E
:102540009DF80000012240F080008DF80000252158
:102550006846FEF793F908BD2DE9F047434886B079
:102560000024016841F010010160016801F01001D0
:102570000591016841F004010160016801F0040166
:102580000591016841F080010160016801F080015E
:102590000591016841F001010160016801F001014C
:1025A0000591016841F002010160016801F002013A
:1025B0000591016841F0080101600068DFF8B08012
:1025C00000F008000590002208214046FEF772FB4B
:1025D000DFF8A090012211464846FEF76BFBDFF8BA
:1025E00098A04FF21007002239465046FEF762FBD2
:1025F0000420CDE90004694640460294FEF796FAAD
:10260000082000900125CDE9015469464046039415
:10261000FEF78CFA194E3220CDE900066946029485
:102620004046FEF783FA0095CDE9015469464846D5
:102630000394FEF77BFA0095CDE9016469461048E2
:10264000FEF774FA0097CDE90154694650460394A9
:10265000FEF76CFA2020CDE900046946504602944A
:10266000FEF764FA06B0BDE8F0870000303802409B
:102670000010024000080240000C0240000012104E
:10268000000002400E4810B50C4901604FF4827101
:10269000416000218160C1604FF400720161C0E9B6
:1026A0000512C1610162416281620A21C162FFF7C4
:1026B0009FFB002800D0FEE710BD00000030014065
:1026C0000C02002010B500220849094800F073FCF4
:1026D0000849074800F073FE0749054800F0B4FABE
:1026E000BDE81040024800F0B7BE00001000002016
:1026F0006402002044010020440000200907090E64
:10270000002806DA00F00F0000F1E02080F8141D28
:10271000704700F1E02080F8001470470148FEF790
:10272000CBBC0000880400202DE9F84F0F46C1EB18
:10273000C70100EB810582460668D5E91301441AFA
:10274000286C3835A04200D20446E01C4FEA9008BD
:1027500006EB471916E0441AA868A04200D20446C6
:10276000E01C4FEA90089AF810000090A3B2FAB269
:102770003046E96801F01CFCE8682044E860A8697C
:102780002044A861D9F8180980B2404505D9D5E997
:102790000501814201D20028DDD134B90120D6F8EB
:1027A0003418B8408143C6F834180020BDE8F88FCB
:1027B00038B50B46009204460022802100F008F84C
:1027C000002804D0606D40F020006065032038BD13
:1027D0002DE9F0411D4617460E460446DDF81880E7
:1027E00035E0681C33D02DB1FEF76AFAA0EB080083
:1027F000A8422CD32068416821F0E0014160606864
:10280000B0F5827F0BD1A068B0F5004F02D0B0F5D3
:10281000806F04D12068016821F040010160A06A46
:10282000B0F5005F0AD1206801684DF6FF721140D3
:1028300001602068016841F400510160012084F8C2
:102840005100002084F850000320BDE8F08120688A
:10285000806836EA000004D00020B842C1D10020D0
:10286000F3E70120F9E7000000B587B02048FFF743
:10287000BCFA00283AD11E481E4901601821C161E6
:1028800000218160416107220161C0E90A12C16033
:102890004FF400720162826141624FF482714160C3
:1028A0001548016841F480510160006800F48050CF
:1028B000059011481438016841F001010160006879
:1028C000694600F001000590E02000900220019090
:1028D000029001200390052004900848FEF726F995
:1028E00007B003485DF804EBFFF782BA07B000BDFC
:1028F000781A0020003001404438024000000240B5
:1029000001B582B000208DF804000948012301AA16
:102910008068009002A90748FFF7E4FA20B1054853
:10292000FFF74CFAFFF7A0FF9DF804000EBD000072
:102930007C010020781A002000B50E49C1B0D1F802
:102940001812D1F81412002911D1B0F90410009115
:10295000B0F90230B0F9002007A101A801F03EFB58
:1029600001A8FDF778FC014601A8FEF72FF841B059
:1029700000BD000064020020477972202D3E2047F0
:1029800059525F583A2025352E31662C204759522E
:102990005F593A2025352E31662C204759525F5A0F
:1029A0003A2025352E31660A0000000010B5FEF7EA
:1029B0008DF9BDE81040FFF7A2BB000070B52A48B2
:1029C00098B00025016841F080510160006800F076
:1029D000805017902548016841F44041016000682B
:1029E000012600F4404017904FF4A020CDE900608C
:1029F00002246005CDE906400420C021CDE908018C
:102A00000A9008200B906846FFF74AF800B1FEE7ED
:102A10000CA90F2081E831004FF4A050CDE90F053B
:102A200003210CA8FEF76EFF00B1FEE7C82013904B
:102A300005201494CDE9116011A8FEF7B9FE00B18C
:102A4000FEE7FEF7F7FF4FF47A71B0FBF1F0FFF706
:102A500042FB0420FFF732FB00221146501EFEF716
:102A6000C5F918B070BD0000403802400070004049
:102A70001048016841F4700101600F48016841F09D
:102A8000010101600C4A00210832116002680B4B01
:102A90001A400260031D0A4A1A60026822F480226A
:102AA000026005480C300160024958068039086010
:102AB0007047000088ED00E000380240FFFFF6FE9E
:102AC00010300024D0F8180220B10021C0F81412F0
:102AD000084670470220704770B50546D0F8184286
:102AE00000F035FBC4F80C02D5F8180248B1D5F84F
:102AF0001C12D4F80402CA6804F503719047002040
:102B000070BD022070BD70B504460025812100F023
:102B100077FA0121204600F073FA8221204600F066
:102B20006FFAD4F8180250B1D4F81C0204F50674F8
:102B300040688047206801F0C3FE002020602846DE
:102B400070BD10B5D0E9864159B194F80002FF2854
:102B500007D08B6894F8012221469847FF2084F81B
:102B60000002002010BD00000A21018000487047CB
:102B70006C0000204321018000487047BC00002009
:102B800043210180004870477800002043210180E4
:102B900000487047000100202DE9F0410446007C08
:102BA00000254FF4007670B3402302228121204695
:102BB00000F024FB402302220121204600F01EFBEE
:102BC000082303228221204600F018FB4FF40770EF
:102BD00001F0F8FEC4F81802F0B10746D4F81C0260
:102BE000006880470020C7F81402C7F81802207C4C
:102BF000D7F8042290B140230121204600F011FBB8
:102C00002846BDE8F081FFE73346022281212046B5
:102C100000F0F4FA3346CEE70125F1E73346EBE75F
:102C200010B5D0F8181269B1027C002AD1F804223C
:102C300005D04023012100F0F4FA002010BD4FF42C
:102C40000073F7E7022010BD02460220002902D0DF
:102C50000020C2F81C127047D0F81802C0F8041205
:102C600000207047D0F81802C0F81022C0F80812EF
:102C70000020704770B50646D0F8185208780C4608
:102C800010F0600121D0202927D1E288AAB10006E6
:102C9000607807D5D6F81C128B6829469847E288D9
:102CA000294617E085F80002A07985F80102E2883C
:102CB0002946304600F050F80FE0D6F81C12607834
:102CC00000228B682146984707E060780A2804D1E3
:102CD00003490122304600F059F8002070BD000081
:102CE0006800002010B5D0F8181289B1D1F814226C
:102CF0000AB1012010BD0122C1F81422B1F810223E
:102D000093B2D1F80822812100F035FB002010BDDC
:102D1000022010BD10B5D0F8142252689047002050
:102D200010BD134610B50A46002100F07AFA0020C3
:102D300010BD134610B50A46002100F01CFB002010
:102D400010BD10B50446802100F0ECFA2046BDE825
:102D50001040002100F0E6BA10B50323C0F80821A6
:102D6000C0F8F431C0F80C2113460A46002100F0E7
:102D700058FA002010BD10B505210023C0F8F41149
:102D80001A46194600F04DFA002010BD10B5022376
:102D90008261C0F8F431C26113460A46002100F096
:102DA000EAFA002010BD10B504210023C0F8F41188
:102DB0001A46194600F0DFFA002010BD10B50A4689
:102DC000024903A000F0D4F8004810BD78080020A4
:102DD00043444320436F6E666967000012200880F9
:102DE000004870473000002010B50A46024903A091
:102DF00000F0BEF8004810BD78080020434443208E
:102E0000496E746572666163650000000420088085
:102E1000004870472C00002010B50A46024903A064
:102E200000F0A6F8004810BD7808002053544D6902
:102E300063726F656C656374726F6E6963730000B3
:102E400010B50A46024903A000F092F8004810BDF0
:102E50007808002053544D333220566972747561DE
:102E60006C20436F6D506F727400000010B50A46FD
:102E7000024903A000F07CF8004810BD780800204B
:102E800030303030303030303030314100000000F0
:102E9000F8B5044648880D46010A08294BD2DFE8F8
:102EA00001F04A0409174A4A4048D4F81012207C1D
:102EB0000A6832E0207C02260028D4F8140205D0EB
:102EC000C16A684688470146467041E0816AF8E772
:102ED000C0B206282FD2DFE800F003080D12171C3D
:102EE000D4F81012207C4A6817E0D4F81012207C25
:102EF0008A6812E0D4F81012207CCA680DE0D4F879
:102F00001012207C0A6908E0D4F81012207C4A696B
:102F100003E0D4F81012207C8A6969469047014684
:102F200016E0207C38B9D4F81402416B6846884713
:102F3000F5E7207C20B129462046FFF702FFF8BDC7
:102F4000D4F81402016B6846884701460720487090
:102F5000BDF800000028F2D0EA88002AEFD08242B3
:102F600000D90246ADF800202046FFF70FFFF8BD5C
:102F700070B5002300281DD00446002502E06D1C1A
:102F8000EDB2641C2678002EF9D1022404EB45042E
:102F90001480CC545B1C0322CA5400245B1C06E042
:102FA000CA545B1CDAB28C54521CD3B2401C027857
:102FB000002AF5D170BD10B580B1D0F8143213B12C
:102FC0000023C0F8143209B1C0F81012012180F8B2
:102FD000FC11027000F0C0F8002010BD022010BDEE
:102FE00010B50024D0F82002FDF795FF30B101287C
:102FF00001D0022801D0022400E00124204610BDA7
:1030000010B50024D0F82002FDF763FF30B101288D
:1030100001D0022801D0022400E00124204610BD86
:103020002DE9F0411746044641B1D4F81402426933
:103030008AB394F8FC01032842D043E0D4F8F41199
:10304000002504F11400022933D1D0E902639E4225
:1030500007D9F31A83609AB239462046FFF769FE12
:1030600012E04068B0FBF3F103FB1101A1B99842F3
:1030700012D3D4F8F81188420ED20022114620460D
:10308000FFF757FEC4F8F85100231A4619462046A8
:1030900000F0C7F80DE012E0D4F81402C16829B1BD
:1030A00094F8FC01032801D1204688472046FFF709
:1030B00062FE94F80002012804D184F8005201E075
:1030C000204690470020BDE8F08170B515460446C3
:1030D00041B1D4F8140282693AB394F8FC01032890
:1030E00024D025E0D4F8F41104F5827003291FD10F
:1030F000D0E902218A420BD9531A836008468342E1
:1031000000D303469AB229462046FFF70AFE0FE095
:10311000D4F81402016929B194F8FC01032801D103
:10312000204688472046FFF73EFE01E020469047B4
:10313000002070BD0020704710B5012180F8FC11FF
:10314000D0F81422017952689047002010BDD0F8C1
:103150002002FDF708BF000010B5017861BB1749D8
:103160000222C1F8EC03C0F820124FF0A040086022
:10317000042048600020C1E90320C1E90502C861BC
:10318000086201224862C1E90B200846FEF716FAE0
:1031900020B140F253110AA000F01EFF8021074821
:1031A000FDF756FE402200210448FDF755FE80221F
:1031B00001210248FDF750FE002010BD88040020C8
:1031C0002E2E2F5372632F757362645F636F6E666A
:1031D0002E6300000A0601F07F01D0F82002C1EB47
:1031E000C10100EB810002D590F83A00704790F8D9
:1031F000FA017047002070470020704770B51D46E7
:1032000013460024D0F820022A46FDF7B6FE30B15E
:10321000012801D0022801D0022400E00124204628
:1032200070BD10B50024D0F82002FDF7D0FE30B1FB
:10323000012801D0022801D0022400E00124204608
:1032400010BD70B50022044640231146FFF7D6FF9B
:1032500040252B46002280212046C4F81051FFF75C
:10326000CDFF0120256284F8FC01D4F8180228B1B2
:10327000D4F814022179426820469047002070BD9E
:1032800090F8FD1180F8FC110020704710B590F8FF
:10329000FC11032904D1D0F81412C96901B188477F
:1032A000002010BD01740020704710B50024D0F834
:1032B0002002FEF737FA30B1012801D0022801D0F0
:1032C000022400E00124204610BD70B5044600F53C
:1032D0000270054600F05FF80120C4F8F401B4F86C
:1032E0000E02C4F8F80194F8080210F01F010AD089
:1032F00001290DD0022910D000F08001204600F0F5
:1033000011F8002070BD2946204600F0AAF8F8E721
:103310002946204600F08CF9F3E72946204600F0C4
:1033200019F9EEE710B50024D0F82002FDF773FE7E
:1033300030B1012801D0022801D0022400E001248C
:10334000204610BD10B50024D0F82002FEF703FA85
:1033500030B1012801D0022801D0022400E001246C
:10336000204610BD90F8FC1180F8FD11042180F872
:10337000FC110020704710B50024D0F82002FDF7A2
:103380007AFE30B1012801D0022801D0022400E0E9
:103390000124204610BD0A7802704A7842708A786B
:1033A000CB7802EB032242800A794B7902EB0322AD
:1033B00082808A79C97902EB0121C1807047024677
:1033C000002011B1C2F8141270470220704710B5E6
:1033D000D0F8142202241AB11268904700B90024D0
:1033E000204610BD70B50E461A4D897804462970E6
:1033F000012928D894F8FC01022802D0032822D100
:1034000005E099B10320616084F8FC0109E091B105
:10341000606888420AD0C1B22046FFF77BFC297859
:1034200061602046FFF7D3FF02280CD02046BDE89C
:103430007040FFF7B8BC022084F8FC0120466160B0
:10344000FFF768FCF2E731462046BDE87040FFF721
:1034500078BC00006400002010B5FFF773FF002067
:1034600010BD2DE9F04100264B78012532460A2B8C
:1034700043D2DFE803F03C584251420805422A2774
:10348000FFF706FD63E004468888C8B9C888B8B964
:10349000887800F07F0794F8FC01032810D084F8A6
:1034A000FE7139462046FFF700FF2046FFF77BFC00
:1034B0001FB1022084F8FC0149E084F8FC5146E089
:1034C00020461AE0FFF78EFF41E0CB88012B14D194
:1034D00090F8FC31022B02D0032B0ED104E0826065
:1034E000012200F1080114E00122011D11E090F811
:1034F000FC21022A04D0032A02D0FFF722FC26E096
:10350000C560D0F8041209B10321C160022200F1A4
:103510000C01FFF73BFC1AE004464888012816D14D
:10352000C4F804520BE0044690F8FC01022801D0D4
:103530000328C5D14888012809D1C4F80422D4F849
:1035400014028268204690472046FFF72CFC304644
:10355000BDE8F08170B50D4604462878002609794B
:10356000C0F34110012806D06878A0B301281FD00D
:1035700003283FD107E0D4F8140229468268204688
:103580009047002070BD94F8FC01022817D0032852
:103590002CD1688828B921B1802902D02046FFF7B4
:1035A000C1FED4F81402294682682046904713E0F1
:1035B00094F8FC01022802D0032817D103E0C9B116
:1035C00080291BD116E06888A0B9480604D020469F
:1035D000FFF706FDE5E703E02046FFF7E4FB09E01F
:1035E00094F8FC01022807D003280BD02946204676
:1035F000FFF7A7FB304670BD4806FBD02046FFF71B
:1036000091FEF7E7080601F07F0004EB001501D5F5
:10361000143501E005F582752046FFF7DBFD00B1AA
:1036200001202860022229462046FFF7AFFBE1E790
:1036300070B5054690F8FC010C4603280DD12079A1
:1036400001280AD8D5F81402826828469047E088F5
:1036500030B92846FFF7A7FB02E02846FFF771FBC9
:10366000002070BD30B54C781D4B01220D78AA406A
:10367000012CD0F81C4818D044EA0242C0F81C289B
:103680000A7800EB4210D0F8002B12040BD4D0F8CB
:10369000002B0C89C4F30A042243C97843EA814110
:1036A0000A43C0F8002B002030BD92B21443C0F88A
:1036B0001C480C7800EB4410D0F800291204F2D416
:1036C000D0F800290D89C5F30A052A43C978890471
:1036D00041EA84510A431A43C0F80029E3E7000095
:1036E00000800010D0F800196FF30A01C0F800192B
:1036F000D0F80818C1F34101022905D1D0F800190A
:1037000041F00301C0F80019D0F8041841F48071A9
:10371000C0F804180020704770B50446049D06994F
:103720000D9801290CD0E06840F04000E060204690
:1037300000F028F84FF48030A063012D16D01DE072
:10374000A16B21F48031A163E1680D4A1140E16071
:10375000E16821F44011E160012803D1E06840F400
:103760008010E060204600F00DF8E6E7A06840F029
:103770000600A060A06840F02000A060002070BD9E
:10378000BFFFBDFF01220C4902E0521C8A420BD848
:103790000369002BF9DA026942F001020261012299
:1037A00004E0521C8A4201D9032070470369DB07F9
:1037B000F7D1002070470000400D0300F0B50D4622
:1037C00004464F780126F206D3002D49287804EBF1
:1037D0004010012F14D0D0F8007B27F40047C0F828
:1037E000007B287804EB4010C0F8002B287804EB0D
:1037F0004010C0F8003B01202A7804EB42122BE075
:10380000D0F8007927F40047C0F80079287804EB55
:103810004010C0F80029287804EB4010C0F80039A7
:1038200001202A7804EB421202E0401C884211D8A1
:10383000D2F808395B00F8D41021204600F024FBB0
:10384000D4F81C0829788E40B1B2884314E0401C9B
:10385000884201D90320F0BDD2F8083BDB06F6D43C
:10386000D4F8040840F48060C4F80408D4F81C08B4
:1038700029788E4020EA0640C4F81C080020F0BDDC
:10388000400D030010B5D0F8041821F00201C0F873
:1038900004180320FDF7B0F8002010BD10B5D0F8D3
:1038A000041841F00201C0F804180320FDF7A4F841
:1038B000002010BD2DE9F0470E460446DDE90A0A56
:1038C0000025DDF83C80089F5FEA0801A16B11D05C
:1038D00041F40021A1634FF00009C4F8009ED4F820
:1038E0000018C4F80018012807D0D4F8000840F0E8
:1038F000030007E041F40011ECE7D4F800080BB135
:1039000040F00100C4F800081021204600F0BCFA85
:10391000204600F0A9FA4846C4F81098C4F8149854
:103920004FF0FF31C4F81818C4F81C984FF0904CB1
:10393000FF230FE004EB4511D1F80029002A02DA39
:10394000C1F800C901E0C1F80009C1F81009C1F8C7
:1039500008396D1CAE42EDD800210FE004EB411296
:10396000D2F8005B002D02DAC2F800CB01E0C2F809
:10397000000BC2F8100BC2F8083B491C8E42EDD870
:10398000D4F8101821F48071C4F81018012F0AD14E
:103990001449C4F83018D4F83018134A1143C4F845
:1039A0003018D4F83018A0616FF0804060611FB902
:1039B000A06940F01000A061A0690C490843A06113
:1039C000BAF1000F03D0A06940F00800A061B8F17F
:1039D000010F03D1A06906490843A0610020BDE89A
:1039E000F0870000000180000300010000383C80E7
:1039F00004000040816821F00101816000207047CF
:103A000030B54D784D4C0B7800EB4313012D28D089
:103A1000D3F8105B6FF31205C3F8105B0B7800EB63
:103A20004313D3F8105B2540C3F8105B4B690BB10F
:103A30008B684B610B7800EB4313D3F8104B44F4C5
:103A40000024C3F8104B0B7800EB4313D3F8104B52
:103A50008D68C5F312052C43C3F8104B012A5CD0C6
:103A600061E04D69002DD3F810593BD06FF312057A
:103A7000C3F810590B7800EB4313D3F810592540C5
:103A8000C3F810594C698B689C4200D94B610B7884
:103A900000EB4313D3F8104944F40024C3F8104951
:103AA0000B7800EB4313D3F810494D69C5F31205A9
:103AB00054EA0504C3F810490B7800EB4313D3F81C
:103AC000004944F00444C3F80049012A1ED04A6961
:103AD00012B3D0F834280B78012199400A43C0F87A
:103AE000342829E02540C3F810590B7800EB431324
:103AF000D3F8104944F40024C3F810490B7800EBC4
:103B00004313D3F810496FF31204D3E70A69097815
:103B100000EB4110C0F814290EE00B7800EB4313C2
:103B2000CA68C3F8142B097800EB4110D0F8001BC9
:103B300041F00441C0F8001B002030BDFFFF07E04A
:103B40000023C0F8103BD0F8103B43F40023C0F82A
:103B5000103BD0F8103B43F01803C0F8103BD0F8EE
:103B6000103B43F0C043C0F8103B012905D1C0F819
:103B7000142B4FF08021C0F8001B002070474B78B9
:103B80000A7800EB4212012B0BD0D2F8003B23F451
:103B90000013C2F8003BCA78032A17D0022A15D0B6
:103BA0001DE0D2F8003923F40013C2F80039CA78B6
:103BB000032A01D0022A12D1097800EB4110D0F873
:103BC000001941F08051C0F8001908E0097800EBB5
:103BD0004110D0F8001B41F08051C0F8001B0020BC
:103BE00070474B780A7800EB4212012B14D0D2F8C0
:103BF000003B002B05DBD2F8003B23F08043C2F8EA
:103C0000003B097800EB4110D0F8001B41F4001193
:103C1000C0F8001B00207047D2F80039002B05DBEC
:103C2000D2F8003923F08043C2F80039097800EB5C
:103C30004110D0F8001941F40011C0F80019E9E76B
:103C400078B54E786FF06045834C0B7800EB4313EA
:103C5000012E2FD0D3F8106B6FF31206C3F8106B40
:103C60000B7800EB4313D3F8106B2640C3F8106BAE
:103C70004B69002B7DD08C6823445B1EB3FBF4F3AF
:103C80009BB20C7800EB4414D4F8106B05EAC345E2
:103C90002E43C4F8106B0C7800EB4414D4F8105B7E
:103CA0008E685E43C6F312031D43C4F8105B012AFD
:103CB00073D0B2E04E6966B3D3F810696FF31206A1
:103CC000C3F810690B7800EB4313D3F81069264052
:103CD000C3F810694C698B681C44641EB4FBF3F391
:103CE00005EAC3440B7800EB4313D3F810592C4377
:103CF000C3F810490B7800EB4313D3F810494D6912
:103D0000C5F312052C43C3F81049CB78012B16D00C
:103D100027E0D3F810592540C3F810590B7800EB71
:103D20004313D3F8104944F40024C3F810490B7826
:103D300000EB4313D3F810496FF312040FE00B7834
:103D400000EB4313D3F8104924F0C044C3F81049E2
:103D50000B7800EB4313D3F8104944F00054C3F838
:103D60001049012A12D0CB78012B17D04B692BB305
:103D700000E037E0D0F834380D780124AC4023431C
:103D8000C0F83438CB78012B08D017E00C7800EB62
:103D900044140B69C4F81439F4E738E0D0F8083853
:103DA000DB050B7800EB4313D3F8004902D444F051
:103DB000005401E044F08054C3F800490B7800EB54
:103DC0004313D3F8004944F00444C3F80049CB78C6
:103DD000012B3ED100928A8A93B20A78C96800F01A
:103DE000E7F836E00B7800EB4313D3F8104B8D68FF
:103DF000C5F312052C43C3F8104B0B7800EB4313AB
:103E0000D3F8104B44F40024C3F8104B4FE70B7861
:103E100000EB4313CA68C3F8142BCA78012A0FD1E8
:103E2000D0F80828D2050A7800EB4212D2F8003BFD
:103E300002D443F0005301E043F08053C2F8003B4A
:103E4000097800EB4110D0F8001B41F00441C0F8A4
:103E5000001B002078BD0000FFFF07E0816841F0F3
:103E60000101816000207047002110220261054A93
:103E7000491C914201D9032070470369DB06F7D43E
:103E800000207047400D03000022202343EA8111E7
:103E900001610549521C8A4201D903207047036918
:103EA0009B06F7D400207047400D03000021D0F896
:103EB000082812F0060F15D0D0F80828C2F34102E6
:103EC000012A0CD0D0F80828C2F34102032A06D0F8
:103ED000D0F80808C0F34100022802D002E0032114
:103EE00000E0022108467047406900F00100704779
:103EF000D0F81818D0F81C08084080B27047D0F8E5
:103F00001818D0F81C080840000C7047D0F810387A
:103F1000D0F83428CA4002F0010243EAC21200EB92
:103F20004110D0F808091040704700EB4111D1F85A
:103F3000081BD0F8140808407047416980690840A0
:103F4000704710B503460020D21C920803F5805339
:103F500003E01C6841F8044B401C9042F9D308462A
:103F600010BD10B5C26822F0C042C260012901D064
:103F700021B107E0C16841F0005102E0C16841F0A1
:103F80008041C1603220FCF737FD002010BDD0F821
:103F9000002822F4FE62C0F80028D0F800284FF470
:103FA000FE6303EA01110A43C0F8002800207047AD
:103FB00030B50024039D6DB9DB1C9B0800EB02307B
:103FC00000F5805004E000BF51F8042B0260641C2F
:103FD0009C42F9D3002030BDFEE700000FB4084B2F
:103FE00010B504A902AA039800F0CEF8044602A96D
:103FF000002000F060FC204610BC5DF814FB0000BF
:10400000B748000802E008C8121F08C1002AFAD108
:1040100070477047002001E001C1121F002AFBD148
:10402000704700002DE9FF5FDDE90220010DDDF89A
:1040300038B0024318D044F61050A1F2FF3141438A
:104040000D140F98012820D0A5EB0B00401C5FEA4F
:10405000000A4FF00004474EDFF81C91A04650467E
:1040600016D5CAF1000728E00F98012443A20128C1
:1040700008D0002100980F9BC0E90021C0E902434D
:10408000BDE8FF9F6FEA0B01F4E7CBF10000DEE72C
:10409000074612E0F80707D0224633464046494615
:1040A000FCF7BCF98046894622463346104619463D
:1040B000FCF7B4F904460E467F10002FEAD1DDE983
:1040C0000201BAF1000F42464B4602DAFCF7A6F9AC
:1040D00001E0FCF715FA04460E460022284BFCF7D7
:1040E00097FA03D84FF0FF30014607E00022254B36
:1040F00020463146FCF7EBF8FCF771FA102409E092
:10410000002C0ADB0A220023FCF762F8019B303204
:104110001A55641E50EA0102F2D1641C019AC4F1DE
:10412000110314440F9A012A03D0012208430DD130
:104130000AE0084304D000204FF0110B0F9080E7F5
:10414000A3EB0B056D1E0DE05B4504DD4FF0000297
:1041500005F1010504E003DA4FF00002A5F10105C5
:10416000002AECD000980F99C0E90231C0E900455F
:1041700086E70000000024400000F03F300000000F
:104180000000F0430000E03F2DE9FF4F95B09B4653
:104190008946064600250FE2252877D100242746C8
:1041A000F84A0121059400E0044316F8013F203B42
:1041B00001FA03F01042F7D130782A2811D06FF0BD
:1041C0002F033078A0F13002092A16D8059A44F05E
:1041D000020402EB820203EB42021044761C0590BB
:1041E000EFE759F8042B0592002A03DA504244F411
:1041F0000054059044F00204761C30782E2816D125
:1042000016F8010F44F004042A280DD06FF02F0295
:104210003078A0F13003092B09D807EB870302EBB4
:104220004303C718761CF3E759F8047B761C3078F3
:104230006C280FD006DC4C2817D068280DD06A28CF
:1042400014D104E0742810D07A280FD10DE044F482
:1042500000140AE044F4801401E044F4401472783D
:10426000824202D104F58014761C761C30786628D0
:104270000BD013DC582877D009DC002875D04528EE
:10428000F6D04628F4D047281AD19DE118E06328DB
:1042900035D0642879D0652812D195E1702873D083
:1042A00008DC6728F1D069286FD06E280DD06F2800
:1042B00006D1B5E073282CD0752875D0782874D035
:1042C0005A46179990476D1C75E1C4F302500228B5
:1042D00009D003280DD0D9F8001004280DD00D60A6
:1042E00009F1040967E1D9F80010EA17C1E90052A1
:1042F000F6E7D9F800100D80F2E70D70F0E719F835
:10430000041B8DF8001000208DF80100EA46012002
:1043100003E059F804AB4FF0FF3061074FF00001A4
:1043200002D40DE008F101018846B9420FDA804558
:10433000F8DB1AF808100029F4D108E008F10101AF
:1043400088468142FADB1AF808100029F6D1059850
:104350005B46A0EB080721463846179A00F094FA0E
:10436000284400EB080507E04DE029E10DE01AF8CC
:10437000010B5A4617999047B8F10108F7D25B46EE
:1043800021463846179A13E142E00A220092C4F30C
:1043900002524FF0000A022A08D059F804CB032A2F
:1043A0004FEAEC710AD00DE029E02AE009F107019B
:1043B00021F00702F2E802C1914609E00FFA8CFCF5
:1043C0004FEAEC71042A03D14FFA8CFC4FEAEC71EE
:1043D000002907DA0A460021DCF1000C61EB02013A
:1043E0002D2202E0220504D52B228DF80420012283
:1043F00003E0E20701D02022F7E7904659E00A21C6
:1044000002E010220DE010214FF0000A00910BE0B5
:1044100010224FF0000A44F004040827009203E041
:1044200008224FF0000A0092C4F30252022A05D07B
:1044300059F804CB0021032A08D009E009F107014B
:1044400021F00702F2E802C1914605E01FFA8CFC58
:10445000042A01D10CF0FF0C4FF00008220728D5E8
:10446000702806D0009B83F0100353EA0A0305D09E
:104470000EE040228DF80420012208E05CEA0102EF
:1044800006D030228DF804208DF8050002229046D7
:10449000009B83F0080353EA0A030AD15CEA010295
:1044A00001D1620705D530228DF804204FF00108B4
:1044B0007F1E582804D034A003900EA802900DE06F
:1044C00036A0F9E753466046009AFBF781FE844622
:1044D0000398825C0298401E029002705CEA010020
:1044E000F0D1029806A9081A00F1200A600702D547
:1044F00024F4803400E00127574502DDA7EB0A00D1
:1045000000E0002000EB0A01009005984144401AA9
:104510000590E00306D45B462146179A059800F003
:10452000B3F90544002706E001A85A46C05D179973
:1045300090476D1C7F1C4745F6DBE0030CD55B46BE
:104540002146179A059800F09FF9054404E03020B1
:104550005A46179990476D1C0099481E00900029F3
:10456000F5DC08E0029802995A460078491C02914D
:10457000179990476D1CBAF10001AAF1010AF1DC0C
:1045800065E1000009280100303132333435363717
:10459000383961626364656600000000303132338F
:1045A000343536373839414243444546000000002F
:1045B00000F058F90544761C307800287FF4ECAD03
:1045C00019B02846BDE8F08F620700D4062709F12C
:1045D000070222F0070CFCE80223E14603F0004842
:1045E0005FEA080C02D00FF2702C0DE05FEA045C69
:1045F00002D50FF2682C07E05FEAC47C02D00FF20C
:10460000602C01E0AFF2700C4FF0FF3823F0004354
:10461000CDF850C065280CD006DC452809D04628C6
:104620001DD047283DD13DE0662818D067287ED1AF
:1046300038E00021112F01DB112000E0781CCDE9CA
:10464000000106A90EA8FFF7EDFCDDE90F010E9AA7
:1046500003910021009207F1010A04914DE04FF00F
:1046600000400097CDE9011006A90EA8FFF7DAFC7B
:10467000DDE90F0203920E9B11990022DDF80CA0D8
:104680000093049211B9791C00EB010AB7EB0A0000
:1046900004D4C0F1FF3007F1010A0490AAEB07002F
:1046A000019044E0012F00DA01270021112F01DDE4
:1046B000112000E03846CDE9000106A90EA8FFF759
:1046C000B1FCDDE90F010E9A0391002104910092E3
:1046D000BA4621070CD40399514500DA8A46BAF14B
:1046E000010F05DD009AAAF10101515C302908D0C3
:1046F000B84202DA10F1040F06DA0121CDE9011007
:1047000015E0AAF10101E9E7002805DC049901445C
:104710000491AAEB000102E0411C514500DD8A46EC
:104720000499401A401C01904FF00040029020076D
:1047300004D40198504501DBCDF8048000208DF8A9
:104740004F0002980DF14F07B0F1004F25D02B20FC
:104750000E9002984FF0020800280CDA40420290B6
:104760002D200E9007E00A210298FBF77BFD3031E7
:10477000029007F8011DB8F10001A8F10108F2DC70
:1047800002980028EFD1791E0E980870307800F05A
:10479000200040F0450007F8020D12A8C01B00F1F0
:1047A00007081498007800B1012000EB0A01019875
:1047B00001EBE07105984144401A401E0590E0036A
:1047C00006D45B462146179A059800F05DF805442B
:1047D0001498007818B15A46179990476D1CE00359
:1047E00024D55B462146179A059800F04DF80544FC
:1047F0001CE00498002807DBDDE90301884203DDA3
:104800000098405C179901E0179930205A4690476C
:10481000049805F10105401C04900198401E019088
:1048200004D12E205A46179990476D1CBAF1000109
:10483000AAF1010ADDDC05E017F8010B5A461799C9
:1048400090476D1CB8F10001A8F10108F4DC5B464B
:104850002146179A0598ABE62D0000002B000000BA
:10486000200000002DE9F041044600251E461746B1
:10487000880404D405E039462020B0476D1C641E2E
:10488000F9D52846BDE8F0812DE9F0410446002520
:104890001E469046C80301D5302700E02027880433
:1048A00004D505E041463846B0476D1C641EF9D575
:1048B0002846BDE8F0810A68531C0B6010707047F1
:1048C00010B5002821D0114B0022001F196803E009
:1048D000814203D80A4649680029F9D152B11368C8
:1048E000841A9C4204D1006818441060104602E00B
:1048F000506000E0186039B102680B1A934203D18E
:104900000B681A4402604968416010BD040200202F
:10491000FCF7E4F9FEF752F8FDF71EFEFDF7B2FED4
:10492000FDF7D0FEFBF7F0FF254C00B1FEE7244D6C
:10493000083523480830FBF7C5FFFA20FCF75CF880
:104940001F480830FDF7F8FFB5F90010E180B5F910
:104950000200A080002901DA4A4200E00A4600284D
:1049600001DA434200E003469A420DDDB4F900004B
:10497000814201DD022004E0B4F9020081420FDA35
:104980000020FBF7F3FF0BE0B4F90210884201DAD4
:104990000320F6E7B4F90010884201DD0120F0E7BA
:1049A0000A20FCF729F80120FBF7D2FF0020FBF7D3
:1049B000CFFF0220FBF7CCFF0320FBF7C9FFB8E7CE
:1049C00000000020F0B50B30154D20F00701002449
:1049D000144A0FE003688B420BD38B4205D95E1A51
:1049E00043184768C3E9006700E04368136002C0EA
:1049F00004E0021D10680028ECD12046002802D1F6
:104A0000286808B10020F0BD064A07481060074A30
:104A1000121A22F00702C0E9002401202860D7E71B
:104A200008020020040200202C1B0020281D00206A
:104A3000000000000000000001020304060708094E
:104A40000600010000100020004000806C4A0008B1
:104A5000000000200C02000042070008704B000814
:104A60000C0200201C1F00001440000812C8C338AC
:104A7000FF13DD2D14080D2E1B0819041A41041A0A
:104A80006D041ABD141AE904170403090412011471
:104A9000020202164083044057260201020301135A
:104AA00091091B088D041A89041AB504191311827F
:104AB000109324F4130A0632022A40201C090243F0
:104AC0003F1125C03209041B01020B1305241610E7
:104AD000010524011009010424020205240617011E
:104AE00007058203081C10090475320A1D07050119
:104AF00002432C070581070938442A40072A810709
:104B0000112B0907440A2204440A16FF4413992B67
:104B10001B08070413752C42081A430C13C52A1BE3
:104B200008D904C12A812419041A8D041A690421A0
:104B3000193F321029041A0C0CA9043113C1231B8C
:104B400008BF041319251B083504CBED22500110B2
:104B5000133D241408F9211B08C9041AAD2C1AC9E5
:104B6000041A250C01101A07145ACB189A45540040
:040000050800019955
:00000001FF
