:020000040800F2
:10000000C02100209D010008A5010008A7010008EB
:10001000A9010008AB010008AD01000800000000C4
:10002000000000000000000000000000AF01000818
:10003000B101000800000000B3010008D92D00083C
:10004000B7010008B7010008B7010008B7010008B0
:10005000B7010008B7010008B7010008B7010008A0
:10006000B7010008B7010008B7010008B701000890
:10007000B7010008B7010008B7010008B701000880
:10008000B7010008B7010008B7010008B701000870
:10009000B7010008B7010008B7010008B701000860
:1000A000B7010008B7010008B7010008B701000850
:1000B000B7010008B7010008B7010008B701000840
:1000C000B7010008B7010008B7010008B701000830
:1000D000B7010008B7010008B7010008B701000820
:1000E000B7010008B7010008B7010008B701000810
:1000F000B7010008B7010008B7010008B701000800
:10010000B7010008B7010008B7010008B7010008EF
:10011000B7010008B7010008B7010008B7010008DF
:10012000B7010008B7010008B7010008B7010008CF
:10013000B7010008B7010008B7010008B7010008BF
:10014000B7010008B7010008B7010008592B0008E3
:10015000B7010008B7010008B7010008B70100089F
:10016000B7010008B7010008B7010008B70100088F
:10017000B7010008B7010008B7010008000000003F
:10018000B7010008B7010008DFF80CD000F098F8BC
:1001900000480047B9450008C021002006488047B4
:1001A00006480047FEE7FEE7FEE7FEE7FEE7FEE75C
:1001B000FEE7FEE7FEE7FEE79D2E00088901000846
:1001C0002DE9F05F0546002092469B46884606468C
:1001D000814640241BE0284641464746224600F01F
:1001E0005EF853465A46C01A914110D3114618463C
:1001F000224600F045F82D1A67EB01084F462246CB
:100200000120002100F03CF817EB00094E41201EB0
:10021000A4F10104DFDC484631462A464346BDE8E6
:10022000F09F40EA01039B0703D009E008C9121FB1
:1002300008C0042AFAD203E011F8013B00F8013BA0
:10024000521EF9D27047421C10F8011B0029FBD145
:10025000801A704730B50B46014600202022012449
:1002600009E021FA02F59D4205D303FA02F5491B84
:1002700004FA02F52844151EA2F10102F1DC30BD9A
:10028000202A04DB203A00FA02F100207047914056
:10029000C2F1200320FA03F3194390407047202A4B
:1002A00004DB203A21FA02F00021704721FA02F320
:1002B000D040C2F120029140084319467047000027
:1002C000064C074D06E0E06840F0010394E80700A3
:1002D00098471034AC42F6D3FFF75AFF04470008A2
:1002E0002447000870B58C1810F8015B15F007035F
:1002F00001D110F8013B2A1106D110F8012B03E0BF
:1003000010F8016B01F8016B5B1EF9D12B0705D4C6
:100310000023521E0DD401F8013BFAE710F8013B0F
:10032000CB1A921C03E013F8015B01F8015B521E2B
:10033000F9D5A142D8D3002070BD00000F4800B508
:10034000026887B0002142F01002026000680C4A87
:1003500000F0100005900220CDE90210CDE9000266
:100360006946084800F0CEF900220F21072000F06E
:10037000CFFD072000F0C0FD07B000BD30380240BF
:1003800000001110001002400F4810B5026886B03E
:10039000002142F01002026000680C4C00F01000D6
:1003A0000590082000900120CDE9010103906946E5
:1003B000204600F0A7F901220821204600F07AFA31
:1003C00002F070FC06B010BD303802400010024050
:1003D0002DE9F04114460546012A02D941F0C00634
:1003E00001E041F080060D4F00220821384600F060
:1003F00061FA304602F0A2FC06E0002002F09EFC0A
:10040000641E05F8010BA4B2002CF6D13846BDE8F5
:10041000F0410122082100F04DBA00000010024016
:100420002DE9F041144605460E46012A01D941F056
:1004300040060C4F00220821384600F03BFA3046B7
:1004400002F07CFC05E0287802F078FC641EA4B27F
:100450006D1C002CF7D13846BDE8F041012208217F
:1004600000F028BA0010024070B50E4D044628680E
:10047000016B002914D0204688470B492868884220
:100480000ED1B4F9000000EE100A60882080B8EEAA
:10049000C00AB1EE400ABDEEC00A10EE100A60803C
:1004A00070BD0000000200207C01002070B50E4DE0
:1004B0000124A86880470D4E3B2805D00C4DA86844
:1004C00080473F2808D00CE03560296847208847DE
:1004D00031682D20896A02E03560296867208847E5
:1004E0000024204670BD00007C0100200002002096
:1004F000B00100200449054A31F8101052F82000DC
:10050000002200F0D7B90000FC460008F0010020EE
:100510000449054A31F8101052F82000012200F079
:10052000C9B90000FC460008F00100200020704717
:100530000020704710B500220449054802F088FDEC
:100540000449034802F07FFD002010BD1413002071
:1005500000030020140B002010B50146034802F0F0
:1005600072FD024802F059FD002010BD000300207A
:10057000084A10B5D2F81822526D0AB1012010BDF8
:100580000A460146034802F063FDBDE810400148F9
:1005900002F09CBD0003002070B5044600F090F905
:1005A0000546601C02D004480078044400F088F935
:1005B000401BA042FAD370BD540000202DE9F04F3B
:1005C000DFF818B100224FF001094FF00F0A00BF09
:1005D00009FA02F401EA0403A34279D1066857003C
:1005E0000325BD40AE430660D60800EB8606D6F86C
:1005F00020C057074FEAD7680AFA08F72CEA070C19
:10060000C6F820C08668AE4386604668A64346604A
:10061000C468AC43C46022F003055D44D5F80868A3
:100620009407270F0AFA07F4DFF8B4C026406045A4
:1006300002D14FF0000C32E0DFF8A8C0604502D1D3
:100640004FF0010C2BE0DFF8A0C0604502D14FF065
:10065000020C24E0DFF894C0604502D14FF0030C97
:100660001DE0DFF88CC0604502D14FF0040C16E0AD
:10067000DFF880C0604502D14FF0050C0FE0DFF8D5
:1006800078C0604502D14FF0060C08E0DFF86CC07E
:10069000604502D14FF0070C01E04FF0080C0CFA56
:1006A00007FCB44514D1D5F80868A643C5F8086816
:1006B000134C25689D432560241D25689D432560B6
:1006C000241D25689D432560241D25689D432560C4
:1006D000521C102AFFF47CAFBDE8F08F00300140BF
:1006E000000002400004024000080240000C0240EA
:1006F000001002400014024000180240001C02409A
:10070000003C01402DE9F84FDFF87CB100224FF0AA
:1007100001084FF0030A4FF00F090BF1040E00BF60
:100720000B6808FA02F42340A3426ED14D68022DF3
:1007300001D0122D0ED1D50800EB850CDCF820502D
:100740005607F70E09FA07F6B5430E69BE402E4369
:10075000CCF82060066855000F790AFA05FC07F00E
:10076000030726EA0C06AF40374307604E68012EA8
:1007700005D0022E03D0112E01D0122E0ED1866884
:10078000CF6826EA0C06AF40374387604668A64329
:100790000C79C4F30014944034434460C6688C68F8
:1007A00026EA0C06AC403443C4604C68E40065D5CE
:1007B000364C256845F480452560246822F0030501
:1007C00004F480440094324C2E19D6F8084895075A
:1007D0002F0F09FA07F5AC432E4DA84201D1002591
:1007E00024E02D4DA84201D101251FE02B4DA84248
:1007F00001D102251AE02A4DA84201D1032515E0B6
:10080000284DA84202D1042510E037E0264DA84229
:1008100001D105250AE0254DA84201D1062505E0B4
:10082000234DA84201D1072500E00825BD402543FE
:10083000C6F80858DBF800405D464E689C43F60356
:1008400000D51C432C60DEF8004075464E689C4382
:10085000B60300D51C432C600B4D08352C684E6840
:100860009C43F60200D51C432C60074D0C352C68C8
:100870004E689C43B60200D51C432C60521C102AC3
:10088000FFF44EAFBDE8F88F003C01404438024011
:100890000030014000000240000402400008024015
:1008A000000C0240001002400014024000180240F8
:1008B000001C02400AB1816170470904FBE7000097
:1008C00001488068704700005400002070B50400A3
:1008D00004D094F83D00002510B106E0012070BD61
:1008E00084F83C50204600F075F8242084F83D0040
:1008F0002068016821F00101016001F05FF93349CE
:100900002268B0FBF1F15160314A6368934206D925
:100910004FF4967359434FF47A73B1FBF3F12368A4
:10092000491C1962616891420BD84900B0FBF1F291
:10093000C2F30B02042A01D2042019E0B0FBF1F04B
:1009400016E0A3689BB301EBC10202EB0112B0FBFE
:10095000F2F242F48042120530D04BB301EBC102F7
:1009600002EB0111B0FBF1F040F4804040F4004094
:100970002168C861D4E90701084321680860D4E907
:100980000310084321688860D4E905010843216801
:10099000C8602068016841F00101016025642020E1
:1009A00084F83D00256384F83E50002070BD00E0CF
:1009B00006E001EB4102B0FBF2F2CCE70120D7E701
:1009C00001EB4101B0FBF1F0D0E7000040420F0025
:1009D000A086010000B500680E4987B0884217D193
:1009E0004FF410700090122001900120029003201B
:1009F00003900420049069460748FFF783FE0748E8
:100A0000016841F400110160006800F400100590D5
:100A100007B000BD005400400004024040380240CE
:100A20002DE9FE43044600688168744D744E4FF012
:100A300040270291A84201D1314600E03946896839
:100A40000191C1694FF00108C1F3012102290AD0C7
:100A5000C16911F4407F06D00199890773D5A84276
:100A600067D1304666E00299890707D54068C043E0
:100A7000000603D40021204601F058FC0198C0076D
:100A80000DD02068A84201D1304600E038464068C9
:100A9000C043400603D40121204601F003FC019825
:100AA0004FF65F79400628D52068A84201D131462B
:100AB00000E039464968C94389061ED4A84201D1DD
:100AC000304600E03846406820F0600101D13046F1
:100AD00000E0384641602068416801EA0901416050
:100AE0002068C1688068009084F84180606C40F0A4
:100AF00002006064204600F086F8029800077BD56B
:100B000020684168C943890676D4416801EA090131
:100B100041602068A84201D1304600E03846406874
:100B200020F0600000D03E46706020688068009031
:100B300057E0384640686FEA0000000603D4012100
:100B4000204601F0F3FB0298C00708D020684068F7
:100B5000C043400603D40021204601F0A3FB0298C5
:100B60004FF69F7940061FD520684168C943890622
:100B70001AD4416801EA090141602068A84201D104
:100B8000304600E03846406820F0A00101D13046F0
:100B900000E03846416084F84180606C40F002001B
:100BA0006064204600F02FF80198000724D52068E3
:100BB000A84201D1314600E039464968C943890657
:100BC0001AD4A84201D1304600E03846406820F0EF
:100BD000A00000D03E4670602068416801EA09012B
:100BE000416084F84180606C40F0040060642046FD
:100BF000BDE8FE4300F007B8BDE8FE8300380040C2
:100C000000340040704770472DE9F05F04004FF05A
:100C100002064FF000074FF010052CD04FF00209EC
:100C2000C84684F8419054486063204600F0ACF810
:100C30002068C16940F6BF7A21EA0A01C1612168D2
:100C4000C1F820802068D0F81C8060694FF4007BD8
:100C5000022835D0E06800B12025A068202800D8FF
:100C60006D00012000F040FE2169594525D1E16861
:100C700021B1A90003E00120BDE8F09FE900B0FB2D
:100C8000F1F000BF00EB800061694000B0FBF1F0C3
:100C9000401D0A21B0FBF1F101F00100091AC1F376
:100CA0004F060702B01EFE280AD3606C40F0100009
:100CB00060642046FFF7A7FFDDE7B0FBF5F0E1E752
:100CC000206921683E4330430862A0882189228B35
:100CD0000843A1891143084380B2216840EA080013
:100CE00040F40060C861206A01283AD1234860635B
:100CF00023482168234A4FF04023814201D1114605
:100D000000E01946C96921EA0A0101D1154600E04F
:100D10001D46E96125684946854201D1154600E036
:100D20001D4629622568854201D1114600E0194619
:100D3000CE69616859451BD0D1B100212789B4F82B
:100D40000CC047EA0C07B4F818C04CEA010C47EA9B
:100D50000C07B9B2314341F40061854200D01A4614
:100D6000D16100206064012084F84100002083E705
:100D70004FF48071E2E70000B1230008210A000867
:100D8000003800400034004070B50068134986B058
:100D9000884220D112480024016841F400410160DA
:100DA0000068022500F40040059010200090CDE975
:100DB00001540626CDE9034669460A48FFF7A2FC1E
:100DC0004FF4A4500090CDE90154CDE903466946A3
:100DD0000548FFF797FC06B070BD0000003C0040DE
:100DE000403802400000024000080240704770474F
:100DF00002488168027811448160704754000020E5
:100E00000B4810B5016841F400710160016841F4BC
:100E100080610160016841F480710160032000F08D
:100E200097F8002000F006F800F024F8002010BD2C
:100E3000003C024070B50D4D04464FF47A7128789D
:100E4000B1FBF0F00A490968B1FBF0F001F011FACA
:100E500048B9102C07D200222146501E00F058F845
:100E600000206C6070BD012070BD000054000020A7
:100E7000600000201F4808B5016841F4804101600E
:100E8000006800F4804000901A48001F016841F09B
:100E900080510160006800F080500090072000F051
:100EA00057F8002211466FF00B0000F031F80022D5
:100EB00011466FF00A0000F02BF8002211466FF087
:100EC000090000F025F800221146501F00F020F81C
:100ED00000221146101F00F01BF800221146901E40
:100EE00000F016F80022BDE808401146501E00F040
:100EF0000FB800004438024000F01F020121914069
:100F00004009800000F1E020C0F8001170470000A7
:100F1000F0B40E4B1B680C46C3F30223C3F1070564
:100F2000042D00D90425191D072901D2002300E052
:100F3000DB1E012606FA05F1491E214099409E401C
:100F4000761E16403143F0BC01F0F6BD0CED00E01A
:100F5000064900F0070208684FF6FF03184040EA10
:100F60000220034A10430860704700000CED00E0C7
:100F70000000FA050068416200207047F0B5006883
:100F80000023446A31B1856A4FF4827604EB15443C
:100F90004D1E0AE044EA024181620FE006EB83073E
:100FA000C7595B1C04EB1744DBB2AB42F6DB4FF4D2
:100FB000807303EB810144EA024242500020F0BDFD
:100FC000D0F8EC0302F0A8BAC1EBC10200EB820238
:100FD000D0F8EC03526C02F015BAC1EBC10200EB81
:100FE0008202D0F8EC03D2F8042202F060BAD0F802
:100FF000EC0302F093BA10B504460A460B0601F062
:101000007F00C0EBC00104EB810101D5383101E064
:1010100001F5FC710870D009487094F8B8030128F4
:1010200009D0012084F8B803206802F0B9FD00203F
:1010300084F8B80310BD022010BD70B50A460446FE
:10104000090602F07F0005D5C0EBC00104EB810169
:10105000383105E0C2EBC20104EB810101F5FC71FE
:1010600000258D700870D009487094F8B8030128E5
:1010700009D0012084F8B803206802F072FF84F8D8
:10108000B853002070BD022070BD01F00F01C1EB0C
:10109000C10100EB8100B0F8100280B2704770B55A
:1010A00004460D460E0601F07F00C0EBC00104EBC4
:1010B000810101D5383101E001F5FC71ED090870BD
:1010C0004D708A60CB7000D0C8800025022B00D103
:1010D0000D7194F8B803012809D0012084F8B803F1
:1010E000206802F0B1FC284684F8B85370BD022095
:1010F00070BD70B50C4601F07F05C5EBC50100EB76
:101100008101C1F80C32C1F804220023C1F8103269
:1011100081F8F93181F8F851036901F5FC71012B6F
:1011200000D10A616206027C006803D002F07AFFF7
:10113000002070BD02F056FEFAE770B50D46044679
:10114000090605F07F0005D5C0EBC00104EB810165
:10115000383105E0C5EBC50104EB810101F5FC71F7
:1011600001228A700870E809487094F8B8030128D1
:1011700007D084F8B823206802F025FF680602D063
:1011800007E0022070BD217C04F56F72206802F038
:10119000C9FE002084F8B80370BD70B50C4601F09C
:1011A0007F05C5EBC50100EB8101CB644A640023D8
:1011B0000B65012381F8393001F8385F0369012B91
:1011C00000D10A616206027C006803D002F02AFFA7
:1011D000002070BD02F006FEFAE700002DE9F84F8E
:1011E000044600680026054603F070F8002875D113
:1011F000206803F094F8002870D0206803F08FF87E
:10120000800704D52068416901F00201416120682E
:1012100003F085F8010304F56F704FF0010B4FF0F8
:10122000000A00904DD5206803F05BF8074646E0C1
:10123000F80742D0F1B2206803F069F88046C00791
:1012400028D005EB4612C2F808BB2069012811D14D
:10125000C6EBC60004EB8001D2F8102BD1F80002D7
:10126000C2F31202821AC1F81022D1F804221044EB
:10127000C1F80402F1B22046FFF7AFFE2069012851
:1012800008D13EB9D4F80C0220B920680121009A97
:1012900002F048FE5FEA087007D5204600F0F0FA39
:1012A00005EB46110820C1F8080B5FEAC86004D5B9
:1012B00005EB46111020C1F8080B7F08761C002FA3
:1012C000B6D1206803F02BF840034FF040095ED5FB
:1012D000206802F0FFFF0746002656E0D2E1F8073B
:1012E00051D0F1B2206803F003F88046C00724D043
:1012F000D5F834280BFA06F08243C5F8342805EBFC
:101300004610C0F808B92069012807D1C6EBC6000D
:1013100004EB8000D0E9101211444164F1B2204680
:10132000FFF752FE2069012807D136B9E06C20B9D9
:1013300020680121009A02F0F5FD5FEA087004D5EB
:1013400005EB46110820C1F808095FEAC86004D51A
:1013500005EB46111020C1F808095FEA486003D583
:1013600005EB4611C1F808995FEA887004D505EBD2
:1013700046110220C1F808095FEA086003D531462A
:10138000204601F0EFFB7F08761C002FA7D12068D4
:1013900002F0C5FF00280DDAD5F8040820F001009E
:1013A000C5F80408204600F051FA2168486900F0A9
:1013B00000404861206802F0B2FF00050BD5D5F867
:1013C0000808C00702D0204600F076FA206841697C
:1013D00001F400614161206802F0A1FFC0044CD516
:1013E000D5F8040820F00100C5F804081021206891
:1013F00002F03CFF0020FF2107E000BF05EB401298
:10140000C2F80819C2F8081B401C62688242F5D86D
:101410004FF0FF30C5F81808D5F81C0840F001104F
:10142000C5F81C08206B60B1D5F8840840F00B00AB
:10143000C5F88408D5F8440840F00B00C5F8440806
:101440000BE0D5F8140840F00B00C5F81408D5F8E7
:10145000100840F00B00C5F81008D5F8000820F47B
:10146000FE60C5F80008217C2068009A02F05AFD51
:101470002168486900F480504861206802F04FFFFD
:1014800080047DD5206802F01FFB2068C16821F42C
:101490007051C160206802F0FBFE78B10320C4F8EF
:1014A0001490E06000F084FB7749784A014491424F
:1014B0000AD22068C16841F4705158E04FF40070BE
:1014C000C4F80CA0606136E07149724A014491424F
:1014D00004D22068C16841F4605148E06E496F4A07
:1014E0000144914204D22068C16841F450513EE069
:1014F0006B496C4A0144914204D22068C16841F4AE
:10150000405134E06849694A0144914204D220685C
:10151000C16841F430512AE06549664A014491426C
:1015200004D22068C16841F4205120E06249421889
:1015300062498A4204D22068C16841F4105116E021
:101540005F49604A0144914204D22068C16841F475
:1015500000510CE05C4908445C4988422068C1683D
:1015600003D241F4E05102E00AE041F4C051C1600D
:10157000204600F05BF92068416901F400514161A7
:10158000206802F0CCFEC00636D52168886920F0BC
:1015900010008861D5F8208008F00F00C0EBC00073
:1015A00004EB8007C8F3434007F5FC77022802D01C
:1015B000062812D01BE047F6F07018EA000F16D08C
:1015C000C8F30A1290462846F96802F0ACFEF868A3
:1015D0004044F860B869404408E008222846009971
:1015E00002F0A1FEB969C8F30A100844B861206886
:1015F000816941F010018161206802F090FE0007CE
:1016000007D5204600F026F92068416901F008015D
:101610004161206802F083FEC00208D5F1B2204685
:1016200000F056F82068416901F48011416120689A
:1016300002F075FE800208D5F1B2204600F04CF8A9
:101640002068416901F400114161206802F067FEE1
:10165000400007D52046FFF7B3FC2068416901F040
:1016600080414161206802F05AFE40070AD5206897
:101670004568680702D52046FFF7B9FC2068416835
:1016800029434160BDE8F88F405327FF00350C0027
:10169000401E1BFF40420F0000DC0BFF804F12007A
:1016A000808CF9FE20D6130060B6E5FE60E31600DC
:1016B00000D3CEFE40771B00C05BB3FEC09121007B
:1016C00000CA91FE20753800E05459FEE09C4100AC
:1016D000D0F8EC0301F080BFD0F8EC0301F07EBF3E
:1016E000F0B58BB004004FF0000556D0032084F80D
:1016F000B903204600F054F8206802F06DFB04F1B5
:10170000100128220F466846FEF78BFD94E80F0073
:1017100002F0F4F90021206802F015FE01260020F5
:10172000C5EBC50104EB810181F8396001F8385F30
:10173000CD80C8708860C8606D1C48610F2DEFD3E4
:1017400000214FF4827300BFC1EBC10204EB82029F
:1017500003EB810582F8F90182F8F811D18782F84C
:10176000FB01C2F80002C2F80402C2F80C022268AF
:101770005051491C0F29E7D3282239466846FEF705
:1017800050FD94E80F0002F087FA84F8B9632068EE
:1017900002F076FA00200BB0F0BD0120FBE700005C
:1017A000F0B5006887B0B0F1A04F39D100244FF4F4
:1017B0000070CDE900041B4F694638460294FEF7DD
:1017C000A1FF38150225CDE900050320CDE902402F
:1017D0000A26694604963846FEF794FF4FF4C05037
:1017E0000090CDE90154CDE9034669463846FEF73D
:1017F00089FF0D48016841F0800101600A481030FE
:10180000016841F4804101600068002200F48040DA
:10181000059011464320FFF77BFB4320FFF76CFB4D
:1018200007B0F0BD000002403438024010B5044655
:10183000C068012100B90021D4F8EC0301F024FFB5
:10184000D4F8EC03BDE8104001F0EDBED0F8EC0395
:1018500001F008BFD0F8EC0301F00ABF10B5044650
:1018600090F8B803012809D0012084F8B803206853
:1018700002F07FFD002084F8B80310BD022010BDE7
:10188000D0F8EC2300F56F71104601F010BF10B5D1
:10189000044690F8B80301280CD0012084F8B8035E
:1018A000206802F0E1F9206802F0CAFC002084F808
:1018B000B80310BD022010BD10B50446D0F8EC03EB
:1018C00001F042FF2068D0F8001E41F00101C0F88D
:1018D000001E206A002804D00248016841F0060179
:1018E000016010BD10ED00E001460020012907D184
:1018F0001049096811F4000103D0012900D10E48F4
:1019000070470C48001F01680068490200F03F0062
:1019100001D50A4900E00A49064AB1FBF0F07C32E1
:101920001168C1F3881141431068C0F30270B1FB24
:10193000F0F07047083802400080BB0000127A00C7
:101940000024F4002DE9F843054600684FF0010932
:10195000C1074FF0000601D1400727D5DFF80C8101
:10196000C8F86860FEF7ACFF0746414C05E000BFD1
:10197000FEF7A6FFC01B022857D820680001F7D445
:1019800068688101287A41EA007039498431086029
:10199000C8F86890FEF794FF074604E0FEF790FF52
:1019A000C01B022841D820680001F7D5287880079D
:1019B00052D52F484030016841F0805101600068E5
:1019C0002C4C00F080500090206840F48070206023
:1019D000FEF776FF074604E0FEF772FFC01B022801
:1019E00023D82068C005F7D5214C7034206810F446
:1019F000407020D0A98901F4407181421BD0206839
:101A00001D4920F44070C1F800900E6020602068ED
:101A1000C00710D0FEF754FF064641F2883707E0B2
:101A2000FEF74EFF801BB84202D90320BDE8F883C1
:101A300020688007F4D5E9680D48C1F30122083019
:101A4000032A0BD0016821F4F81101602068A989EC
:101A5000C1F30B01084320600020E7E70268074B51
:101A600022F4F81219400A430260EFE700004742EF
:101A70000038024000700040400E4742FFFCFF0F5C
:101A80002DE9F0470E46050065D0DFF81481D8F83F
:101A90000000F7B200F00F00B04207D288F80070E3
:101AA000D8F8000000F00F00B04254D128683D4C37
:101AB000810712D5400703D5206840F4E05020602C
:101AC0002878000703D5206840F460402060206833
:101AD000A96820F0F000084320602878C0072DD0C6
:101AE000304968680839012812D0022813D0032829
:101AF00011D00968890700292DDA216821F0030136
:101B000001432160FEF7DCFE814641F2883A0EE097
:101B100009688903EFE709688901ECE7FEF7D0FE61
:101B2000A0EB0901514502D90320BDE8F0872068E8
:101B3000696800F00C00B0EB810FEFD1D8F800100D
:101B4000404601F00F01B14207D90770006800F06C
:101B50000F00B04201D00120E7E72878400705D503
:101B60002068E96820F4E0500843206028780007E6
:101B700006D52068296920F4604040EAC100206051
:101B800000F02CF82168084AC1F30311515CC840E9
:101B9000064908600020FFF74DF90020C5E7000066
:101BA000003C024008380240E04600086000002087
:101BB00001480068704700006000002004480549A3
:101BC00000680968044AC1F38221515CC84070472B
:101BD0006000002008380240F0460008154810B5A3
:101BE000006810F00C02144813D04110042A0FD0E2
:101BF000082A0ED10F4C241F2268236802F03F02EE
:101C00005B0207D52068C0F38810A0FB010106E045
:101C1000084610BD2168C1F38811A1FB0001002313
:101C2000FEF7CEFA2168C1F30141491C4900B0FB1F
:101C3000F1F010BD083802400024F4002DE9F84FFF
:101C4000050076D02878DFF8F8B2BE4CC00749D03E
:101C5000DBF800105846C1F38101012908D0006863
:101C6000C0F3810002280AD1201D0068400206D579
:101C70002068800336D568680028E2D032E06868C2
:101C8000B0F5803F10D0B0F5A02F206810D020F420
:101C900080302060206820F4802020606868A0B137
:101CA000FEF70EFE06460CE0206840F48030F4E7B4
:101CB00040F480202060F7E7FEF702FE801B6428D6
:101CC00073D820688003F7D50CE0FEF7F9FD0646CF
:101CD00005E000BFFEF7F4FD801B6428F0D8206803
:101CE0008003F7D42878DFF8608280074FF000097E
:101CF0003ED5DBF80010584611F00C0F09D00068F3
:101D0000C0F3810002280BD18D48001F00684002FB
:101D100006D42068800715D5E868012809D111E0AC
:101D2000E868B8B10120C8F80000FEF7C9FD064612
:101D300005E002E1FEF7C4FD801B0228C0D8206840
:101D40008007F7D52068296920F0F80040EAC10033
:101D500020600DE0C8F80090FEF7B2FD064604E0F2
:101D6000FEF7AEFD801B02281FD820688007F7D43D
:101D70002878000722D5724E744869696C3671B1B3
:101D800001210160FEF79CFD074604E0FEF798FD87
:101D9000C01B022809D830688007F7D50EE0C0F8CC
:101DA0000090FEF78DFD074605E083E0FEF788FD15
:101DB000C01B02287ED830688007F7D428784007F7
:101DC00068D5DFF87CA100270AF1380ADAF80000AC
:101DD000C0000BD4DAF8001041F08051CAF80010AE
:101DE000DAF80000012700F080500090584E30686B
:101DF000C00510D4306840F480703060FEF760FD9C
:101E0000009005E0FEF75CFD0099401A022851D8C9
:101E10003068C005F6D54A4EA868683601280FD04C
:101E20000528306810D020F001003060306820F0C4
:101E300004003060A868B8B1FEF742FD00900FE0E2
:101E4000306840F00100F4E740F004003060F7E74C
:101E5000FEF736FD0099411A41F28830814264D87C
:101E600030688007F4D50EE0FEF72AFD009007E009
:101E7000FEF726FD0099411A41F28830814254D87C
:101E800030688007F4D42FB1DAF8001021F08051C7
:101E9000CAF80010A869C0B3DBF80010C1F38101D3
:101EA00002294AD00228484607D0C8F86000FEF749
:101EB00007FD00E039E005463AE04746C8F8600013
:101EC000FEF7FEFC064604E0FEF7FAFC801B022843
:101ED0002BD820688001F7D4D5E907010843A96A07
:101EE0001C4A490802EB01416A6A41EA821108432F
:101EF00095F82C1040EA01611148001F0160012093
:101F00003866FEF7DDFC054605E014E0FEF7D8FC78
:101F1000401B022809D820688001F7D50BE000BFDC
:101F2000FEF7CEFC401B022802D90320BDE8F88F43
:101F300020688001F4D40020F8E70120F6E70000D3
:101F4000083802400038024000004742800E4742F5
:101F5000007000400000FFFF10B5040011D0022007
:101F600084F851002068016821F04001016020469A
:101F700000F04CF80020606584F8510084F85000AF
:101F800010BD012010BD90F85100704770B50400DD
:101F900005D00025A56294F8510010B106E001209B
:101FA00070BD84F85050204600F044F8022084F8B8
:101FB00051002068016821F040010160D4E901016D
:101FC0000843D4E903121143084361690843218B94
:101FD00001F400710843E1690843216A0843A16ADA
:101FE000084321680860A069042101EA1040616A81
:101FF0000843216848602068C16921F40061C1611B
:102000006565012084F85100002070BD0068064914
:10201000884208D10548016821F480510160E0211F
:102020000348FEF7CBBA7047003001404438024005
:102030000000024000B500680E4987B0884216D102
:102040000D480021026842F480520260006800F4EA
:1020500080500590E02000900220CDE9010103208E
:1020600003900520049069460448FEF74BFB07B037
:1020700000BD000000300140443802400000024032
:102080002DE9F84F044690F8500000260A9F9A4622
:1020900093460D464FF0010801280ED0012084F828
:1020A0005000FEF70DFC814694F85100616801284C
:1020B0000CD0B1F5827F07D102E00220BDE8F88F95
:1020C000A16809B9042801D00226BDE055B1BBF1D1
:1020D000000F07D0BAF1000F04D094F85100012886
:1020E00002D004E00126AFE0052084F85100002072
:1020F0006065C4F838B0A4F83EA0A4F83CA02563FD
:10210000A4F836A0A4F834A02064606420680168B4
:10211000490603D4016841F040010160E068B0F570
:10212000006F606804D0E8B3E08E01283BD06AE01D
:1021300010B1E08E01282ED1216835F8020BC8605D
:10214000E08E401EE08626E0B8F1000F0DD0E08E54
:1021500058B120688168890707D535F8021BC1602E
:10216000E08E401EE0864FF00008E08F58B12068F6
:102170008168C90707D0C0682BF8020BE08F401EAA
:10218000E0874FF00108781C05D0FEF799FBA0EB23
:102190000900B84246D2E08E0028D5D1E08F002851
:1021A000D2D136E0FFE7216815F8010B0873E08E05
:1021B000401EE08627E000BFB8F1000F0DD0E08E92
:1021C00058B120688168890707D515F8011B01738C
:1021D000E08E401EE0864FF00008E08F58B1206886
:1021E0008168C90707D0C0680BF8010BE08F401E5B
:1021F000E0874FF00108781C05D0FEF761FBA0EBEB
:102200000900B8420ED2E08E0028D5D1E08F002818
:10221000D2D13B46012202212046CDF8009000F0A9
:10222000F5FC08B103260FE04A463946204600F087
:10223000DDFC18B101262020606505E0A06818B912
:102240002068C16880680090012084F85100002057
:1022500084F85000304631E74FF0E0210428086947
:1022600003D020F004000861704740F00400FAE752
:10227000704710B5401EB0F1807F01D3012010BD22
:102280004FF0E02460610F21601700F055FC002042
:10229000A06107202061002010BD10B5FFF7E8FF06
:1022A00010BD00002DE9F041C26A01261346046802
:1022B000921C39B11B491C4D4FF040278C4217D15D
:1022C0002C4616E0E168C2621980418E491E4186A3
:1022D000418E00290AD101684A684FF69F731A405F
:1022E0004A601BE080F84160FEF78CFCBDE8F0819D
:1022F0003C46E468C2621C80428E521E4286428E78
:10230000002AF3D102688A4201D1294600E0394609
:10231000496821F0600100D03D466960418D002987
:10232000E0D0E3E7003800400034004070B5426A76
:102330000125941C0368446241B11B4912881B4C5F
:102340004FF040268B4216D1234615E01188D96004
:10235000418D491E4185418D00290BD101684A6894
:102360004FF65F731A404A6019E000BF80F8415091
:10237000FEF748FC70BD3346DA60428D521E42853E
:10238000428D002AF6D102688A4201D1214600E03E
:102390003146496821F0A00100D034466160418E89
:1023A0000029E3D070BD0000003800400034004038
:1023B000FEB5016804468868019094F84100012543
:1023C000042833D101984FF69F76C00716D048688D
:1023D000C043400612D4CA682046E16A8B1CE362FF
:1023E0000A80618E491E6186618E39B901684A682A
:1023F00032404A6080F84150FEF7F8FC01984006F0
:1024000014D520684168C94389060FD4416831401A
:1024100041602068C1688068009084F84150606C19
:1024200040F0020060642046FEF7EDFB94F84100A6
:10243000032834D101984FF65F76800718D52068BD
:102440004068C043000613D4616A20468A1C626259
:1024500022680988D160618D491E6185618D39B915
:1024600001684A6832404A6080F84150FEF7BFFC7C
:102470000198000713D520684168C94389060ED426
:1024800041683140416020688068009084F8415084
:10249000606C40F0040060642046FEF7B4FBFEBDB3
:1024A0000EB500208DF80000012239216846FDF7A5
:1024B0008FFF0622272101A8FDF78AFF0EBD1CB55C
:1024C00000208DF80000FDF739FF40208DF8040052
:1024D00010208DF8050020208DF8060001A800F0DE
:1024E00067F83F208DF80000012222216846FDF7A1
:1024F00097FF50208DF80000012238216846FDF733
:102500008FFFAA208DF8000001223B216846FDF7CD
:1025100087FF0A208DF8000001223C216846FDF764
:102520007FFF4C208DF80000012230216846FDF726
:1025300077FF03208DF8000001223D216846FDF75A
:102540006FFF7F248DF8004001223E216846FDF791
:1025500067FF8DF8004001223F216846FDF760FFCC
:102560001CBD704738B5044600208DF800000122DC
:1025700021216846FDF72CFF9DF80000012200F0A4
:10258000D00020438DF8000021216846FDF748FF68
:1025900038BD38B5044600208DF80000FDF7F4FE84
:1025A0008DF80040012220216846FDF739FF38BD33
:1025B00038B5044600208DF8000001223821684615
:1025C000FDF706FF2078617801220843A1780843CF
:1025D0008DF8000038216846FDF722FF38BD000065
:1025E00070B588B00646122500240122202106A8D5
:1025F000FDF7EEFE0622292103A8FDF7E9FE03A957
:102600000DF1040001EB440292F9002020F814209F
:10261000641CE4B2032CF5D39DF8181011F02001CE
:1026200002D0202903D101E0122500E04825002135
:1026300030F8112012FB05F226F81120491CC9B20E
:102640000329F5D308B070BD08B500208DF800004F
:10265000FDF79AFE01220F216846FDF7B9FE9DF8AD
:10266000000008BD08B5012221216846FDF7B0FE33
:102670009DF80000012240F040008DF8000021216B
:102680006846FDF7CDFE08BD3EB500248DF800403C
:10269000FDF754FE8DF805408DF8044040208DF87C
:1026A000060001258DF809508DF807408DF80A4085
:1026B00001A800F06AF803208DF8000001225221E1
:1026C0006846FDF7ADFEC8208DF8000001225421B8
:1026D0006846FDF7A5FE45208DF800000122562131
:1026E0006846FDF79DFEFC208DF8000001225A216E
:1026F0006846FDF795FEA1208DF8000001225B21C0
:102700006846FDF78DFE8DF8005001225C21684679
:10271000FDF786FE01227B216846FDF781FE01223E
:1027200060216846FDF77CFE06208DF8000001223E
:1027300061216846FDF774FE28208DF80000012213
:1027400062216846FDF76CFE11208DF80000012221
:1027500063216846FDF764FE3EBD704738B5044608
:1027600000208DF80000FDF70FFE8DF800400122DB
:1027700020216846FDF754FE200A8DF80000012252
:1027800024216846FDF74CFE38BD38B504460020CC
:102790008DF800006078217801220843A178084371
:1027A0008DF8000023216846FDF73AFEE078217994
:1027B000012208438DF8000021216846FDF730FE14
:1027C0006079A179012208438DF800002221684632
:1027D000FDF726FE38BD000070B506462DED028BD4
:1027E00084B000259FED2E8A0122242102A8FDF746
:1027F000EFFD012228216846FDF7EAFD6C46012223
:102800002921601CFDF7E4FD01222A21A01CFDF70F
:10281000DFFD01222B21E01CFDF7DAFD01222C2136
:10282000201DFDF7D5FD01222D21601DFDF7D0FDF6
:102830009DF8080000F0380010280CD003DC90B19F
:10284000082810D104E0182808D020280BD108E06F
:102850009FED148A07E09FED148A04E09FED138A30
:1028600001E09FED138A04EB450090F9001090F908
:10287000010001EB002000EE100AB8EEC00A20EEC5
:10288000080ABDEEC00A10EE100A26F815006D1CED
:10289000EDB2032DE7D304B0BDEC028B70BD000098
:1028A0008FC2753D8FC2F53DEC51383E8FC2753EEB
:1028B00048E13A3F08B500208DF80000FDF764FDBF
:1028C00001220F216846FDF783FD9DF8000008BD39
:1028D00008B5012225216846FDF77AFD9DF8000024
:1028E000012240F080008DF8000025216846FDF7A8
:1028F00097FD08BD2DE9F04F4E4887B000240168D0
:1029000041F010010160016801F0100105910168BA
:1029100041F004010160016801F0040105910168C2
:1029200041F080010160016801F0800105910168BA
:1029300041F001010160016801F0010105910168A8
:1029400041F002010160016801F002010591016896
:1029500041F0080101600068002200F008000590C5
:1029600008213548FDF7A6FFDFF8D08000220121BD
:102970004046FDF79FFFDFF8C8B04FF21009002274
:1029800049465846FDF796FF082601250096CDE9F1
:102990000154694628480394FDF7B4FE0095CDE93B
:1029A0000154694640460394FDF7ACFE00960226AA
:1029B000CDE901640527CDE9034769464046FDF7A7
:1029C000A1FEDFF880800095CDE9018469461E48AC
:1029D000FDF798FE0420CDE90004DFF870A06946F9
:1029E00050460294FDF78EFEA8020090CDE90164E6
:1029F000CDE9034769465046FDF784FECDF80090C7
:102A0000CDE90154694658460394FDF77BFE20202A
:102A1000CDE90004694658460294FDF773FE00961E
:102A2000CDE9018469460448FDF76CFE07B0BDE8B6
:102A3000F08F0000303802400010024000080240D1
:102A4000000C02400000111000000240000402408F
:102A50000B4810B5094901600A49416000214FF453
:102A600080428160C0E9031241618161C1610162FC
:102A7000FDF72CFF002800D0FEE710BD00540040F9
:102A80000C020020A08601000A490B4810B54A1527
:102A9000C0E9001200218160C0E90312074AC0E9C1
:102AA0000521C1610162FEF7AFF8002800D0FEE702
:102AB00010BD0000003C00406002002000770100D3
:102AC0000E4810B50C4901604FF48271416000213D
:102AD0008160C1604FF400720161C0E90512C161FB
:102AE0000162416281620A21C162FFF74FFA002848
:102AF00000D0FEE710BD000000300140A802002019
:102B000010B500220849094800F047FC0849074869
:102B100000F047FE0749054800F08DFABDE8104077
:102B2000024800F08BBE00001000002000030020CF
:102B300044010020440000200907090E002806DA9D
:102B400000F00F0000F1E02080F8141D704700F144
:102B5000E02080F8001470470148FEF73FBB0000FA
:102B6000240500202DE9F84F0F46C1EBC70100EB0B
:102B7000810582460668D5E91301441A286C383568
:102B8000A04200D20446E01C4FEA900806EB471929
:102B900016E0441AA868A04200D20446E01C4FEA9E
:102BA00090089AF810000090A3B2FAB23046E96893
:102BB00001F0F0FBE8682044E860A8692044A861BF
:102BC000D9F8180980B2404505D9D5E905018142F7
:102BD00001D20028DDD134B90120D6F83418B8402C
:102BE0008143C6F834180020BDE8F88F38B50B468D
:102BF000009204460022802100F008F8002804D04A
:102C0000606D40F020006065032038BD2DE9F04183
:102C10001D4617460E460446DDF8188035E0681C50
:102C200033D02DB1FDF74CFEA0EB0800A8422CD309
:102C30002068416821F0E00141606068B0F5827F62
:102C40000BD1A068B0F5004F02D0B0F5806F04D171
:102C50002068016821F040010160A06AB0F5005FC2
:102C60000AD1206801684DF6FF72114001602068AA
:102C7000016841F400510160012084F851000020F6
:102C800084F850000320BDE8F0812068806836EAAF
:102C9000000004D00020B842C1D10020F3E7012099
:102CA000F9E7000000B587B02048FFF76CF900286D
:102CB0003AD11E481E4901601821C161002181607E
:102CC000416107220161C0E90A12C1604FF400723C
:102CD0000162826141624FF482714160154801686E
:102CE00041F480510160006800F480500590114863
:102CF0001438016841F0010101600068694600F084
:102D000001000590E0200090022001900290012037
:102D10000390052004900848FDF7F4FC07B0034831
:102D20005DF804EBFFF732B907B000BD141B0020BB
:102D300000300140443802400000024001B582B03A
:102D400000208DF804000948012301AA8068009042
:102D500002A90748FFF794F920B10548FFF7FCF8EE
:102D6000FFF7A0FF9DF804000EBD0000E401002065
:102D7000141B002000B50D49C1B0D1F81812496DDF
:102D8000002911D1B0F904100091B0F90230B0F966
:102D9000002007A101A801F013FB01A8FDF753FAD9
:102DA000014601A8FDF7E4FB41B000BD000300208F
:102DB000477972202D3E204759525F583A202564AA
:102DC0002C204759525F593A2025642C20475952EC
:102DD0005F5A3A2025640A0010B5FEF709F8BDE8ED
:102DE0001040FFF75ABA000070B52A4896B0002587
:102DF000016841F080510160006800F0805015903A
:102E00002548016841F4804101600068012600F412
:102E1000804015903004CDE9006002248001CDE9A6
:102E20000640082008904FF4A870CDE90904072057
:102E30000B906846FEF702FF00B1FEE70CA90F20D9
:102E400081E831004FF4A0500F904FF48050109063
:102E500005210CA8FEF714FE00B1FEE7C020CDE965
:102E60001204119611A8FEF76DFD00B1FEE7FEF702
:102E70009FFE4FF47A71B0FBF1F0FFF7FAF90420EE
:102E8000FFF7EAF900221146501EFEF741F816B08E
:102E900070BD0000403802400070004010480168DA
:102EA00041F4700101600F48016841F001010160C7
:102EB0000C4A00210832116002680B4B1A40026074
:102EC000031D0A4A1A60026822F480220260054843
:102ED0000C300160024958068039086070470000D4
:102EE00088ED00E000380240FFFFF6FE10300024BD
:102EF000D0F8180218B10021416508467047022039
:102F0000704770B50546D0F8184200F012FBE06437
:102F1000D5F8180240B1D5F81C12606CCA6804F1EB
:102F20004C019047002070BD022070BD70B5044672
:102F30000025812100F056FA0121204600F052FAC6
:102F40008221204600F04EFAD4F8180250B1D4F88D
:102F50001C0204F5067440688047206801F004FBF9
:102F600000202060284670BD10B5D0E9864159B1D7
:102F700094F84000FF2807D08B6894F84120214640
:102F80009847FF2084F84000002010BD0A210180EE
:102F9000004870476C0000204321018000487047C2
:102FA000BC000020432101800048704778000020C9
:102FB00043210180004870470001002070B505469C
:102FC000007C0026402302228121284600F008FBD5
:102FD000402302220121284600F002FB082303229D
:102FE0008221284600F0FCFA5C2001F043FBC5F882
:102FF000180280B10446D5F81C0200688047002002
:103000006065A065287C402301212846626C00F0A1
:10301000FAFA304670BD0126FBE710B5D0F8181259
:1030200039B1027C4A6C4023012100F0ECFA002007
:1030300010BD022010BD02460220002902D000204F
:10304000C2F81C127047D0F8180241640020704783
:10305000D0F81802026581640020704770B50646FA
:10306000D0F8185208780C4610F0600121D02029C1
:1030700027D1E288AAB10006607807D5D6F81C12DD
:103080008B6829469847E288294617E085F8400072
:10309000A07985F84100E2882946304600F04DF8D5
:1030A0000FE0D6F81C12607800228B682146984702
:1030B00007E060780A2804D103490122304600F075
:1030C00056F8002070BD00006800002010B5D0F850
:1030D000181271B14A6D0AB1012010BD01224A6572
:1030E000B1F8502093B28A6C812100F036FB0020A9
:1030F00010BD022010BD10B5D0F8142252689047C0
:10310000002010BD134610B50A46002100F07BFADE
:10311000002010BD134610B50A46002100F01DFB2B
:10312000002010BD10B50446802100F0EDFA2046C5
:10313000BDE81040002100F0E7BA10B50323C0F845
:103140000821C0F8F431C0F80C2113460A460021CA
:1031500000F059FA002010BD10B505210023C0F879
:10316000F4111A46194600F04EFA002010BD10B5B1
:1031700002238261C0F8F431C26113460A4600217D
:1031800000F0EBFA002010BD10B504210023C0F8B8
:10319000F4111A46194600F0E0FA002010BD0000B4
:1031A00010B50A46024903A000F0D4F8004810BD4B
:1031B0001409002043444320436F6E666967000092
:1031C00012200880004870473000002010B50A46E1
:1031D000024903A000F0BEF8004810BD1409002009
:1031E00043444320496E7465726661636500000064
:1031F00004200880004870472C00002010B50A46C3
:10320000024903A000F0A6F8004810BD14090020F0
:1032100053544D6963726F656C656374726F6E6948
:103220006373000010B50A46024903A000F092F84B
:10323000004810BD1409002053544D333220566904
:10324000727475616C20436F6D506F727400000072
:1032500010B50A46024903A000F07CF8004810BDF2
:1032600014090020303030303030303030303141CF
:1032700000000000F8B5044648880D46010A0829F8
:103280004BD2DFE801F04A0409174A4A4048D4F813
:103290001012207C0A6832E0207C02260028D4F834
:1032A000140205D0C16A684688470146467041E06D
:1032B000816AF8E7C0B206282FD2DFE800F00308E1
:1032C0000D12171CD4F81012207C4A6817E0D4F8AD
:1032D0001012207C8A6812E0D4F81012207CCA6890
:1032E0000DE0D4F81012207C0A6908E0D4F810121E
:1032F000207C4A6903E0D4F81012207C8A69694670
:103300009047014616E0207C38B9D4F81402416B8E
:1033100068468847F5E7207C20B129462046FFF71C
:1033200001FFF8BDD4F81402016B684688470146D6
:1033300007204870BDF800000028F2D0EA88002A73
:10334000EFD0824200D90246ADF800202046FFF7B8
:103350000EFFF8BD70B5002300281DD004460025DF
:1033600002E06D1CEDB2641C2678002EF9D1022417
:1033700004EB45041480CC545B1C0322CA54002483
:103380005B1C06E0CA545B1CDAB28C54521CD3B2EC
:10339000401C0278002AF5D170BD10B580B1D0F87C
:1033A000143213B10023C0F8143209B1C0F810125E
:1033B000012180F8FC11027000F0C0F8002010BD5F
:1033C000022010BD10B50024D0F82002FDF735FE14
:1033D00030B1012801D0022801D0022400E00124EC
:1033E000204610BD10B50024D0F82002FDF703FEE2
:1033F00030B1012801D0022801D0022400E00124CC
:10340000204610BD2DE9F0411746044641B1D4F8DD
:10341000140242698AB394F8FC01032842D043E0C5
:10342000D4F8F411002504F11400022933D1D0E9B5
:1034300002639E4207D9F31A83609AB23946204646
:10344000FFF768FE12E04068B0FBF3F103FB1101E7
:10345000A1B9984212D3D4F8F81188420ED20022B2
:1034600011462046FFF756FEC4F8F85100231A46CD
:103470001946204600F0C7F80DE012E0D4F8140217
:10348000C16829B194F8FC01032801D1204688477E
:103490002046FFF761FE94F80002012804D184F869
:1034A000005201E0204690470020BDE8F08170B551
:1034B0001546044641B1D4F8140282693AB394F82F
:1034C000FC01032824D025E0D4F8F41104F582701F
:1034D00003291FD1D0E902218A420BD9531A8360F4
:1034E0000846834200D303469AB229462046FFF796
:1034F00009FE0FE0D4F81402016929B194F8FC0127
:10350000032801D1204688472046FFF73DFE01E011
:1035100020469047002070BD0020704710B5012163
:1035200080F8FC11D0F814220179526890470020ED
:1035300010BDD0F82002FDF7A8BD000010B501783D
:1035400059BB17490222C1F8EC03C0F820124FF012
:10355000A0400860042048600020C1E90320C1E9C0
:103560000502C86108624862C86208630846FEF73F
:10357000B7F820B14FF4AD710AA000F01FFF802111
:103580000748FDF7F7FC402200210548FDF7F6FC4F
:10359000802201210248FDF7F1FC002010BD00004F
:1035A000240500202E2E2F5372632F757362645FE3
:1035B000636F6E662E6300000A0601F07F01D0F88B
:1035C0002002C1EBC10100EB810002D590F83A0066
:1035D000704790F8FA01704700207047002070474C
:1035E00070B51D4613460024D0F820022A46FDF788
:1035F00056FD30B1012801D0022801D0022400E09C
:103600000124204670BD10B50024D0F82002FDF73B
:1036100070FD30B1012801D0022801D0022400E061
:103620000124204610BD70B50022044640231146F7
:10363000FFF7D6FF40252B46002280212046C4F804
:103640001051FFF7CDFF0120256284F8FC01D4F86A
:10365000180228B1D4F81402217942682046904714
:10366000002070BD90F8FD1180F8FC11002070471B
:1036700010B590F8FC11032904D1D0F81412C969CF
:1036800001B18847002010BD01740020704710B5BB
:103690000024D0F82002FEF7E1F830B1012801D073
:1036A000022801D0022400E00124204610BD70B59C
:1036B000044600F50270054600F05FF80120C4F8EA
:1036C000F401B4F80E02C4F8F80194F8080210F0FE
:1036D0001F010AD001290DD0022910D000F080016D
:1036E000204600F011F8002070BD2946204600F069
:1036F000AAF8F8E72946204600F08CF9F3E72946B6
:10370000204600F019F9EEE710B50024D0F82002A9
:10371000FDF713FD30B1012801D0022801D00224A9
:1037200000E00124204610BD10B50024D0F820028E
:10373000FEF7ADF830B1012801D0022801D00224F3
:1037400000E00124204610BD90F8FC1180F8FD1126
:10375000042180F8FC110020704710B50024D0F837
:103760002002FDF71AFD30B1012801D0022801D056
:10377000022400E00124204610BD0A7802704A7835
:1037800042708A78CB7802EB032242800A794B7927
:1037900002EB032282808A79C97902EB0121C18080
:1037A00070470246002011B1C2F81412704702207F
:1037B000704710B5D0F8142202241AB1126890474D
:1037C00000B90024204610BD70B50E461A4D897808
:1037D00004462970012928D894F8FC01022802D057
:1037E000032822D105E099B10320616084F8FC012F
:1037F00009E091B1606888420AD0C1B22046FFF763
:103800007AFC297861602046FFF7D3FF02280CD0AC
:103810002046BDE87040FFF7B7BC022084F8FC01E9
:1038200020466160FFF767FCF2E731462046BDE8BD
:103830007040FFF777BC00006400002010B5FFF770
:1038400073FF002010BD2DE9F04100264B780125C3
:1038500032460A2B43D2DFE803F03C58425142087B
:1038600005422A27FFF706FD63E004468888C8B9A9
:10387000C888B8B9887800F07F0794F8FC0103285D
:1038800010D084F8FE7139462046FFF700FF20462D
:10389000FFF77AFC1FB1022084F8FC0149E084F8AC
:1038A000FC5146E020461AE0FFF78EFF41E0CB884E
:1038B000012B14D190F8FC31022B02D0032B0ED136
:1038C00004E08260012200F1080114E00122011DE0
:1038D00011E090F8FC21022A04D0032A02D0FFF75D
:1038E00021FC26E0C560D0F8041209B10321C160B3
:1038F000022200F10C01FFF73AFC1AE00446488866
:10390000012816D1C4F804520BE0044690F8FC01DB
:10391000022801D00328C5D14888012809D1C4F85C
:103920000422D4F814028268204690472046FFF70C
:103930002BFC3046BDE8F08170B50D460446287872
:1039400000260979C0F34110012806D06878A0B399
:1039500001281FD003283FD107E0D4F814022946DC
:10396000826820469047002070BD94F8FC01022830
:1039700017D003282CD1688828B921B1802902D01A
:103980002046FFF7C1FED4F814022946826820467B
:10399000904713E094F8FC01022802D0032817D1C5
:1039A00003E0C9B180291BD116E06888A0B9480698
:1039B00004D02046FFF706FDE5E703E02046FFF7C9
:1039C000E3FB09E094F8FC01022807D003280BD0A0
:1039D00029462046FFF7A6FB304670BD4806FBD0BF
:1039E0002046FFF791FEF7E7080601F07F0004EBA1
:1039F000001501D5143501E005F582752046FFF765
:103A0000DBFD00B101202860022229462046FFF795
:103A1000AEFBE1E770B5054690F8FC010C460328C3
:103A20000DD1207901280AD8D5F8140282682846D9
:103A30009047E08830B92846FFF7A6FB02E0284609
:103A4000FFF770FB002070BD30B54C781D4B012294
:103A50000D78AA40012CD0F81C4818D044EA024244
:103A6000C0F81C280A7800EB4210D0F8002B120492
:103A70000BD4D0F8002B0C89C4F30A042243C97874
:103A800043EA81410A43C0F8002B002030BD92B2C6
:103A90001443C0F81C480C7800EB4410D0F80029FF
:103AA0001204F2D4D0F800290D89C5F30A052A437F
:103AB000C978890441EA84510A431A43C0F80029AD
:103AC000E3E7000000800010D0F800196FF30A014E
:103AD000C0F80019D0F80818C1F34101022905D136
:103AE000D0F8001941F00301C0F80019D0F804180B
:103AF00041F48071C0F804180020704770B5044686
:103B0000049D06990D9801290CD0E06840F0400012
:103B1000E060204600F028F84FF48030A063012DCB
:103B200016D01DE0A16B21F48031A163E1680D4A3C
:103B30001140E160E16821F44011E160012803D106
:103B4000E06840F48010E060204600F00DF8E6E701
:103B5000A06840F00600A060A06840F02000A060CF
:103B6000002070BDBFFFBDFF01220C4902E0521CC6
:103B70008A420BD80369002BF9DA026942F001028C
:103B80000261012204E0521C8A4201D903207047DD
:103B90000369DB07F7D1002070470000400D0300E8
:103BA000F0B50D4604464F780126F206D3002D49A4
:103BB000287804EB4010012F14D0D0F8007B27F4B4
:103BC0000047C0F8007B287804EB4010C0F8002BB9
:103BD000287804EB4010C0F8003B01202A7804EB61
:103BE00042122BE0D0F8007927F40047C0F80079A2
:103BF000287804EB4010C0F80029287804EB401026
:103C0000C0F8003901202A7804EB421202E0401C7F
:103C1000884211D8D2F808395B00F8D41021204628
:103C200000F024FBD4F81C0829788E40B1B28843F8
:103C300014E0401C884201D90320F0BDD2F8083BB3
:103C4000DB06F6D4D4F8040840F48060C4F8040815
:103C5000D4F81C0829788E4020EA0640C4F81C08D5
:103C60000020F0BD400D030010B5D0F8041821F07D
:103C70000201C0F804180320FCF78EFC002010BDE0
:103C800010B5D0F8041841F00201C0F80418032060
:103C9000FCF782FC002010BD2DE9F0470E460446DB
:103CA000DDE90A0A0025DDF83C80089F5FEA08018B
:103CB000A16B11D041F40021A1634FF00009C4F8B9
:103CC000009ED4F80018C4F80018012807D0D4F8D2
:103CD000000840F0030007E041F40011ECE7D4F8DD
:103CE00000080BB140F00100C4F800081021204684
:103CF00000F0BCFA204600F0A9FA4846C4F8109833
:103D0000C4F814984FF0FF31C4F81818C4F81C9880
:103D10004FF0904CFF230FE004EB4511D1F8002940
:103D2000002A02DAC1F800C901E0C1F80009C1F8AF
:103D30001009C1F808396D1CAE42EDD800210FE022
:103D400004EB4112D2F8005B002D02DAC2F800CB7E
:103D500001E0C2F8000BC2F8100BC2F8083B491C86
:103D60008E42EDD8D4F8101821F48071C4F81018E0
:103D7000012F0AD11449C4F83018D4F83018134A66
:103D80001143C4F83018D4F83018A0616FF08040A7
:103D900060611FB9A06940F01000A061A0690C49E2
:103DA0000843A061BAF1000F03D0A06940F00800F9
:103DB000A061B8F1010F03D1A06906490843A061D1
:103DC0000020BDE8F0870000000180000300010032
:103DD00000383C8004000040816821F001018160CE
:103DE0000020704730B54D784D4C0B7800EB4313F5
:103DF000012D28D0D3F8105B6FF31205C3F8105BC8
:103E00000B7800EB4313D3F8105B2540C3F8105B2D
:103E10004B690BB18B684B610B7800EB4313D3F804
:103E2000104B44F40024C3F8104B0B7800EB431301
:103E3000D3F8104B8D68C5F312052C43C3F8104B13
:103E4000012A5CD061E04D69002DD3F810593BD0B8
:103E50006FF31205C3F810590B7800EB4313D3F836
:103E600010592540C3F810594C698B689C4200D901
:103E70004B610B7800EB4313D3F8104944F4002452
:103E8000C3F810490B7800EB4313D3F810494D6980
:103E9000C5F3120554EA0504C3F810490B7800EB8A
:103EA0004313D3F8004944F00444C3F80049012AFD
:103EB0001ED04A6912B3D0F834280B7801219940FA
:103EC0000A43C0F8342829E02540C3F810590B787C
:103ED00000EB4313D3F8104944F40024C3F810490D
:103EE0000B7800EB4313D3F810496FF31204D3E7B8
:103EF0000A69097800EB4110C0F814290EE00B782C
:103F000000EB4313CA68C3F8142B097800EB411087
:103F1000D0F8001B41F00441C0F8001B002030BD68
:103F2000FFFF07E00023C0F8103BD0F8103B43F43C
:103F30000023C0F8103BD0F8103B43F01803C0F842
:103F4000103BD0F8103B43F0C043C0F8103B0129B0
:103F500005D1C0F8142B4FF08021C0F8001B0020C1
:103F600070474B780A7800EB4212012B0BD0D2F845
:103F7000003B23F40013C2F8003BCA78032A17D091
:103F8000022A15D01DE0D2F8003923F40013C2F83C
:103F90000039CA78032A01D0022A12D1097800EB2D
:103FA0004110D0F8001941F08051C0F8001908E024
:103FB000097800EB4110D0F8001B41F08051C0F8A7
:103FC000001B002070474B780A7800EB4212012B4F
:103FD00014D0D2F8003B002B05DBD2F8003B23F0D5
:103FE0008043C2F8003B097800EB4110D0F8001B79
:103FF00041F40011C0F8001B00207047D2F80039CE
:10400000002B05DBD2F8003923F08043C2F80039D9
:10401000097800EB4110D0F8001941F40011C0F804
:104020000019E9E778B54E786FF06045834C0B785E
:1040300000EB4313012E2FD0D3F8106B6FF3120651
:10404000C3F8106B0B7800EB4313D3F8106B2640CA
:10405000C3F8106B4B69002B7DD08C6823445B1E2A
:10406000B3FBF4F39BB20C7800EB4414D4F8106B60
:1040700005EAC3452E43C4F8106B0C7800EB4414DA
:10408000D4F8105B8E685E43C6F312031D43C4F878
:10409000105B012A73D0B2E04E6966B3D3F81069A1
:1040A0006FF31206C3F810690B7800EB4313D3F8D3
:1040B00010692640C3F810694C698B681C44641E63
:1040C000B4FBF3F305EAC3440B7800EB4313D3F8D6
:1040D00010592C43C3F810490B7800EB4313D3F865
:1040E00010494D69C5F312052C43C3F81049CB782C
:1040F000012B16D027E0D3F810592540C3F81059EA
:104100000B7800EB4313D3F8104944F40024C3F8B0
:1041100010490B7800EB4313D3F810496FF31204E6
:104120000FE00B7800EB4313D3F8104924F0C044A0
:10413000C3F810490B7800EB4313D3F8104944F04F
:104140000054C3F81049012A12D0CB78012B17D0A4
:104150004B692BB300E037E0D0F834380D780124F8
:10416000AC402343C0F83438CB78012B08D017E09B
:104170000C7800EB44140B69C4F81439F4E738E008
:10418000D0F80838DB050B7800EB4313D3F800496F
:1041900002D444F0005401E044F08054C3F80049D4
:1041A0000B7800EB4313D3F8004944F00444C3F800
:1041B0000049CB78012B3ED100928A8A93B20A78CB
:1041C000C96800F0E7F836E00B7800EB4313D3F84A
:1041D000104B8D68C5F312052C43C3F8104B0B78B8
:1041E00000EB4313D3F8104B44F40024C3F8104BF6
:1041F0004FE70B7800EB4313CA68C3F8142BCA7857
:10420000012A0FD1D0F80828D2050A7800EB421213
:10421000D2F8003B02D443F0005301E043F0805356
:10422000C2F8003B097800EB4110D0F8001B41F0C8
:104230000441C0F8001B002078BD0000FFFF07E02C
:10424000816841F001018160002070470021102247
:104250000261054A491C914201D903207047036954
:10426000DB06F7D400207047400D03000022202316
:1042700043EA811101610549521C8A4201D9032098
:10428000704703699B06F7D400207047400D030078
:104290000021D0F8082812F0060F15D0D0F8082811
:1042A000C2F34102012A0CD0D0F80828C2F341021F
:1042B000032A06D0D0F80808C0F34100022802D033
:1042C00002E0032100E0022108467047406900F047
:1042D00001007047D0F81818D0F81C08084080B2C8
:1042E0007047D0F81818D0F81C080840000C704728
:1042F000D0F81038D0F83428CA4002F0010243EA5E
:10430000C21200EB4110D0F808091040704700EBD2
:104310004111D1F8081BD0F81408084070474169D2
:1043200080690840704710B503460020D21C9208EF
:1043300003F5805303E01C6841F8044B401C904295
:10434000F9D3084610BD10B5C26822F0C042C26061
:10435000012901D021B107E0C16841F0005102E01C
:10436000C16841F08041C1603220FCF715F900209E
:1043700010BDD0F8002822F4FE62C0F80028D0F862
:1043800000284FF4FE6303EA01110A43C0F8002835
:104390000020704730B50024039D6DB9DB1C9B08DD
:1043A00000EB023000F5805004E000BF51F8042B10
:1043B0000260641C9C42F9D3002030BDFEE700007F
:1043C0000FB4084B10B504A902AA039800F01CF81A
:1043D000044602A9002000F0C1F8204610BC5DF898
:1043E00014FB00005D45000802E008C8121F08C168
:1043F000002AFAD170477047002001E001C1121F66
:10440000002AFBD1704700002DE9FF4F89B09B4681
:104410000446002506E025280BD05A460B99904704
:10442000641C6D1C20780028F5D10DB02846BDE82D
:10443000F08F0027B8460122474900E0074314F8EF
:10444000013F203B02FA03F00842F7D120782E28E2
:1044500019D114F8010F47F004072A280ED06FF085
:104460002F022078A0F1300109290CD808EB88012F
:1044700002EB410100EB0108641CF2E70A98641C9E
:1044800050F8048B0A9020780028CED0642808D0F9
:10449000692806D075281ED05A460B9990476D1C86
:1044A00058E00A994FF00A0901C90A91002802DA76
:1044B00040422D2102E0390504D52B218DF8201032
:1044C000012103E0F90704D02021F7E78A4608AE6E
:1044D0000DE00021FAE70A994FF00A0901C90A9193
:1044E000F7E74946FBF7B6FE303106F8011D002814
:1044F000F7D1ADEB060000F12009780701D44FF0A9
:104500000108C84502DDA8EB090000E00020804654
:10451000002706E008A85A46C05D0B9990476D1C1D
:104520007F1C5745F6DB04E030205A460B99904734
:104530006D1CB8F10001A8F10108F5DC05E016F8E2
:10454000010B5A460B9990476D1CB9F10001A9F176
:104550000109F4DC641C65E7092801000A68531CA2
:104560000B6010707047000010B5002821D0114B6F
:104570000022001F196803E0814203D80A464968F7
:104580000029F9D152B11368841A9C4204D1006801
:1045900018441060104602E0506000E0186039B125
:1045A00002680B1A934203D10B681A4402604968EF
:1045B000416010BD04020020FCF722FCFEF714FC51
:1045C000FEF798F9FEF744FAFEF75EFAFEF778FA7E
:1045D000FEF796FAFBF76AFF254C00B1FEE7244D83
:1045E000083523480830FBF73FFFFA20FBF7D4FFDC
:1045F0001F480830FEF7BEFBB5F90010E180B5F9A1
:104600000200A080002901DA4A4200E00A460028A0
:1046100001DA434200E003469A420DDDB4F900009E
:10462000814201DD022004E0B4F9020081420FDA88
:104630000020FBF76DFF0BE0B4F90210884201DAAD
:104640000320F6E7B4F90010884201DD0120F0E70D
:10465000FA20FBF7A1FF0120FBF74CFF0020FBF73E
:1046600049FF0220FBF746FF0320FBF743FFB8E7B3
:1046700000000020F0B50B30154D20F0070100249C
:10468000144A0FE003688B420BD38B4205D95E1AA4
:1046900043184768C3E9006700E04368136002C03D
:1046A00004E0021D10680028ECD12046002802D149
:1046B000286808B10020F0BD064A07481060074A84
:1046C000121A22F00702C0E9002401202860D7E76F
:1046D0000802002004020020C41B0020C01D00208E
:1046E00000000000000000000102030406070809A2
:1046F0000000000001020304060001000010002079
:104700000040008024470008000000200C02000048
:10471000E4020008204800080C020020B41F00003A
:10472000F843000812C8C338FF13C1311B08F10455
:104730001AFD041325321B0851041AA10C1ACD04CA
:1047400017040309041201140202021640830440F4
:10475000572602010203011335051B0831041A2DE7
:10476000041A590419131182109324F4130A0632FF
:10477000022A40201C0902433F1125C03209041BB4
:1047800001020B1305241610010524011009010470
:10479000240202052406170107058203081C1009DC
:1047A0000475320A2E0705010240072A81070944D1
:1047B000442A07440A2204440A16FF441BBD2FFC66
:1047C0001904135D3042081A690C13F12E1B0803FB
:1047D00008C11AA5101A99041AB1041A8D0413936A
:1047E000251B0863041349261B086504CBBF24302E
:1047F000411AA1141A6524411AE108135D271B0808
:104800005B0413B5281B08D1041A8938011C1AD976
:104810002C2119A7321029041A0C0CA904B100008C
:040000050800018965
:00000001FF
