:020000040800F2
:10000000C0210020AD010008B5010008B7010008BB
:10001000B9010008BB010008BD0100080000000094
:10002000000000000000000000000000BF01000808
:10003000C101000800000000C3010008C527000836
:10004000C7010008C7010008C7010008C701000870
:10005000C7010008C7010008C7010008C701000860
:10006000C7010008C7010008C7010008C701000850
:10007000C7010008C7010008C7010008C701000840
:10008000C7010008C7010008C70100080000000000
:10009000000000000000000000000000C701000890
:1000A000C7010008C7010008C7010008C701000810
:1000B000C7010008C7010008C7010008C701000800
:1000C000C7010008C7010008C7010008C7010008F0
:1000D000C7010008C7010008C701000800000000B0
:1000E000C7010008C7010008C701000800000000A0
:1000F000000000000000000000000000C701000830
:1001000000000000C7010008C7010008C70100087F
:1001100000000000000000000000000000000000DF
:10012000C7010008C7010008C7010008C70100088F
:10013000C7010008000000000000000000000000EF
:10014000000000000000000000000000A9250008D9
:10015000C7010008C7010008C7010008C70100085F
:10016000C7010008C70100080000000000000000EF
:10017000000000000000000000000000000000007F
:1001800000000000C701000800000000000000009F
:10019000C7010008C7010008DFF80CD000F07AF8AA
:1001A000004800478D410008C021002006488047D4
:1001B00006480047FEE7FEE7FEE7FEE7FEE7FEE74C
:1001C000FEE7FEE7FEE7FEE7892800089901000840
:1001D0002DE9F05F0546002092469B46884606467C
:1001E000814640241BE0284641464746224600F00F
:1001F00041F853465A46C01A914110D31146184649
:10020000224600F028F82D1A67EB01084F462246D7
:100210000120002100F01FF817EB00094E41201EBD
:10022000A4F10104DFDC484631462A464346BDE8D6
:10023000F09F40EA01039B0703D009E008C9121FA1
:1002400008C0042AFAD203E011F8013B00F8013B90
:10025000521EF9D27047202A04DB203A00FA02F13C
:10026000002070479140C2F1200320FA03F31943A4
:1002700090407047202A04DB203A21FA02F0002146
:10028000704721FA02F3D040C2F1200291400843A6
:1002900019467047064C074D06E0E06840F0010340
:1002A00094E8070098471034AC42F6D3FFF778FF84
:1002B000104300083043000870B58C1810F8015B3B
:1002C00015F0070301D110F8013B2A1106D110F8EF
:1002D000012B03E010F8016B01F8016B5B1EF9D1F3
:1002E0002B0705D40023521E0DD401F8013BFAE779
:1002F00010F8013BCB1A921C03E013F8015B01F8E4
:10030000015B521EF9D5A142D8D3002070BD000078
:100310000F4800B5026887B0002142F01002026069
:1003200000680C4A00F0100005900220CDE9021090
:10033000CDE900026946084800F09EF900220F212D
:10034000072000F0A3FB072000F094FB07B000BDDE
:100350003038024000001110001002400F4810B564
:10036000026886B0002142F01002026000680C4C66
:1003700000F010000590082000900120CDE9010157
:1003800003906946204600F077F9012208212046B3
:1003900000F036FA02F0AEF906B010BD3038024077
:1003A000001002402DE9F04114460546012A02D909
:1003B00041F0C00601E041F080060D4F0022082107
:1003C000384600F01DFA304602F0E0F906E0002061
:1003D00002F0DCF9641E05F8010BA4B2002CF6D182
:1003E0003846BDE8F0410122082100F009BA0000BA
:1003F000001002402DE9F041144605460E46012A40
:1004000001D941F040060C4F00220821384600F087
:10041000F7F9304602F0BAF905E0287802F0B6F9AB
:10042000641EA4B26D1C002CF7D13846BDE8F04123
:100430000122082100F0E4B90010024070B50E4D11
:1004400004462868016B002914D0204688470B49D0
:10045000286888420ED1B4F9000000EE100A6088C6
:100460002080B8EEC00AB1EE400ABDEEC00A10EE20
:10047000100A608070BD000098010020D0010020AB
:1004800070B50E4D0124A86880470D4E3B2805D05D
:100490000C4DA86880473F2808D00CE035602968DB
:1004A0004720884731682D20896A02E03560296835
:1004B000672088470024204670BD0000D00100203E
:1004C000980100209C0100200449054A31F81010D1
:1004D00052F82000002200F093B900000843000801
:1004E000880100200449054A31F8101052F8200014
:1004F000012200F085B900000843000888010020AF
:10050000002070470020704710B5002204490548BC
:1005100002F03CFC0449034802F032FC002010BD0C
:1005200010130020FC020020100B002010B5014623
:10053000034802F025FC024802F006FC002010BD32
:10054000FC02002070B5044600F060F90546601C0E
:1005500002D004480078044400F058F9401BA0423F
:10056000FAD370BD540000202DE9F04FDFF8ECB055
:1005700000224FF001094FF00F0A00BF09FA02F400
:1005800001EA0403A34264D1066857000325BD4075
:10059000AE430660D60800EB8607D7F820C05607A2
:1005A0004FEAD6680AFA08F62CEA060CC7F820C00B
:1005B0008668AE4386604668A6434660C468AC431E
:1005C000C46022F003055D44D5F808689407270F3E
:1005D0000AFA07F4DFF888C02640604502D14FF0E0
:1005E000000C1DE0DFF87CC0604502D14FF0010C2B
:1005F00016E0DFF874C0604502D14FF0020C0FE046
:10060000DFF868C0604502D14FF0030C08E0DFF866
:1006100060C0604502D14FF0040C01E04FF0070CC0
:100620000CFA07FCB44514D1D5F80868A643C5F800
:100630000868104C25689D432560241D25689D434E
:100640002560241D25689D432560241D25689D4344
:100650002560521C102A91D3BDE8F08F0030014074
:10066000000002400004024000080240000C02406A
:1006700000100240003C01402DE9F84FDFF860B166
:1006800000224FF001084FF0030A4FF00F090BF161
:10069000040E00BF0B6808FA02F42340A3426ED197
:1006A0004D68022D01D0122D0ED1D50800EB850C1E
:1006B000DCF820505607F70E09FA07F6B5430E6925
:1006C000BE402E43CCF82060066855000F790AFA28
:1006D00005FC07F0030726EA0C06AF403743076026
:1006E0004E68012E05D0022E03D0112E01D0122EFD
:1006F0000ED18668CF6826EA0C06AF403743876084
:100700004668A6430C79C4F3001494403443446013
:10071000C6688C6826EA0C06AC403443C4604C685A
:10072000E40056D52F4C256845F4804525602468A3
:1007300022F0030504F4804400942B4C2E19D6F8C3
:10074000084895072F0F09FA07F5AC43274DA84233
:1007500001D1002515E0264DA84201D1012510E068
:10076000244DA84201D102250BE0234DA84201D11E
:10077000032506E0214DA84202D1042501E028E02E
:100780000725BD402543C6F80858DBF800405D4604
:100790004E689C43F60300D51C432C60DEF80040F5
:1007A00075464E689C43B60300D51C432C600C4D27
:1007B00008352C684E689C43F60200D51C432C601B
:1007C000074D0C352C684E689C43B60200D51C437F
:1007D0002C60521C102AFFF45DAFBDE8F88F0000BA
:1007E000003C01404438024000300140000002401B
:1007F0000004024000080240000C024000100240C9
:100800000AB1816170470904FBE700000148806874
:10081000704700005400002070B5040004D094F824
:100820003D00002510B106E0012070BD84F83C5069
:10083000204600F075F8242084F83D002068016807
:1008400021F00101016000F04BFF33492268B0FB49
:10085000F1F15160314A6368934206D94FF49673BF
:1008600059434FF47A73B1FBF3F12368491C1962C1
:10087000616891420BD84900B0FBF1F2C2F30B0260
:10088000042A01D2042019E0B0FBF1F016E0A368BD
:100890009BB301EBC10202EB0112B0FBF2F242F496
:1008A0008042120530D04BB301EBC10202EB0111C3
:1008B000B0FBF1F040F4804040F400402168C86192
:1008C000D4E90701084321680860D4E9031008430C
:1008D00021688860D4E9050108432168C860206860
:1008E000016841F0010101602564202084F83D0089
:1008F000256384F83E50002070BD00E006E001EB67
:100900004102B0FBF2F2CCE70120D7E701EB410155
:10091000B0FBF1F0D0E7000040420F00A0860100DC
:1009200000B500680E4987B0884217D14FF41070A7
:1009300000901220019001200290002003900420DA
:10094000049069460748FFF797FE0748016841F49D
:1009500000110160006800F40010059007B000BDB0
:1009600000540040000402404038024002488168C0
:100970000278114481607047540000200B4810B584
:10098000016841F400710160016841F48061016017
:10099000016841F480710160032000F097F80020A5
:1009A00000F006F800F024F8002010BD003C0240E2
:1009B00070B50D4D04464FF47A712878B1FBF0F014
:1009C0000A490968B1FBF0F001F0F5F948B9102CBB
:1009D00007D200222146501E00F058F800206C601B
:1009E00070BD012070BD0000540000206000002098
:1009F0001F4808B5016841F480410160006800F4B7
:100A0000804000901A48001F016841F08051016049
:100A1000006800F080500090072000F057F8002296
:100A200011466FF00B0000F031F8002211466FF014
:100A30000A0000F02BF8002211466FF0090000F0C8
:100A400025F800221146501F00F020F80022114620
:100A5000101F00F01BF800221146901E00F016F83F
:100A60000022BDE808401146501E00F00FB80000FB
:100A70004438024000F01F020121914040098000EB
:100A800000F1E020C0F8001170470000F0B40E4BF8
:100A90001B680C46C3F30223C3F10705042D00D9DC
:100AA0000425191D072901D2002300E0DB1E0126C1
:100AB00006FA05F1491E214099409E40761E1640D7
:100AC0003143F0BC01F060BD0CED00E0064900F0E0
:100AD000070208684FF6FF03184040EA0220034A65
:100AE00010430860704700000CED00E00000FA05BC
:100AF0000068416200207047F0B500680023446A36
:100B000031B1856A4FF4827604EB15444D1E0AE03C
:100B100044EA024181620FE006EB8307C7595B1C80
:100B200004EB1744DBB2AB42F6DB4FF4807303EB0C
:100B3000810144EA024242500020F0BDD0F8EC03AB
:100B400002F074BBC1EBC10200EB8202D0F8EC03EF
:100B5000526C02F0E1BAC1EBC10200EB8202D0F8A4
:100B6000EC03D2F8042202F02CBBD0F8EC0302F024
:100B70005FBB10B504460A460B0601F07F00C0EBD0
:100B8000C00104EB810101D5383101E001F5FC71B0
:100B90000870D009487094F8B803012809D00120E2
:100BA00084F8B803206802F085FE002084F8B803BA
:100BB00010BD022010BD70B50A460446090602F0B9
:100BC0007F0005D5C0EBC00104EB8101383105E0A1
:100BD000C2EBC20104EB810101F5FC7100258D70AF
:100BE0000870D009487094F8B803012809D0012092
:100BF00084F8B803206803F03EF884F8B853002066
:100C000070BD022070BD01F00F01C1EBC10100EB0E
:100C10008100B0F8100280B2704770B504460D46EE
:100C20000E0601F07F00C0EBC00104EB810101D58D
:100C3000383101E001F5FC71ED0908704D708A60F2
:100C4000CB7000D0C8800025022B00D10D7194F824
:100C5000B803012809D0012084F8B803206802F005
:100C60007DFD284684F8B85370BD022070BD70B574
:100C70000C4601F07F05C5EBC50100EB8101C1F811
:100C80000C32C1F804220023C1F8103281F8F93186
:100C900081F8F851036901F5FC71012B00D10A615B
:100CA0006206027C006803D003F046F8002070BDA5
:100CB00002F022FFFAE770B50D460446090605F07A
:100CC0007F0005D5C0EBC00104EB8101383105E0A0
:100CD000C5EBC50104EB810101F5FC7101228A70AD
:100CE0000870E809487094F8B803012807D084F820
:100CF000B823206802F0F1FF680602D007E0022066
:100D000070BD217C04F56F72206802F095FF002011
:100D100084F8B80370BD70B50C4601F07F05C5EBD3
:100D2000C50100EB8101CB644A6400230B650123FC
:100D300081F8393001F8385F0369012B00D10A616D
:100D40006206027C006803D002F0F6FF002070BD4E
:100D500002F0D2FEFAE700002DE9F84F04460068E1
:100D60000026054603F03CF9002875D1206803F001
:100D700060F9002870D0206803F05BF9800704D583
:100D80002068416901F002014161206803F051F9D6
:100D9000010304F56F704FF0010B4FF0000A009053
:100DA0004DD5206803F027F9074646E0F80742D002
:100DB000F1B2206803F035F98046C00728D005EB72
:100DC0004612C2F808BB2069012811D1C6EBC60043
:100DD00004EB8001D2F8102BD1F80002C2F312020A
:100DE000821AC1F81022D1F804221044C1F804027A
:100DF000F1B22046FFF7AFFE2069012808D13EB9C5
:100E0000D4F80C0220B920680121009A02F014FFE6
:100E10005FEA087007D5204600F0E6FA05EB4611B8
:100E20000820C1F8080B5FEAC86004D505EB46113D
:100E30001020C1F8080B7F08761C002FB6D120685F
:100E400003F0F7F840034FF040095ED5206803F047
:100E5000CBF80746002656E0D2E1F80751D0F1B2B0
:100E6000206803F0CFF88046C00724D0D5F8342896
:100E70000BFA06F08243C5F8342805EB4610C0F89B
:100E800008B92069012807D1C6EBC60004EB800031
:100E9000D0E9101211444164F1B22046FFF752FE2E
:100EA0002069012807D136B9E06C20B920680121FA
:100EB000009A02F0C1FE5FEA087004D505EB461106
:100EC0000820C1F808095FEAC86004D505EB46119F
:100ED0001020C1F808095FEA486003D505EB461108
:100EE000C1F808995FEA887004D505EB4611022025
:100EF000C1F808095FEA086003D53146204601F0D1
:100F000059FB7F08761C002FA7D1206803F091F8C9
:100F100000280DDAD5F8040820F00100C5F804080F
:100F2000204600F047FA2168486900F00040486117
:100F3000206803F07EF800050BD5D5F80808C00737
:100F400002D0204600F06CFA2068416901F400618B
:100F50004161206803F06DF8C0044CD5D5F8040851
:100F600020F00100C5F804081021206803F008F8FB
:100F70000020FF2107E000BF05EB4012C2F808196E
:100F8000C2F8081B401C62688242F5D84FF0FF305F
:100F9000C5F81808D5F81C0840F00110C5F81C0861
:100FA000206B60B1D5F8840840F00B00C5F88408C8
:100FB000D5F8440840F00B00C5F844080BE0D5F81C
:100FC000140840F00B00C5F81408D5F8100840F0DC
:100FD0000B00C5F81008D5F8000820F4FE60C5F82D
:100FE0000008217C2068009A02F026FE21684869EA
:100FF00000F480504861206803F01BF880047DD520
:10100000206802F0EBFB2068C16821F47051C160D8
:10101000206802F0C7FF78B10320C4F81490E060A4
:1010200000F058FB7749784A014491420AD220687F
:10103000C16841F4705158E04FF40070C4F80CA03E
:10104000606136E07149724A0144914204D22068DD
:10105000C16841F4605148E06E496F4A01449142D1
:1010600004D22068C16841F450513EE06B496C4A9B
:101070000144914204D22068C16841F4405134E0F7
:101080006849694A0144914204D22068C16841F428
:1010900030512AE06549664A0144914204D22068F1
:1010A000C16841F4205120E06249421862498A42F5
:1010B00004D22068C16841F4105116E05F49604ACB
:1010C0000144914204D22068C16841F400510CE00F
:1010D0005C4908445C4988422068C16803D241F4F5
:1010E000E05102E00AE041F4C051C160204600F046
:1010F00051F92068416901F400514161206802F012
:1011000098FFC00636D52168886920F010008861F4
:10111000D5F8208008F00F00C0EBC00004EB80077A
:10112000C8F3434007F5FC77022802D0062812D006
:101130001BE047F6F07018EA000F16D0C8F30A1249
:1011400090462846F96802F078FFF8684044F86055
:10115000B869404408E008222846009902F06DFF73
:10116000B969C8F30A100844B8612068816941F080
:1011700010018161206802F05CFF000707D520465E
:1011800000F01CF92068416901F008014161206804
:1011900002F04FFFC00208D5F1B2204600F056F829
:1011A0002068416901F480114161206802F041FF2B
:1011B000800208D5F1B2204600F04CF82068416961
:1011C00001F400114161206802F033FF400007D5AF
:1011D0002046FFF7B3FC2068416901F0804141617E
:1011E000206802F026FF40070AD520684568680796
:1011F00002D52046FFF7B9FC2068416829434160C9
:10120000BDE8F88F405327FF00350C00401E1BFF40
:1012100040420F0000DC0BFF804F1200808CF9FE73
:1012200020D6130060B6E5FE60E3160000D3CEFEC4
:1012300040771B00C05BB3FEC091210000CA91FE45
:1012400020753800E05459FEE09C4100D0F8EC03D2
:1012500002F04CB8D0F8EC0302F04AB8F0B58BB00D
:1012600004004FF0000556D0032084F8B90320464F
:1012700000F054F8206802F039FC04F11001282233
:101280000F466846FEF7D5FF94E80F0002F0C0FA5B
:101290000021206802F0E1FE01260020C5EBC50117
:1012A00004EB810181F8396001F8385FCD80C870A6
:1012B0008860C8606D1C48610F2DEFD300214FF48A
:1012C000827300BFC1EBC10204EB820203EB810514
:1012D00082F8F90182F8F811D18782F8FB01C2F88F
:1012E0000002C2F80402C2F80C0222685051491CE4
:1012F0000F29E7D3282239466846FEF79AFF94E87B
:101300000F0002F053FB84F8B963206802F042FB3F
:1013100000200BB0F0BD0120FBE7000030B50068F5
:1013200087B0B0F1A04F2FD100244FF40070CDE969
:101330000004164D694628460294FFF79DF94FF4C4
:10134000E05000900220CDE90104032003900A2020
:10135000049069462846FFF78FF90D48016841F06F
:10136000800101600A481030016841F48041016049
:101370000068002200F48040059011464320FFF7EA
:1013800085FB4320FFF776FB07B030BD000002402D
:101390003438024010B50446C068012100B900216C
:1013A000D4F8EC0301F0FAFFD4F8EC03BDE81040E8
:1013B00001F0C3BFD0F8EC0301F0DEBFD0F8EC03BE
:1013C00001F0E0BF10B5044690F8B803012809D039
:1013D000012084F8B803206802F055FE002084F84C
:1013E000B80310BD022010BDD0F8EC2300F56F71DA
:1013F000104601F0E6BF10B5044690F8B803012886
:101400000CD0012084F8B803206802F0B7FA2068F5
:1014100002F0A0FD002084F8B80310BD022010BD2A
:1014200010B50446D0F8EC0302F018F82068D0F8A4
:10143000001E41F00101C0F8001E206A002804D0FF
:101440000248016841F00601016010BD10ED00E0A6
:101450002DE9F843044600684FF00109C1074FF039
:10146000000601D1400729D5DFF82081C8F868605F
:10147000FFF7CCF90746464D05E000BFFFF7C6F978
:10148000C01B022859D828680001F7D4A068217B26
:10149000800140EA0170616808433D498431086079
:1014A000C8F86890FFF7B2F9074604E0FFF7AEF915
:1014B000C01B022841D828680001F7D52078800792
:1014C00052D533484030016841F0805101600068D6
:1014D000304D00F080500090286840F48070286003
:1014E000FFF794F9074604E0FFF790F9C01B0228C4
:1014F00023D82868C005F7D5254D7035286810F425
:10150000407020D0218A01F4407181421BD02868AC
:10151000214920F44070C1F800900E6028602868CE
:10152000C00710D0FFF772F9064641F2883707E08E
:10153000FFF76CF9801BB84202D90320BDE8F8839D
:1015400028688007F4D521691148C1F301220830C9
:10155000032A12D0016821F4F81101602868218A59
:10156000C1F30B01084328602078000703D50B491D
:10157000207DC1F8E0010020E0E70268084B22F47A
:10158000F81219400A430260E8E7000000004742F1
:101590000038024000700040400E474200104742B1
:1015A000FFFCFF0F2DE9F0470E46050065D0DFF880
:1015B0001481D8F80000F7B200F00F00B04207D253
:1015C00088F80070D8F8000000F00F00B04254D145
:1015D00028683D4C810712D5400703D5206840F4A8
:1015E000E05020602878000703D5206840F4604070
:1015F00020602068A96820F0F00008432060287867
:10160000C0072DD0304968680839012812D0022857
:1016100013D0032811D00968890700292DDA216821
:1016200021F0030101432160FFF7F0F8814641F208
:10163000883A0EE009688903EFE709688901ECE759
:10164000FFF7E4F8A0EB0901514502D90320BDE8FA
:10165000F0872068696800F00C00B0EB810FEFD1D3
:10166000D8F80010404601F00F01B14207D90770C9
:10167000006800F00F00B04201D00120E7E72878B1
:10168000400705D52068E96820F4E0500843206051
:101690002878000706D52068296920F4604040EAD0
:1016A000C100206000F03CF82168084AC1F3031132
:1016B000515CC840064908600020FFF779F9002016
:1016C000C5E70000003C024008380240EC42000838
:1016D00060000020014800687047000060000020A2
:1016E0000448054900680968044AC1F38221515C35
:1016F000C84070476000002008380240FC420008E3
:101700000448054900680968044AC1F34231515C44
:10171000C84070476000002008380240FC420008C2
:10172000154810B5006810F00C02144813D0411091
:10173000042A0FD0082A0ED10F4C241F22682368D8
:1017400002F03F025B0207D52068C0F38810A0FBBF
:10175000010106E0084610BD2168C1F38811A1FB14
:1017600000010023FEF734FD2168C1F30141491C4B
:101770004900B0FBF1F010BD083802400024F4002D
:101780002DE9F84F050076D02878DFF8F8B2BE4C86
:10179000C00749D0DBF800105846C1F38101012988
:1017A00008D00068C0F3810002280AD1201D00681B
:1017B000400206D52068800336D568680028E2D04C
:1017C00032E06868B0F5803F10D0B0F5A02F2068F7
:1017D00010D020F480302060206820F48020206029
:1017E0006868A0B1FFF712F806460CE0206840F4E4
:1017F0008030F4E740F480202060F7E7FFF706F838
:10180000801B642873D820688003F7D50CE0FEF7AE
:10181000FDFF064605E000BFFEF7F8FF801B6428C9
:10182000F0D820688003F7D42878DFF8608280073A
:101830004FF000093ED5DBF80010584611F00C0FB0
:1018400009D00068C0F3810002280BD18D48001F29
:101850000068400206D42068800715D5E868012892
:1018600009D111E0E868B8B10120C8F80000FEF71E
:10187000CDFF064605E002E1FEF7C8FF801B022807
:10188000C0D820688007F7D52068296920F0F800C3
:1018900040EAC10020600DE0C8F80090FEF7B6FFF6
:1018A000064604E0FEF7B2FF801B02281FD820681E
:1018B0008007F7D42878000722D5724E74486969EA
:1018C0006C3671B101210160FEF7A0FF074604E00C
:1018D000FEF79CFFC01B022809D830688007F7D5A7
:1018E0000EE0C0F80090FEF791FF074605E083E0A8
:1018F000FEF78CFFC01B02287ED830688007F7D423
:101900002878400768D5DFF87CA100270AF1380A5B
:10191000DAF80000C0000BD4DAF8001041F0805172
:10192000CAF80010DAF80000012700F0805000909B
:10193000584E3068C00510D4306840F48070306074
:10194000FEF764FF009005E0FEF760FF0099401A83
:10195000022851D83068C005F6D54A4EA8686836C6
:1019600001280FD00528306810D020F00100306029
:10197000306820F004003060A868B8B1FEF746FF78
:1019800000900FE0306840F00100F4E740F0040000
:101990003060F7E7FEF73AFF0099411A41F28830CC
:1019A000814264D830688007F4D50EE0FEF72EFF40
:1019B000009007E0FEF72AFF0099411A41F28830B3
:1019C000814254D830688007F4D42FB1DAF800107F
:1019D00021F08051CAF80010A869C0B3DBF80010EC
:1019E000C1F3810102294AD00228484607D0C8F82D
:1019F0006000FEF70BFF00E039E005463AE047469D
:101A0000C8F86000FEF702FF064604E0FEF7FEFE9F
:101A1000801B02282BD820688001F7D4D5E9070164
:101A20000843A96A1C4A490802EB01416A6A41EA73
:101A30008211084395F82C1040EA01611148001FFB
:101A4000016001203866FEF7E1FE054605E014E07E
:101A5000FEF7DCFE401B022809D820688001F7D57C
:101A60000BE000BFFEF7D2FE401B022802D9032084
:101A7000BDE8F88F20688001F4D40020F8E7012049
:101A8000F6E70000083802400038024000004742F4
:101A9000800E4742007000400000FFFF10B50400B8
:101AA00011D0022084F851002068016821F0400123
:101AB0000160204600F04CF80020606584F8510079
:101AC00084F8500010BD012010BD90F851007047FF
:101AD00070B5040005D00025A56294F8510010B13E
:101AE00006E0012070BD84F85050204600F044F814
:101AF000022084F851002068016821F04001016053
:101B0000D4E901010843D4E9031211430843616990
:101B10000843218B01F400710843E1690843216AFD
:101B20000843A16A084321680860A069042101EA0A
:101B30001040616A0843216848602068C16921F447
:101B40000061C1616565012084F85100002070BD0D
:101B500000680649884208D10548016821F480518F
:101B60000160E0210348FEF7FFBC704700300140F0
:101B7000443802400000024000B500680E4987B0BA
:101B8000884216D10D480021026842F4805202605A
:101B9000006800F480500590E02000900220CDE91C
:101BA0000101032003900520049069460448FEF7D4
:101BB00063FD07B000BD0000003001404438024022
:101BC000000002402DE9F84F044690F8500000262E
:101BD0000A9F9A4693460D464FF0010801280ED001
:101BE000012084F85000FEF711FE814694F8510060
:101BF000616801280CD0B1F5827F07D102E0022094
:101C0000BDE8F88FA16809B9042801D00226BDE01B
:101C100055B1BBF1000F07D0BAF1000F04D094F812
:101C20005100012802D004E00126AFE0052084F82D
:101C3000510000206065C4F838B0A4F83EA0A4F8B4
:101C40003CA02563A4F836A0A4F834A02064606406
:101C500020680168490603D4016841F04001016031
:101C6000E068B0F5006F606804D0E8B3E08E01284A
:101C70003BD06AE010B1E08E01282ED1216835F802
:101C8000020BC860E08E401EE08626E0B8F1000F2F
:101C90000DD0E08E58B120688168890707D535F8E6
:101CA000021BC160E08E401EE0864FF00008E08F0E
:101CB00058B120688168C90707D0C0682BF8020BAB
:101CC000E08F401EE0874FF00108781C05D0FEF73A
:101CD0009DFDA0EB0900B84246D2E08E0028D5D188
:101CE000E08F0028D2D136E0FFE7216815F8010B1C
:101CF0000873E08E401EE08627E000BFB8F1000FB9
:101D00000DD0E08E58B120688168890707D515F895
:101D1000011B0173E08E401EE0864FF00008E08F4B
:101D200058B120688168C90707D0C0680BF8010B5B
:101D3000E08F401EE0874FF00108781C05D0FEF7C9
:101D400065FDA0EB0900B8420ED2E08E0028D5D187
:101D5000E08F0028D2D13B46012202212046CDF857
:101D6000009000F07BFC08B103260FE04A4639469C
:101D7000204600F063FC18B101262020606505E0D4
:101D8000A06818B92068C16880680090012084F8B4
:101D90005100002084F85000304631E74FF0E02138
:101DA0000428086903D020F004000861704740F05F
:101DB0000400FAE7704710B5401EB0F1807F01D3F0
:101DC000012010BD4FF0E02460610F21601700F08A
:101DD000DBFB0020A06107202061002010BD10B5B2
:101DE000FFF7E8FF10BD70B5040004D094F8390087
:101DF000002510B106E0012070BD84F8385020465F
:101E000000F022F8242084F839002068C16821F409
:101E10000051C160204600F061FD2068016921F495
:101E2000904101612068416921F02A0141612068E7
:101E3000C16841F40051C160E563202084F8390095
:101E400084F83A00002070BDF0B50068104987B0F2
:101E500088421BD10F48016841F010010160006801
:101E6000022400F0100005904FF4004001250326E5
:101E700007278DE8F10069460748FEF7FDFB802043
:101E80008DE8F10069460548FEF7F6FB07B0F0BDA6
:101E900000100140443802400000024000040240AB
:101EA0002DE9F843044690F839001F4616460D46C2
:101EB000202850D1A5B19EB194F8380001284AD00D
:101EC000012084F838004FF00008C4F83C8021203D
:101ED00084F83900FEF79AFCA6848146E68426E061
:101EE0000120BDE8F883E08C401EE084A0684B46EA
:101EF000B0F5805F4FF000024FF080012046009760
:101F000003D000F041FEE8B90DE000F03DFEC8B995
:101F100028882168C0F308004860206908B16D1C5A
:101F200005E0AD1C03E0216815F8010B4860E08C6A
:101F30000028D8D14B46002240212046009700F0CF
:101F400023FE08B10320CCE7202084F8390084F870
:101F500038800020C5E70220C3E70EB500208DF8C9
:101F60000000012239216846FEF71CFA06222721CB
:101F700001A8FEF717FA0EBD1CB500208DF8000071
:101F8000FEF7C6F940208DF8040010208DF80500FA
:101F900020208DF8060001A800F067F83F208DF89A
:101FA0000000012222216846FEF724FA50208DF815
:101FB0000000012238216846FEF71CFAAA208DF89D
:101FC000000001223B216846FEF714FA0A208DF832
:101FD000000001223C216846FEF70CFA4C208DF8E7
:101FE0000000012230216846FEF704FA03208DF834
:101FF000000001223D216846FEF7FCF97F248DF8A0
:10200000004001223E216846FEF7F4F98DF80040B9
:1020100001223F216846FEF7EDF91CBD704738B537
:10202000044600208DF80000012221216846FEF7B9
:10203000B9F99DF80000012200F0D00020438DF88E
:10204000000021216846FEF7D5F938BD38B50446B1
:1020500000208DF80000FEF781F98DF80040012284
:1020600020216846FEF7C6F938BD38B50446002081
:102070008DF80000012238216846FEF793F9207898
:10208000617801220843A17808438DF800003821C7
:102090006846FEF7AFF938BD70B588B00646122520
:1020A00000240122202106A8FEF77CF9062229211E
:1020B00003A8FEF777F903A90DF1040001EB440230
:1020C00092F9002020F81420641CE4B2032CF5D30C
:1020D0009DF8181011F0200102D0202903D101E051
:1020E000122500E04825002130F8112012FB05F2EE
:1020F00026F81120491CC9B20329F5D308B070BDD8
:1021000008B500208DF80000FEF728F901220F2104
:102110006846FEF747F99DF8000008BD08B50122A2
:1021200021216846FEF73EF99DF80000012240F0AB
:1021300040008DF8000021216846FEF75BF908BDDC
:102140003EB500248DF80040FEF7E2F88DF805401A
:102150008DF8044040208DF8060001258DF80950C7
:102160008DF807408DF80A4001A800F06AF80320B6
:102170008DF80000012252216846FEF73BF9C82085
:102180008DF80000012254216846FEF733F94520FE
:102190008DF80000012256216846FEF72BF9FC203D
:1021A0008DF8000001225A216846FEF723F9A1208C
:1021B0008DF8000001225B216846FEF71BF98DF8BF
:1021C000005001225C216846FEF714F901227B21B0
:1021D0006846FEF70FF9012260216846FEF70AF90A
:1021E00006208DF80000012261216846FEF702F901
:1021F00028208DF80000012262216846FEF7FAF8D7
:1022000011208DF80000012263216846FEF7F2F8E4
:102210003EBD704738B5044600208DF80000FEF73B
:102220009DF88DF80040012220216846FEF7E2F873
:10223000200A8DF80000012224216846FEF7DAF812
:1022400038BD38B5044600208DF80000607821784C
:1022500001220843A17808438DF800002321684635
:10226000FEF7C8F8E0782179012208438DF80000D4
:1022700021216846FEF7BEF86079A1790122084362
:102280008DF8000022216846FEF7B4F838BD000042
:1022900070B506462DED028B84B000259FED2E8A89
:1022A0000122242102A8FEF77DF801222821684698
:1022B000FEF778F86C4601222921601CFEF772F8BF
:1022C00001222A21A01CFEF76DF801222B21E01C1F
:1022D000FEF768F801222C21201DFEF763F8012289
:1022E0002D21601DFEF75EF89DF8080000F0380013
:1022F00010280CD003DC90B1082810D104E0182875
:1023000008D020280BD108E09FED148A07E09FED4C
:10231000148A04E09FED138A01E09FED138A04EB19
:10232000450090F9001090F9010001EB002000EE4B
:10233000100AB8EEC00A20EE080ABDEEC00A10EE80
:10234000100A26F815006D1CEDB2032DE7D304B07A
:10235000BDEC028B70BD00008FC2753D8FC2F53D94
:10236000EC51383E8FC2753E48E13A3F08B5002037
:102370008DF80000FDF7F2FF01220F216846FEF7FD
:1023800011F89DF8000008BD08B501222521684616
:10239000FEF708F89DF80000012240F080008DF85B
:1023A000000025216846FEF725F808BD2DE9F04715
:1023B000434886B00024016841F0100101600168C3
:1023C00001F010010591016841F00401016001680C
:1023D00001F004010591016841F08001016001688C
:1023E00001F080010591016841F00101016001687F
:1023F00001F001010591016841F0020101600168ED
:1024000001F002010591016841F0080101600068D6
:10241000DFF8B08000F00800059000220821404657
:10242000FEF7EEF9DFF8A090012211464846FEF7CC
:10243000E7F9DFF898A04FF210070022394650461E
:10244000FEF7DEF90420CDE9000469464046029417
:10245000FEF712F9082000900125CDE901546946E4
:1024600040460394FEF708F9194E3220CDE90006E4
:10247000694602944046FEF7FFF80095CDE9015405
:10248000694648460394FEF7F7F80095CDE90164E4
:1024900069461048FEF7F0F80097CDE90154694607
:1024A00050460394FEF7E8F82020CDE90004694681
:1024B00050460294FEF7E0F806B0BDE8F087000051
:1024C000303802400010024000080240000C024078
:1024D00000001210000002400B4810B509490160CD
:1024E0000A49416000214FF480428160C0E9031233
:1024F00041618161C1610162FEF78EF9002800D05F
:10250000FEE710BD0054004010020020A08601002C
:102510000E4810B50C4901604FF4827141600021F2
:102520008160C1604FF400720161C0E90512C161B0
:102530000162416281620A21C162FFF7C9FA002883
:1025400000D0FEE710BD0000003001406402002012
:1025500010B500220849094800F0A9FD08490748BC
:1025600000F0A9FF0749054800F002FCBDE8104053
:10257000024800F0EDBF000010000020FC02002027
:1025800044010020440000200907090E002806DA53
:1025900000F00F0000F1E02080F8141D704700F1FA
:1025A000E02080F8001470470148FEF7D5BB00001A
:1025B000200500202DE9F84F0F46C1EBC70100EBC5
:1025C000810582460668D5E91301441A286C38351E
:1025D000A04200D20446E01C4FEA900806EB4719DF
:1025E00016E0441AA868A04200D20446E01C4FEA54
:1025F00090089AF810000090A3B2FAB23046E96849
:1026000001F052FDE8682044E860A8692044A86110
:10261000D9F8180980B2404505D9D5E905018142AC
:1026200001D20028DDD134B90120D6F83418B840E1
:102630008143C6F834180020BDE8F88F38B50B4642
:10264000009204460022802100F008F8002804D0FF
:10265000606D40F020006065032038BD2DE9F04139
:102660001D4617460E460446DDF8188035E0681C06
:1026700033D02DB1FEF7CAF8A0EB0800A8422CD346
:102680002068416821F0E00141606068B0F5827F18
:102690000BD1A068B0F5004F02D0B0F5806F04D127
:1026A0002068016821F040010160A06AB0F5005F78
:1026B0000AD1206801684DF6FF7211400160206860
:1026C000016841F400510160012084F851000020AC
:1026D00084F850000320BDE8F0812068806836EA65
:1026E000000004D00020B842C1D10020F3E701204F
:1026F000F9E7000000B587B02048FFF7E6F90028A9
:102700003AD11E481E4901601821C1610021816033
:10271000416107220161C0E90A12C1604FF40072F1
:102720000162826141624FF4827141601548016823
:1027300041F480510160006800F480500590114818
:102740001438016841F0010101600068694600F039
:1027500001000590E02000900220019002900120ED
:102760000390052004900848FDF786FF07B0034852
:102770005DF804EBFFF7ACB907B000BD101B0020FB
:1027800000300140443802400000024001B582B0F0
:1027900000208DF804000948012301AA80680090F8
:1027A00002A90748FFF70EFA20B10548FFF776F9AE
:1027B000FFF7A0FF9DF804000EBD00007C01002083
:1027C000101B002010B5FEF7D1F8BDE81040FFF750
:1027D00006BB000070B52A4898B00025016841F09A
:1027E00080510160006800F0805017902548016812
:1027F00041F4404101600068012600F44040179018
:102800004FF4A020CDE9006002246005CDE9064028
:102810000420C021CDE908010A9008200B906846E9
:10282000FEF7AEFF00B1FEE70CA90F2081E83100F2
:102830004FF4A050CDE90F0503210CA8FEF7B2FE1E
:1028400000B1FEE7C820139005201494CDE9116073
:1028500011A8FEF7FDFD00B1FEE7FEF73BFF4FF4C8
:102860007A71B0FBF1F0FFF7A6FA0420FFF796FAB1
:1028700000221146501EFEF709F918B070BD000085
:1028800040380240007000401048016841F4700177
:1028900001600F48016841F0010101600C4A00210C
:1028A0000832116002680B4B1A400260031D0A4A8D
:1028B0001A60026822F48022026005480C30016030
:1028C00002495806803908607047000088ED00E032
:1028D00000380240FFFFF6FE103000242DE9F041E1
:1028E00004460068016921F44052E1681143016126
:1028F0002168C86849F20C6290432369A268E569BF
:102900001A4363692B431A430243CA60216848692A
:1029100020F44072A06910434861E1696425B1F573
:10292000004F9748974A21684FF032083FD09142B4
:1029300001D081427CD1FEF7E3FE00EBC00101EB48
:10294000001061688900B0FBF1F6FEF7D9FE00EBDC
:10295000C00101EB001061688900B0FBF1F0B0FB31
:10296000F5F06FF01801484306EB800108EB011009
:10297000B0FBF5F000F0F006FEF7C2FE00EBC00180
:1029800001EB001061688900B0FBF1F0B0FBF5F0DD
:1029900006EB0016FEF7B4FE00EBC00101EB0010E1
:1029A00061688900B0FBF1F7FEF7AAFED2E0914220
:1029B00001D081423DD1FEF7A3FE00EBC00101EB47
:1029C000001061684900B0FBF1F0B0FBF5F00601C2
:1029D000FEF796FE00EBC00101EB001061684900B4
:1029E000B0FBF1F7FEF78CFE00EBC00101EB00102D
:1029F00061684900B0FBF1F0B0FBF5F06FF0180131
:102A0000484307EB800108EBC100B0FBF5F000F094
:102A1000F80006EB4006FEF773FE00EBC00101EB89
:102A2000001061684900B0FBF1F7FEF769FE3CE079
:102A300055E0FEF755FE00EBC00101EB00106168A8
:102A40004900B0FBF1F0B0FBF5F00601FEF748FEDF
:102A500000EBC00101EB001061684900B0FBF1F729
:102A6000FEF73EFE00EBC00101EB0010616849007B
:102A7000B0FBF1F0B0FBF5F06FF01801484307EB45
:102A8000800108EBC100B0FBF5F000F0F80006EBA8
:102A90004006FEF725FE00EBC00101EB0010616867
:102AA0004900B0FBF1F7FEF71BFE00EBC00101EBA4
:102AB000001061684900B0FBF1F0B0FBF5F06FF079
:102AC0001801484307EB800108EBC100B0FBF5F0AB
:102AD00000F00700216830448860BDE8F081FEF70F
:102AE000FFFD00EBC00101EB001061688900B0FB45
:102AF000F1F6FEF7F5FD00EBC00101EB0010616897
:102B00008900B0FBF1F0B0FBF5F06FF0180148431D
:102B100006EB800108EB0110B0FBF5F000F0F006C9
:102B2000FEF7DEFD00EBC00101EB001061688900DB
:102B3000B0FBF1F0B0FBF5F006EB0016FEF7D0FDB0
:102B400000EBC00101EB001061688900B0FBF1F7F8
:102B5000FEF7C6FD00EBC00101EB001061688900C3
:102B6000B0FBF1F0B0FBF5F06FF01801484307EB54
:102B7000800108EB0110B0FBF5F000F00F00A9E7B1
:102B800000140140001001402DE9F041984617461D
:102B90000E460446069D1DE0681C1BD02DB1FDF7B6
:102BA00035FEA0EB0800A84214D92068C16821F4C2
:102BB000D071C1602068416921F00101416120208C
:102BC00084F8390084F83A00002084F838000320A3
:102BD000BDE8F0812068006836EA000004D00020DB
:102BE000B842D9D00020F3E70120F9E7D0F8180265
:102BF00020B10021C0F81412084670470220704727
:102C000070B50546D0F8184200F01DFBC4F80C0260
:102C1000D5F8180248B1D5F81C12D4F80402CA68D5
:102C200004F503719047002070BD022070BD70B59F
:102C300004460025812100F05FFA0121204600F0C2
:102C40005BFA8221204600F057FAD4F8180250B1FE
:102C5000D4F81C0204F5067440688047206801F02F
:102C60006DFA00202060284670BD10B5D0E986417D
:102C700059B194F80002FF2807D08B6894F801221C
:102C800021469847FF2084F80002002010BD000074
:102C90000A210180004870476C0000204321018018
:102CA00000487047BC000020432101800048704765
:102CB0007800002043210180004870470001002077
:102CC0002DE9F0410446007C00254FF4007670B3F6
:102CD000402302228121204600F00CFB40230222E7
:102CE0000121204600F006FB082303228221204612
:102CF00000F000FB4FF4077001F0C2FAC4F81802AC
:102D0000F0B10746D4F81C02006880470020C7F8DD
:102D10001402C7F81802207CD7F8042290B140238F
:102D20000121204600F0F9FA2846BDE8F081FFE7CE
:102D3000334602228121204600F0DCFA3346CEE7FA
:102D40000125F1E73346EBE710B5D0F8181269B169
:102D5000027C002AD1F8042205D04023012100F092
:102D6000DCFA002010BD4FF40073F7E7022010BD1D
:102D700002460220002902D00020C2F81C1270472F
:102D8000D0F81802C0F8041200207047D0F81802DA
:102D9000C0F81022C0F808120020704770B506462F
:102DA000D0F8185208780C4610F0600121D0202984
:102DB00027D1E288AAB10006607807D5D6F81C12A0
:102DC0008B6829469847E288294617E085F8000273
:102DD000A07985F80102E2882946304600F038F8EB
:102DE0000FE0D6F81C12607800228B6821469847C5
:102DF00007E060780A2804D103490122304600F038
:102E000041F8002070BD00006800002010B5D0F827
:102E1000142252689047002010BD134610B50A4690
:102E2000002100F07AFA002010BD134610B50A46C2
:102E3000002100F01CFB002010BD10B504468021CD
:102E400000F0ECFA2046BDE81040002100F0E6BAA0
:102E500010B50323C0F80821C0F8F431C0F80C21E4
:102E600013460A46002100F058FA002010BD10B5A4
:102E700005210023C0F8F4111A46194600F04DFA56
:102E8000002010BD10B502238261C0F8F431C26188
:102E900013460A46002100F0EAFA002010BD10B5E2
:102EA00004210023C0F8F4111A46194600F0DFFA95
:102EB000002010BD10B50A46024903A000F0D4F866
:102EC000004810BD1009002043444320436F6E6644
:102ED0006967000012200880004870473000002019
:102EE00010B50A46024903A000F0BEF8004810BD24
:102EF0001009002043444320496E74657266616383
:102F00006500000004200880004870472C00002065
:102F100010B50A46024903A000F0A6F8004810BD0B
:102F20001009002053544D6963726F656C656374BA
:102F3000726F6E696373000010B50A46024903A000
:102F400000F092F8004810BD1009002053544D3392
:102F500032205669727475616C20436F6D506F72C8
:102F60007400000010B50A46024903A000F07CF886
:102F7000004810BD10090020303030303030303083
:102F80003030314100000000F8B5044648880D4655
:102F9000010A08294BD2DFE801F04A0409174A4A1E
:102FA0004048D4F81012207C0A6832E0207C0226C7
:102FB0000028D4F8140205D0C16A68468847014643
:102FC000467041E0816AF8E7C0B206282FD2DFE8F8
:102FD00000F003080D12171CD4F81012207C4A6868
:102FE00017E0D4F81012207C8A6812E0D4F810128E
:102FF000207CCA680DE0D4F81012207C0A6908E031
:10300000D4F81012207C4A6903E0D4F81012207C16
:103010008A6969469047014616E0207C38B9D4F8A1
:103020001402416B68468847F5E7207C20B12946A9
:103030002046FFF702FFF8BDD4F81402016B684682
:103040008847014607204870BDF800000028F2D0EC
:10305000EA88002AEFD0824200D90246ADF800206B
:103060002046FFF70FFFF8BD70B5002300281DD0E4
:103070000446002502E06D1CEDB2641C2678002E8B
:10308000F9D1022404EB45041480CC545B1C0322C8
:10309000CA5400245B1C06E0CA545B1CDAB28C5490
:1030A000521CD3B2401C0278002AF5D170BD10B575
:1030B00080B1D0F8143213B10023C0F8143209B132
:1030C000C0F81012012180F8FC11027000F0C0F865
:1030D000002010BD022010BD10B50024D0F8200241
:1030E000FDF769FD30B1012801D0022801D002248A
:1030F00000E00124204610BD10B50024D0F82002C5
:10310000FDF737FD30B1012801D0022801D002249B
:1031100000E00124204610BD2DE9F0411746044689
:1031200041B1D4F8140242698AB394F8FC0103282F
:1031300042D043E0D4F8F411002504F11400022930
:1031400033D1D0E902639E4207D9F31A83609AB261
:1031500039462046FFF769FE12E04068B0FBF3F104
:1031600003FB1101A1B9984212D3D4F8F811884297
:103170000ED2002211462046FFF757FEC4F8F85140
:1031800000231A461946204600F0C7F80DE012E069
:10319000D4F81402C16829B194F8FC01032801D1C4
:1031A000204688472046FFF762FE94F80002012877
:1031B00004D184F8005201E0204690470020BDE889
:1031C000F08170B51546044641B1D4F81402826905
:1031D0003AB394F8FC01032824D025E0D4F8F41184
:1031E00004F5827003291FD1D0E902218A420BD94C
:1031F000531A83600846834200D303469AB2294695
:103200002046FFF70AFE0FE0D4F81402016929B145
:1032100094F8FC01032801D1204688472046FFF797
:103220003EFE01E020469047002070BD0020704720
:1032300010B5012180F8FC11D0F8142201795268F0
:103240009047002010BDD0F82002FDF7DCBC000044
:1032500010B5017861BB17490222C1F8EC03C0F830
:1032600020124FF0A0400860042048600020C1E90F
:103270000320C1E90502C861086201224862C1E970
:103280000B200846FDF7EAFF20B140F253110AA0D7
:1032900000F01EFF80210748FDF72AFC4022002194
:1032A0000448FDF729FC802201210248FDF724FC97
:1032B000002010BD200500202E2E2F5372632F7585
:1032C0007362645F636F6E662E6300000A0601F02E
:1032D0007F01D0F82002C1EBC10100EB810002D5D3
:1032E00090F83A00704790F8FA0170470020704754
:1032F0000020704770B51D4613460024D0F8200208
:103300002A46FDF78AFC30B1012801D0022801D0FD
:10331000022400E00124204670BD10B50024D0F83E
:103320002002FDF7A4FC30B1012801D0022801D011
:10333000022400E00124204610BD70B5002204469E
:1033400040231146FFF7D6FF40252B46002280215F
:103350002046C4F81051FFF7CDFF0120256284F804
:10336000FC01D4F8180228B1D4F81402217942687B
:1033700020469047002070BD90F8FD1180F8FC11A8
:103380000020704710B590F8FC11032904D1D0F843
:103390001412C96901B18847002010BD01740020D2
:1033A000704710B50024D0F82002FEF70BF830B1BA
:1033B000012801D0022801D0022400E00124204687
:1033C00010BD70B5044600F50270054600F05FF8C8
:1033D0000120C4F8F401B4F80E02C4F8F80194F81E
:1033E000080210F01F010AD001290DD0022910D0C7
:1033F00000F08001204600F011F8002070BD294641
:10340000204600F0AAF8F8E72946204600F08CF99B
:10341000F3E72946204600F019F9EEE710B500243D
:10342000D0F82002FDF747FC30B1012801D0022876
:1034300001D0022400E00124204610BD10B5002474
:10344000D0F82002FDF7D7FF30B1012801D00228C3
:1034500001D0022400E00124204610BD90F8FC11A8
:1034600080F8FD11042180F8FC110020704710B590
:103470000024D0F82002FDF74EFC30B1012801D025
:10348000022801D0022400E00124204610BD0A7861
:1034900002704A7842708A78CB7802EB032242802D
:1034A0000A794B7902EB032282808A79C97902EB8F
:1034B0000121C18070470246002011B1C2F81412E8
:1034C00070470220704710B5D0F8142202241AB1B8
:1034D0001268904700B90024204610BD70B50E4612
:1034E0001A4D897804462970012928D894F8FC01DE
:1034F000022802D0032822D105E099B1032061609F
:1035000084F8FC0109E091B1606888420AD0C1B238
:103510002046FFF77BFC297861602046FFF7D3FF48
:1035200002280CD02046BDE87040FFF7B8BC02204E
:1035300084F8FC0120466160FFF768FCF2E7314641
:103540002046BDE87040FFF778BC00006400002012
:1035500010B5FFF773FF002010BD2DE9F0410026E4
:103560004B78012532460A2B43D2DFE803F03C5862
:103570004251420805422A27FFF706FD63E0044650
:103580008888C8B9C888B8B9887800F07F0794F8E7
:10359000FC01032810D084F8FE7139462046FFF75D
:1035A00000FF2046FFF77BFC1FB1022084F8FC01DE
:1035B00049E084F8FC5146E020461AE0FFF78EFF10
:1035C00041E0CB88012B14D190F8FC31022B02D0C2
:1035D000032B0ED104E08260012200F1080114E007
:1035E0000122011D11E090F8FC21022A04D0032AD7
:1035F00002D0FFF722FC26E0C560D0F8041209B122
:103600000321C160022200F10C01FFF73BFC1AE02C
:1036100004464888012816D1C4F804520BE0044639
:1036200090F8FC01022801D00328C5D14888012860
:1036300009D1C4F80422D4F81402826820469047C5
:103640002046FFF72CFC3046BDE8F08170B50D46F2
:103650000446287800260979C0F34110012806D0D5
:103660006878A0B301281FD003283FD107E0D4F821
:1036700014022946826820469047002070BD94F8C5
:10368000FC01022817D003282CD1688828B921B161
:10369000802902D02046FFF7C1FED4F81402294643
:1036A00082682046904713E094F8FC01022802D07B
:1036B000032817D103E0C9B180291BD116E068881F
:1036C000A0B9480604D02046FFF706FDE5E703E071
:1036D0002046FFF7E4FB09E094F8FC01022807D03C
:1036E00003280BD029462046FFF7A7FB304670BDC4
:1036F0004806FBD02046FFF791FEF7E7080601F0E9
:103700007F0004EB001501D5143501E005F5827545
:103710002046FFF7DBFD00B1012028600222294688
:103720002046FFF7AFFBE1E770B5054690F8FC01D6
:103730000C4603280DD1207901280AD8D5F81402A7
:10374000826828469047E08830B92846FFF7A7FBF3
:1037500002E02846FFF771FB002070BD30B54C78C1
:103760001D4B01220D78AA40012CD0F81C4818D01E
:1037700044EA0242C0F81C280A7800EB4210D0F854
:10378000002B12040BD4D0F8002B0C89C4F30A04CC
:103790002243C97843EA81410A43C0F8002B002044
:1037A00030BD92B21443C0F81C480C7800EB4410B2
:1037B000D0F800291204F2D4D0F800290D89C5F3FD
:1037C0000A052A43C978890441EA84510A431A4305
:1037D000C0F80029E3E7000000800010D0F80019CD
:1037E0006FF30A01C0F80019D0F80818C1F34101BD
:1037F000022905D1D0F8001941F00301C0F80019E1
:10380000D0F8041841F48071C0F804180020704703
:1038100070B50446049D06990D9801290CD0E06806
:1038200040F04000E060204600F028F84FF480307F
:10383000A063012D16D01DE0A16B21F48031A1639E
:10384000E1680D4A1140E160E16821F44011E16056
:10385000012803D1E06840F48010E060204600F0C9
:103860000DF8E6E7A06840F00600A060A06840F010
:103870002000A060002070BDBFFFBDFF01220C49E9
:1038800002E0521C8A420BD80369002BF9DA026964
:1038900042F001020261012204E0521C8A4201D975
:1038A000032070470369DB07F7D100207047000051
:1038B000400D0300F0B50D4604464F780126F20690
:1038C000D3002D49287804EB4010012F14D0D0F8F4
:1038D000007B27F40047C0F8007B287804EB4010F9
:1038E000C0F8002B287804EB4010C0F8003B012002
:1038F0002A7804EB42122BE0D0F8007927F4004735
:10390000C0F80079287804EB4010C0F80029287826
:1039100004EB4010C0F8003901202A7804EB421271
:1039200002E0401C884211D8D2F808395B00F8D474
:103930001021204600F024FBD4F81C0829788E4082
:10394000B1B2884314E0401C884201D90320F0BD85
:10395000D2F8083BDB06F6D4D4F8040840F48060C3
:10396000C4F80408D4F81C0829788E4020EA0640E0
:10397000C4F81C080020F0BD400D030010B5D0F8BD
:10398000041821F00201C0F804180320FCF7DAFD46
:10399000002010BD10B5D0F8041841F00201C0F8A5
:1039A00004180320FCF7CEFD002010BD2DE9F047E0
:1039B0000E460446DDE90A0A0025DDF83C80089F32
:1039C0005FEA0801A16B11D041F40021A1634FF01F
:1039D0000009C4F8009ED4F80018C4F800180128A3
:1039E00007D0D4F8000840F0030007E041F40011CC
:1039F000ECE7D4F800080BB140F00100C4F800086F
:103A00001021204600F0BCFA204600F0A9FA4846F2
:103A1000C4F81098C4F814984FF0FF31C4F818187F
:103A2000C4F81C984FF0904CFF230FE004EB4511B5
:103A3000D1F80029002A02DAC1F800C901E0C1F872
:103A40000009C1F81009C1F808396D1CAE42EDD863
:103A500000210FE004EB4112D2F8005B002D02DAE6
:103A6000C2F800CB01E0C2F8000BC2F8100BC2F89C
:103A7000083B491C8E42EDD8D4F8101821F480710F
:103A8000C4F81018012F0AD11449C4F83018D4F81A
:103A90003018134A1143C4F83018D4F83018A06114
:103AA0006FF0804060611FB9A06940F01000A06114
:103AB000A0690C490843A061BAF1000F03D0A069C6
:103AC00040F00800A061B8F1010F03D1A0690649D8
:103AD0000843A0610020BDE8F087000000018000DD
:103AE0000300010000383C8004000040816821F0A0
:103AF000010181600020704730B54D784D4C0B7846
:103B000000EB4313012D28D0D3F8105B6FF312059F
:103B1000C3F8105B0B7800EB4313D3F8105B254020
:103B2000C3F8105B4B690BB18B684B610B7800EBF2
:103B30004313D3F8104B44F40024C3F8104B0B7814
:103B400000EB4313D3F8104B8D68C5F312052C43DB
:103B5000C3F8104B012A5CD061E04D69002DD3F809
:103B600010593BD06FF31205C3F810590B7800EBD6
:103B70004313D3F810592540C3F810594C698B688A
:103B80009C4200D94B610B7800EB4313D3F81049EA
:103B900044F40024C3F810490B7800EB4313D3F826
:103BA00010494D69C5F3120554EA0504C3F81049DC
:103BB0000B7800EB4313D3F8004944F00444C3F8F6
:103BC0000049012A1ED04A6912B3D0F834280B7874
:103BD000012199400A43C0F8342829E02540C3F860
:103BE00010590B7800EB4313D3F8104944F4002428
:103BF000C3F810490B7800EB4313D3F810496FF367
:103C00001204D3E70A69097800EB4110C0F81429BF
:103C10000EE00B7800EB4313CA68C3F8142B097845
:103C200000EB4110D0F8001B41F00441C0F8001B2C
:103C3000002030BDFFFF07E00023C0F8103BD0F8A4
:103C4000103B43F40023C0F8103BD0F8103B43F086
:103C50001803C0F8103BD0F8103B43F0C043C0F845
:103C6000103B012905D1C0F8142B4FF08021C0F87A
:103C7000001B002070474B780A7800EB4212012BA2
:103C80000BD0D2F8003B23F40013C2F8003BCA78F3
:103C9000032A17D0022A15D01DE0D2F8003923F4E8
:103CA0000013C2F80039CA78032A01D0022A12D1BF
:103CB000097800EB4110D0F8001941F08051C0F8AC
:103CC000001908E0097800EB4110D0F8001B41F022
:103CD0008051C0F8001B002070474B780A7800EB39
:103CE0004212012B14D0D2F8003B002B05DBD2F896
:103CF000003B23F08043C2F8003B097800EB411001
:103D0000D0F8001B41F40011C0F8001B00207047E0
:103D1000D2F80039002B05DBD2F8003923F08043BC
:103D2000C2F80039097800EB4110D0F8001941F4CD
:103D30000011C0F80019E9E778B54E786FF06045DA
:103D4000834C0B7800EB4313012E2FD0D3F8106B6C
:103D50006FF31206C3F8106B0B7800EB4313D3F824
:103D6000106B2640C3F8106B4B69002B7DD08C681C
:103D700023445B1EB3FBF4F39BB20C7800EB4414BA
:103D8000D4F8106B05EAC3452E43C4F8106B0C78C9
:103D900000EB4414D4F8105B8E685E43C6F3120344
:103DA0001D43C4F8105B012A73D0B2E04E6966B3BC
:103DB000D3F810696FF31206C3F810690B7800EBA3
:103DC0004313D3F810692640C3F810694C698B6817
:103DD0001C44641EB4FBF3F305EAC3440B7800EB08
:103DE0004313D3F810592C43C3F810490B7800EB58
:103DF0004313D3F810494D69C5F312052C43C3F89A
:103E00001049CB78012B16D027E0D3F81059254064
:103E1000C3F810590B7800EB4313D3F8104944F45E
:103E20000024C3F810490B7800EB4313D3F8104972
:103E30006FF312040FE00B7800EB4313D3F8104933
:103E400024F0C044C3F810490B7800EB4313D3F8B7
:103E5000104944F00054C3F81049012A12D0CB781D
:103E6000012B17D04B692BB300E037E0D0F8343882
:103E70000D780124AC402343C0F83438CB78012BB3
:103E800008D017E00C7800EB44140B69C4F814391F
:103E9000F4E738E0D0F80838DB050B7800EB431383
:103EA000D3F8004902D444F0005401E044F08054B7
:103EB000C3F800490B7800EB4313D3F8004944F0F2
:103EC0000444C3F80049CB78012B3ED100928A8A82
:103ED00093B20A78C96800F0E7F836E00B7800EB97
:103EE0004313D3F8104B8D68C5F312052C43C3F868
:103EF000104B0B7800EB4313D3F8104B44F4002421
:103F0000C3F8104B4FE70B7800EB4313CA68C3F8B4
:103F1000142BCA78012A0FD1D0F80828D2050A78C4
:103F200000EB4212D2F8003B02D443F0005301E010
:103F300043F08053C2F8003B097800EB4110D0F801
:103F4000001B41F00441C0F8001B002078BD0000B8
:103F5000FFFF07E0816841F00101816000207047A8
:103F6000002110220261054A491C914201D9032017
:103F700070470369DB06F7D400207047400D03004B
:103F80000022202343EA811101610549521C8A4223
:103F900001D90320704703699B06F7D400207047BE
:103FA000400D03000021D0F8082812F0060F15D0AC
:103FB000D0F80828C2F34102012A0CD0D0F8082812
:103FC000C2F34102032A06D0D0F80808C0F341002A
:103FD000022802D002E0032100E0022108467047D7
:103FE000406900F001007047D0F81818D0F81C089C
:103FF000084080B27047D0F81818D0F81C08084064
:10400000000C7047D0F81038D0F83428CA4002F0BD
:10401000010243EAC21200EB4110D0F80809104037
:10402000704700EB4111D1F8081BD0F81408084084
:104030007047416980690840704710B50346002009
:10404000D21C920803F5805303E01C6841F8044B2E
:10405000401C9042F9D3084610BD10B5C26822F04A
:10406000C042C260012901D021B107E0C16841F01E
:10407000005102E0C16841F08041C1603220FCF78C
:1040800061FA002010BDD0F8002822F4FE62C0F8CA
:104090000028D0F800284FF4FE6303EA01110A4318
:1040A000C0F800280020704730B50024039D6DB98A
:1040B000DB1C9B0800EB023000F5805004E000BFE1
:1040C00051F8042B0260641C9C42F9D3002030BDDF
:1040D000FEE70000014A024900F013B8254100083C
:1040E0000402002002E008C8121F08C1002AFAD109
:1040F00070477047002001E001C1121F002AFBD168
:1041000070472DE9F04116460F460446002503E0AE
:104110003946B047641C6D1C20780028F8D1284629
:10412000BDE8F08113B56423012269460248FDF71A
:10413000B7FE00981CBD0000BC02002010B500288E
:1041400021D0114B0022001F196803E0814203D8DF
:104150000A4649680029F9D152B11368841A9C4271
:1041600004D1006818441060104602E0506000E07E
:10417000186039B102680B1A934203D10B681A44D4
:1041800002604968416010BD08020020FCF7F6FBA0
:10419000FEF720FBFEF70AF9FEF79EF9FEF7B8F9E5
:1041A000FEF7D6F9314830490C2201604FF4E13175
:1041B000416000218160C160C0E904128161C16178
:1041C000FDF711FE00B1FEE7FCF75AF900B1FEE77A
:1041D00027A0FFF77FFF4FF4FA70FCF7B3F9274DE4
:1041E000A5F108042548FCF729F9FA20FCF7AAF9FB
:1041F000B5F90000E080B5F90210A180002801DACD
:10420000424200E00246002901DA4B4200E00B4640
:104210009A420DDDB4F90010884201DD022004E06D
:10422000B4F9021088420FDA0020FCF75BF90BE0CA
:10423000B4F90200814201DA0320F6E7B4F9000084
:10424000814201DD0120F0E70A20FCF77BF9012023
:10425000FCF73AF90020FCF737F90220FCF734F9B3
:104260000320FCF731F9BDE700100140BC0200203B
:1042700048656C6C6F0D200A0000000008000020EB
:10428000F0B50B30154D20F007010024144A0FE063
:1042900003688B420BD38B4205D95E1A43184768DB
:1042A000C3E9006700E04368136002C004E0021D38
:1042B00010680028ECD12046002802D1286808B1F7
:1042C0000020F0BD064A07481060074A121A22F083
:1042D0000702C0E9002401202860D7E70C02002073
:1042E00008020020C41B0020C01D002000000000A8
:1042F0000000000001020304060708090000000096
:1043000001020304060001000010002000400080AC
:10431000304300080000002010020000B80200082E
:104320003044000810020020B01F0000F4400008D4
:1043300012C8C338FF13D52E1408052F1B0811040B
:104340001A39041A65041AB5141AE104170403098A
:10435000041201140202021640830440572602018F
:104360000203011B09053419041A01042A2D08311E
:1043700082109324F4130A0632022A40201C0902F8
:10438000433F1125C03209041B01020B13052416FB
:104390001001052401100901042402020524061756
:1043A0000107058203081C10090475320A1D070560
:1043B0000102432C070581070938442A40072A8156
:1043C00007112B0907440A2204440A16FF4413C1AB
:1043D0002C1B082F04139D2D42081A6B0C13ED2B78
:1043E0001B080108C12AA92419041AB5043A911C12
:1043F000193F321029041A0C0CA904311315221B81
:10440000081304136D231B088904CB4121500110AC
:104410001A912C134D201B081D041A012C1A1D047F
:104420000B10791F341A5B141A1F24415A99088102
:040000050800019955
:00000001FF
